{"abi":[{"type":"constructor","inputs":[{"name":"_stakingVault","type":"address","internalType":"address"}],"stateMutability":"nonpayable"},{"type":"function","name":"CHALLENGE_BOND","inputs":[],"outputs":[{"name":"","type":"uint256","internalType":"uint256"}],"stateMutability":"view"},{"type":"function","name":"CHALLENGE_WINDOW","inputs":[],"outputs":[{"name":"","type":"uint256","internalType":"uint256"}],"stateMutability":"view"},{"type":"function","name":"CONTENT_BOND","inputs":[],"outputs":[{"name":"","type":"uint256","internalType":"uint256"}],"stateMutability":"view"},{"type":"function","name":"DEFAULT_ADMIN_ROLE","inputs":[],"outputs":[{"name":"","type":"bytes32","internalType":"bytes32"}],"stateMutability":"view"},{"type":"function","name":"MAX_LOCK_PERIOD","inputs":[],"outputs":[{"name":"","type":"uint256","internalType":"uint256"}],"stateMutability":"view"},{"type":"function","name":"MODERATOR_ROLE","inputs":[],"outputs":[{"name":"","type":"bytes32","internalType":"bytes32"}],"stateMutability":"view"},{"type":"function","name":"RECHALLENGE_COOLDOWN","inputs":[],"outputs":[{"name":"","type":"uint256","internalType":"uint256"}],"stateMutability":"view"},{"type":"function","name":"RESOLVER_ROLE","inputs":[],"outputs":[{"name":"","type":"bytes32","internalType":"bytes32"}],"stateMutability":"view"},{"type":"function","name":"canWithdrawBond","inputs":[{"name":"contentId","type":"uint256","internalType":"uint256"}],"outputs":[{"name":"","type":"bool","internalType":"bool"}],"stateMutability":"view"},{"type":"function","name":"challenge","inputs":[{"name":"contentId","type":"uint256","internalType":"uint256"},{"name":"reason","type":"uint8","internalType":"enum ContentRegistry.ChallengeReason"},{"name":"evidence","type":"string","internalType":"string"}],"outputs":[],"stateMutability":"nonpayable"},{"type":"function","name":"contentChallenges","inputs":[{"name":"","type":"uint256","internalType":"uint256"},{"name":"","type":"uint256","internalType":"uint256"}],"outputs":[{"name":"challenger","type":"address","internalType":"address"},{"name":"bond","type":"uint256","internalType":"uint256"},{"name":"reason","type":"uint8","internalType":"enum ContentRegistry.ChallengeReason"},{"name":"evidence","type":"string","internalType":"string"},{"name":"createdAt","type":"uint256","internalType":"uint256"},{"name":"resolved","type":"bool","internalType":"bool"}],"stateMutability":"view"},{"type":"function","name":"contents","inputs":[{"name":"","type":"uint256","internalType":"uint256"}],"outputs":[{"name":"author","type":"address","internalType":"address"},{"name":"contentHash","type":"bytes32","internalType":"bytes32"},{"name":"uri","type":"string","internalType":"string"},{"name":"bond","type":"uint256","internalType":"uint256"},{"name":"publishedAt","type":"uint256","internalType":"uint256"},{"name":"lockUntil","type":"uint256","internalType":"uint256"},{"name":"status","type":"uint8","internalType":"enum ContentRegistry.ContentStatus"},{"name":"lastChallengedAt","type":"uint256","internalType":"uint256"}],"stateMutability":"view"},{"type":"function","name":"getChallenges","inputs":[{"name":"contentId","type":"uint256","internalType":"uint256"}],"outputs":[{"name":"","type":"tuple[]","internalType":"struct ContentRegistry.Challenge[]","components":[{"name":"challenger","type":"address","internalType":"address"},{"name":"bond","type":"uint256","internalType":"uint256"},{"name":"reason","type":"uint8","internalType":"enum ContentRegistry.ChallengeReason"},{"name":"evidence","type":"string","internalType":"string"},{"name":"createdAt","type":"uint256","internalType":"uint256"},{"name":"resolved","type":"bool","internalType":"bool"}]}],"stateMutability":"view"},{"type":"function","name":"getContent","inputs":[{"name":"contentId","type":"uint256","internalType":"uint256"}],"outputs":[{"name":"author","type":"address","internalType":"address"},{"name":"contentHash","type":"bytes32","internalType":"bytes32"},{"name":"uri","type":"string","internalType":"string"},{"name":"bond","type":"uint256","internalType":"uint256"},{"name":"publishedAt","type":"uint256","internalType":"uint256"},{"name":"lockUntil","type":"uint256","internalType":"uint256"},{"name":"status","type":"uint8","internalType":"enum ContentRegistry.ContentStatus"}],"stateMutability":"view"},{"type":"function","name":"getRoleAdmin","inputs":[{"name":"role","type":"bytes32","internalType":"bytes32"}],"outputs":[{"name":"","type":"bytes32","internalType":"bytes32"}],"stateMutability":"view"},{"type":"function","name":"grantRole","inputs":[{"name":"role","type":"bytes32","internalType":"bytes32"},{"name":"account","type":"address","internalType":"address"}],"outputs":[],"stateMutability":"nonpayable"},{"type":"function","name":"hasRole","inputs":[{"name":"role","type":"bytes32","internalType":"bytes32"},{"name":"account","type":"address","internalType":"address"}],"outputs":[{"name":"","type":"bool","internalType":"bool"}],"stateMutability":"view"},{"type":"function","name":"hashToContentId","inputs":[{"name":"","type":"bytes32","internalType":"bytes32"}],"outputs":[{"name":"","type":"uint256","internalType":"uint256"}],"stateMutability":"view"},{"type":"function","name":"moderationGame","inputs":[],"outputs":[{"name":"","type":"address","internalType":"contract IModerationGame"}],"stateMutability":"view"},{"type":"function","name":"nextContentId","inputs":[],"outputs":[{"name":"","type":"uint256","internalType":"uint256"}],"stateMutability":"view"},{"type":"function","name":"publish","inputs":[{"name":"contentHash","type":"bytes32","internalType":"bytes32"},{"name":"uri","type":"string","internalType":"string"}],"outputs":[{"name":"contentId","type":"uint256","internalType":"uint256"}],"stateMutability":"nonpayable"},{"type":"function","name":"renounceRole","inputs":[{"name":"role","type":"bytes32","internalType":"bytes32"},{"name":"callerConfirmation","type":"address","internalType":"address"}],"outputs":[],"stateMutability":"nonpayable"},{"type":"function","name":"resolve","inputs":[{"name":"contentId","type":"uint256","internalType":"uint256"},{"name":"guilty","type":"bool","internalType":"bool"}],"outputs":[],"stateMutability":"nonpayable"},{"type":"function","name":"revokeRole","inputs":[{"name":"role","type":"bytes32","internalType":"bytes32"},{"name":"account","type":"address","internalType":"address"}],"outputs":[],"stateMutability":"nonpayable"},{"type":"function","name":"setContracts","inputs":[{"name":"_moderationGame","type":"address","internalType":"address"},{"name":"_stakingRewards","type":"address","internalType":"address"},{"name":"_treasury","type":"address","internalType":"address"}],"outputs":[],"stateMutability":"nonpayable"},{"type":"function","name":"stakingRewards","inputs":[],"outputs":[{"name":"","type":"address","internalType":"contract IStakingRewards"}],"stateMutability":"view"},{"type":"function","name":"stakingVault","inputs":[],"outputs":[{"name":"","type":"address","internalType":"contract IStakingVault"}],"stateMutability":"view"},{"type":"function","name":"supportsInterface","inputs":[{"name":"interfaceId","type":"bytes4","internalType":"bytes4"}],"outputs":[{"name":"","type":"bool","internalType":"bool"}],"stateMutability":"view"},{"type":"function","name":"treasury","inputs":[],"outputs":[{"name":"","type":"address","internalType":"address"}],"stateMutability":"view"},{"type":"function","name":"withdrawBond","inputs":[{"name":"contentId","type":"uint256","internalType":"uint256"}],"outputs":[],"stateMutability":"nonpayable"},{"type":"event","name":"BondWithdrawn","inputs":[{"name":"contentId","type":"uint256","indexed":true,"internalType":"uint256"},{"name":"author","type":"address","indexed":true,"internalType":"address"},{"name":"amount","type":"uint256","indexed":false,"internalType":"uint256"}],"anonymous":false},{"type":"event","name":"ChallengeResolved","inputs":[{"name":"contentId","type":"uint256","indexed":true,"internalType":"uint256"},{"name":"guilty","type":"bool","indexed":false,"internalType":"bool"},{"name":"slashedAmount","type":"uint256","indexed":false,"internalType":"uint256"}],"anonymous":false},{"type":"event","name":"ContentChallenged","inputs":[{"name":"contentId","type":"uint256","indexed":true,"internalType":"uint256"},{"name":"challenger","type":"address","indexed":true,"internalType":"address"},{"name":"reason","type":"uint8","indexed":false,"internalType":"enum ContentRegistry.ChallengeReason"}],"anonymous":false},{"type":"event","name":"ContentPublished","inputs":[{"name":"contentId","type":"uint256","indexed":true,"internalType":"uint256"},{"name":"author","type":"address","indexed":true,"internalType":"address"},{"name":"contentHash","type":"bytes32","indexed":false,"internalType":"bytes32"}],"anonymous":false},{"type":"event","name":"RoleAdminChanged","inputs":[{"name":"role","type":"bytes32","indexed":true,"internalType":"bytes32"},{"name":"previousAdminRole","type":"bytes32","indexed":true,"internalType":"bytes32"},{"name":"newAdminRole","type":"bytes32","indexed":true,"internalType":"bytes32"}],"anonymous":false},{"type":"event","name":"RoleGranted","inputs":[{"name":"role","type":"bytes32","indexed":true,"internalType":"bytes32"},{"name":"account","type":"address","indexed":true,"internalType":"address"},{"name":"sender","type":"address","indexed":true,"internalType":"address"}],"anonymous":false},{"type":"event","name":"RoleRevoked","inputs":[{"name":"role","type":"bytes32","indexed":true,"internalType":"bytes32"},{"name":"account","type":"address","indexed":true,"internalType":"address"},{"name":"sender","type":"address","indexed":true,"internalType":"address"}],"anonymous":false},{"type":"error","name":"AccessControlBadConfirmation","inputs":[]},{"type":"error","name":"AccessControlUnauthorizedAccount","inputs":[{"name":"account","type":"address","internalType":"address"},{"name":"neededRole","type":"bytes32","internalType":"bytes32"}]},{"type":"error","name":"ReentrancyGuardReentrantCall","inputs":[]}],"bytecode":{"object":"0x60a060405234801561000f575f5ffd5b506040516140c23803806140c283398181016040528101906100319190610242565b600180819055508073ffffffffffffffffffffffffffffffffffffffff1660808173ffffffffffffffffffffffffffffffffffffffff168152505061007e5f5f1b3361008560201b60201c565b505061026d565b5f610096838361017a60201b60201c565b6101705760015f5f8581526020019081526020015f205f015f8473ffffffffffffffffffffffffffffffffffffffff1673ffffffffffffffffffffffffffffffffffffffff1681526020019081526020015f205f6101000a81548160ff02191690831515021790555061010d6101dd60201b60201c565b73ffffffffffffffffffffffffffffffffffffffff168273ffffffffffffffffffffffffffffffffffffffff16847f2f8788117e7eff1d82e926ec794901d17c78024a50270940304540a733656f0d60405160405180910390a460019050610174565b5f90505b92915050565b5f5f5f8481526020019081526020015f205f015f8373ffffffffffffffffffffffffffffffffffffffff1673ffffffffffffffffffffffffffffffffffffffff1681526020019081526020015f205f9054906101000a900460ff16905092915050565b5f33905090565b5f5ffd5b5f73ffffffffffffffffffffffffffffffffffffffff82169050919050565b5f610211826101e8565b9050919050565b61022181610207565b811461022b575f5ffd5b50565b5f8151905061023c81610218565b92915050565b5f60208284031215610257576102566101e4565b5b5f6102648482850161022e565b91505092915050565b608051613e0c6102b65f395f818161086901528181610b57015281816110c6015281816112b5015281816114f8015281816116760152818161212901526123000152613e0c5ff3fe608060405234801561000f575f5ffd5b50600436106101d8575f3560e01c8063946c034411610102578063c14fd00d116100a0578063d62aad291161006f578063d62aad291461058e578063dccf5fdf146105ac578063e28d0a64146105dc578063f5540162146105fa576101d8565b8063c14fd00d146104f1578063c3daab9614610526578063c98e984e14610542578063d547741f14610572576101d8565b8063ae6c0b03116100dc578063ae6c0b0314610450578063b3066d4914610480578063b5ecf9121461049c578063b90b85ee146104d3576101d8565b8063946c0344146103e45780639790ce7114610414578063a217fddf14610432576101d8565b806336568abe1161017a57806364b87a701161014957806364b87a701461035a57806378fab26014610378578063797669c91461039657806391d14854146103b4576101d8565b806336568abe146102e85780634017d46f1461030457806352a34b051461032057806361d027b31461033c576101d8565b8063248a9ca3116101b6578063248a9ca31461026057806324e7964a1461029057806327a35b00146102ae5780632f2ff15d146102cc576101d8565b806301ffc9a7146101dc5780630a248d7f1461020c5780630b7ad54c1461022a575b5f5ffd5b6101f660048036038101906101f19190612933565b610618565b6040516102039190612978565b60405180910390f35b610214610691565b60405161022191906129a9565b60405180910390f35b610244600480360381019061023f91906129ec565b610697565b6040516102579796959493929190612b51565b60405180910390f35b61027a60048036038101906102759190612bef565b61084b565b6040516102879190612c1a565b60405180910390f35b610298610867565b6040516102a59190612c8e565b60405180910390f35b6102b661088b565b6040516102c39190612cc7565b60405180910390f35b6102e660048036038101906102e19190612d0a565b6108b0565b005b61030260048036038101906102fd9190612d0a565b6108d2565b005b61031e60048036038101906103199190612dcc565b61094d565b005b61033a60048036038101906103359190612e67565b610f11565b005b610344611836565b6040516103519190612ea5565b60405180910390f35b61036261185b565b60405161036f9190612ede565b60405180910390f35b610380611880565b60405161038d9190612c1a565b60405180910390f35b61039e6118a4565b6040516103ab9190612c1a565b60405180910390f35b6103ce60048036038101906103c99190612d0a565b6118c8565b6040516103db9190612978565b60405180910390f35b6103fe60048036038101906103f991906129ec565b61192b565b60405161040b91906130f3565b60405180910390f35b61041c611ae4565b60405161042991906129a9565b60405180910390f35b61043a611af0565b6040516104479190612c1a565b60405180910390f35b61046a600480360381019061046591906129ec565b611af6565b6040516104779190612978565b60405180910390f35b61049a60048036038101906104959190613113565b611cb8565b005b6104b660048036038101906104b191906129ec565b611d8a565b6040516104ca989796959493929190613163565b60405180910390f35b6104db611e7f565b6040516104e891906129a9565b60405180910390f35b61050b600480360381019061050691906131e6565b611e86565b60405161051d96959493929190613233565b60405180910390f35b610540600480360381019061053b91906129ec565b611f95565b005b61055c60048036038101906105579190613299565b61221c565b60405161056991906129a9565b60405180910390f35b61058c60048036038101906105879190612d0a565b61258f565b005b6105966125b1565b6040516105a391906129a9565b60405180910390f35b6105c660048036038101906105c19190612bef565b6125b8565b6040516105d391906129a9565b60405180910390f35b6105e46125cd565b6040516105f191906129a9565b60405180910390f35b6106026125d9565b60405161060f91906129a9565b60405180910390f35b5f7f7965db0b000000000000000000000000000000000000000000000000000000007bffffffffffffffffffffffffffffffffffffffffffffffffffffffff1916827bffffffffffffffffffffffffffffffffffffffffffffffffffffffff1916148061068a5750610689826125e0565b5b9050919050565b60055481565b5f5f60605f5f5f5f5f60065f8a81526020019081526020015f20604051806101000160405290815f82015f9054906101000a900473ffffffffffffffffffffffffffffffffffffffff1673ffffffffffffffffffffffffffffffffffffffff1673ffffffffffffffffffffffffffffffffffffffff1681526020016001820154815260200160028201805461072b90613323565b80601f016020809104026020016040519081016040528092919081815260200182805461075790613323565b80156107a25780601f10610779576101008083540402835291602001916107a2565b820191905f5260205f20905b81548152906001019060200180831161078557829003601f168201915b50505050508152602001600382015481526020016004820154815260200160058201548152602001600682015f9054906101000a900460ff1660038111156107ed576107ec612ade565b5b60038111156107ff576107fe612ade565b5b81526020016007820154815250509050805f015181602001518260400151836060015184608001518560a001518660c00151975097509750975097509750975050919395979092949650565b5f5f5f8381526020019081526020015f20600101549050919050565b7f000000000000000000000000000000000000000000000000000000000000000081565b60025f9054906101000a900473ffffffffffffffffffffffffffffffffffffffff1681565b6108b98261084b565b6108c281612649565b6108cc838361265d565b50505050565b6108da612746565b73ffffffffffffffffffffffffffffffffffffffff168173ffffffffffffffffffffffffffffffffffffffff161461093e576040517f6697b23200000000000000000000000000000000000000000000000000000000815260040160405180910390fd5b610948828261274d565b505050565b610955612836565b5f60065f8681526020019081526020015f2090505f73ffffffffffffffffffffffffffffffffffffffff16815f015f9054906101000a900473ffffffffffffffffffffffffffffffffffffffff1673ffffffffffffffffffffffffffffffffffffffff16036109f9576040517f08c379a00000000000000000000000000000000000000000000000000000000081526004016109f09061339d565b60405180910390fd5b5f6003811115610a0c57610a0b612ade565b5b816006015f9054906101000a900460ff166003811115610a2f57610a2e612ade565b5b14610a6f576040517f08c379a0000000000000000000000000000000000000000000000000000000008152600401610a6690613405565b60405180910390fd5b62093a808160040154610a829190613450565b421115610ac4576040517f08c379a0000000000000000000000000000000000000000000000000000000008152600401610abb906134cd565b60405180910390fd5b5f81600701541480610ae85750620697808160070154610ae49190613450565b4210155b610b27576040517f08c379a0000000000000000000000000000000000000000000000000000000008152600401610b1e90613535565b60405180910390fd5b5f853342604051602001610b3d939291906135b8565b6040516020818303038152906040528051906020012090507f000000000000000000000000000000000000000000000000000000000000000073ffffffffffffffffffffffffffffffffffffffff166371105b4633836702c68af0bb1400006040518463ffffffff1660e01b8152600401610bba939291906135f4565b5f604051808303815f87803b158015610bd1575f5ffd5b505af1158015610be3573d5f5f3e3d5ffd5b5050505060075f8781526020019081526020015f206040518060c001604052803373ffffffffffffffffffffffffffffffffffffffff1681526020016702c68af0bb1400008152602001876004811115610c4057610c3f612ade565b5b815260200186868080601f0160208091040260200160405190810160405280939291908181526020018383808284375f81840152601f19601f8201169050808301925050505050505081526020014281526020015f1515815250908060018154018082558091505060019003905f5260205f2090600602015f909190919091505f820151815f015f6101000a81548173ffffffffffffffffffffffffffffffffffffffff021916908373ffffffffffffffffffffffffffffffffffffffff160217905550602082015181600101556040820151816002015f6101000a81548160ff02191690836004811115610d3857610d37612ade565b5b02179055506060820151816003019081610d5291906137ed565b506080820151816004015560a0820151816005015f6101000a81548160ff02191690831515021790555050506001826006015f6101000a81548160ff02191690836003811115610da557610da4612ade565b5b02179055506212750042610db99190613450565b82600501819055504282600701819055503373ffffffffffffffffffffffffffffffffffffffff16867f125fdea376cb84204abc722373d62a355f36d34a01534b270e57915416500a8587604051610e1191906138bc565b60405180910390a35f73ffffffffffffffffffffffffffffffffffffffff1660025f9054906101000a900473ffffffffffffffffffffffffffffffffffffffff1673ffffffffffffffffffffffffffffffffffffffff1614610f015760025f9054906101000a900473ffffffffffffffffffffffffffffffffffffffff1673ffffffffffffffffffffffffffffffffffffffff1663f6de777987336702c68af0bb1400006040518463ffffffff1660e01b8152600401610ed3939291906138d5565b5f604051808303815f87803b158015610eea575f5ffd5b505af1158015610efc573d5f5f3e3d5ffd5b505050505b5050610f0b61287c565b50505050565b7f92a19c77d2ea87c7f81d50c74403cb2f401780f3ad919571121efe2bdb427eb1610f3b81612649565b610f43612836565b5f60065f8581526020019081526020015f20905060016003811115610f6b57610f6a612ade565b5b816006015f9054906101000a900460ff166003811115610f8e57610f8d612ade565b5b1480610fce575060026003811115610fa957610fa8612ade565b5b816006015f9054906101000a900460ff166003811115610fcc57610fcb612ade565b5b145b61100d576040517f08c379a000000000000000000000000000000000000000000000000000000000815260040161100490613954565b60405180910390fd5b6003816006015f6101000a81548160ff0219169083600381111561103457611033612ade565b5b02179055505f60075f8681526020019081526020015f2090505f818054905011611093576040517f08c379a000000000000000000000000000000000000000000000000000000000815260040161108a906139bc565b60405180910390fd5b5f856040516020016110a591906139da565b60405160208183030381529060405280519060200120905084156114f6575f7f000000000000000000000000000000000000000000000000000000000000000073ffffffffffffffffffffffffffffffffffffffff166359de28a1855f015f9054906101000a900473ffffffffffffffffffffffffffffffffffffffff16848760030154306040518563ffffffff1660e01b815260040161114994939291906139f4565b6020604051808303815f875af1158015611165573d5f5f3e3d5ffd5b505050506040513d601f19601f820116820180604052508101906111899190613a4b565b90505f606460288361119b9190613a76565b6111a59190613ae4565b90505f6064601e846111b79190613a76565b6111c19190613ae4565b90505f60646014856111d39190613a76565b6111dd9190613ae4565b90505f5f90505b86805490508110156113c85786818154811061120357611202613b14565b5b905f5260205f2090600602016005015f9054906101000a900460ff166113bb575f8b88838154811061123857611237613b14565b5b905f5260205f2090600602015f015f9054906101000a900473ffffffffffffffffffffffffffffffffffffffff1689848154811061127957611278613b14565b5b905f5260205f2090600602016004015460405160200161129b939291906135b8565b6040516020818303038152906040528051906020012090507f000000000000000000000000000000000000000000000000000000000000000073ffffffffffffffffffffffffffffffffffffffff16636f4fe2d589848154811061130257611301613b14565b5b905f5260205f2090600602015f015f9054906101000a900473ffffffffffffffffffffffffffffffffffffffff16836040518363ffffffff1660e01b815260040161134e929190613b41565b5f604051808303815f87803b158015611365575f5ffd5b505af1158015611377573d5f5f3e3d5ffd5b5050505060018883815481106113905761138f613b14565b5b905f5260205f2090600602016005015f6101000a81548160ff021916908315150217905550506113c8565b80806001019150506111e4565b505f73ffffffffffffffffffffffffffffffffffffffff1660035f9054906101000a900473ffffffffffffffffffffffffffffffffffffffff1673ffffffffffffffffffffffffffffffffffffffff161415801561142557505f81115b156114b25760035f9054906101000a900473ffffffffffffffffffffffffffffffffffffffff1673ffffffffffffffffffffffffffffffffffffffff1663744f4cf6826040518263ffffffff1660e01b815260040161148491906129a9565b5f604051808303815f87803b15801561149b575f5ffd5b505af11580156114ad573d5f5f3e3d5ffd5b505050505b897f37b4c820a08cf4a6b36e86c12f351c8de017e389247b2c8c5151cde2f37f85ee6001866040516114e5929190613b68565b60405180910390a250505050611826565b7f000000000000000000000000000000000000000000000000000000000000000073ffffffffffffffffffffffffffffffffffffffff16636f4fe2d5845f015f9054906101000a900473ffffffffffffffffffffffffffffffffffffffff16836040518363ffffffff1660e01b8152600401611573929190613b41565b5f604051808303815f87803b15801561158a575f5ffd5b505af115801561159c573d5f5f3e3d5ffd5b505050505f5f90505b82805490508110156117e1578281815481106115c4576115c3613b14565b5b905f5260205f2090600602016005015f9054906101000a900460ff166117d4575f878483815481106115f9576115f8613b14565b5b905f5260205f2090600602015f015f9054906101000a900473ffffffffffffffffffffffffffffffffffffffff1685848154811061163a57611639613b14565b5b905f5260205f2090600602016004015460405160200161165c939291906135b8565b6040516020818303038152906040528051906020012090507f000000000000000000000000000000000000000000000000000000000000000073ffffffffffffffffffffffffffffffffffffffff166359de28a18584815481106116c3576116c2613b14565b5b905f5260205f2090600602015f015f9054906101000a900473ffffffffffffffffffffffffffffffffffffffff168387868154811061170557611704613b14565b5b905f5260205f20906006020160010154895f015f9054906101000a900473ffffffffffffffffffffffffffffffffffffffff166040518563ffffffff1660e01b815260040161175794939291906139f4565b6020604051808303815f875af1158015611773573d5f5f3e3d5ffd5b505050506040513d601f19601f820116820180604052508101906117979190613a4b565b5060018483815481106117ad576117ac613b14565b5b905f5260205f2090600602016005015f6101000a81548160ff021916908315150217905550505b80806001019150506115a5565b50428360050181905550857f37b4c820a08cf4a6b36e86c12f351c8de017e389247b2c8c5151cde2f37f85ee5f5f60405161181d929190613bc8565b60405180910390a25b50505061183161287c565b505050565b60045f9054906101000a900473ffffffffffffffffffffffffffffffffffffffff1681565b60035f9054906101000a900473ffffffffffffffffffffffffffffffffffffffff1681565b7f92a19c77d2ea87c7f81d50c74403cb2f401780f3ad919571121efe2bdb427eb181565b7f71f3d55856e4058ed06ee057d79ada615f65cdf5f9ee88181b914225088f834f81565b5f5f5f8481526020019081526020015f205f015f8373ffffffffffffffffffffffffffffffffffffffff1673ffffffffffffffffffffffffffffffffffffffff1681526020019081526020015f205f9054906101000a900460ff16905092915050565b606060075f8381526020019081526020015f20805480602002602001604051908101604052809291908181526020015f905b82821015611ad9578382905f5260205f2090600602016040518060c00160405290815f82015f9054906101000a900473ffffffffffffffffffffffffffffffffffffffff1673ffffffffffffffffffffffffffffffffffffffff1673ffffffffffffffffffffffffffffffffffffffff16815260200160018201548152602001600282015f9054906101000a900460ff166004811115611a00576119ff612ade565b5b6004811115611a1257611a11612ade565b5b8152602001600382018054611a2690613323565b80601f0160208091040260200160405190810160405280929190818152602001828054611a5290613323565b8015611a9d5780601f10611a7457610100808354040283529160200191611a9d565b820191905f5260205f20905b815481529060010190602001808311611a8057829003601f168201915b5050505050815260200160048201548152602001600582015f9054906101000a900460ff1615151515815250508152602001906001019061195d565b505050509050919050565b6702c68af0bb14000081565b5f5f1b81565b5f5f60065f8481526020019081526020015f20604051806101000160405290815f82015f9054906101000a900473ffffffffffffffffffffffffffffffffffffffff1673ffffffffffffffffffffffffffffffffffffffff1673ffffffffffffffffffffffffffffffffffffffff16815260200160018201548152602001600282018054611b8390613323565b80601f0160208091040260200160405190810160405280929190818152602001828054611baf90613323565b8015611bfa5780601f10611bd157610100808354040283529160200191611bfa565b820191905f5260205f20905b815481529060010190602001808311611bdd57829003601f168201915b50505050508152602001600382015481526020016004820154815260200160058201548152602001600682015f9054906101000a900460ff166003811115611c4557611c44612ade565b5b6003811115611c5757611c56612ade565b5b815260200160078201548152505090505f6003811115611c7a57611c79612ade565b5b8160c001516003811115611c9157611c90612ade565b5b148015611ca157508060a0015142115b8015611cb057505f8160600151115b915050919050565b5f5f1b611cc481612649565b8360025f6101000a81548173ffffffffffffffffffffffffffffffffffffffff021916908373ffffffffffffffffffffffffffffffffffffffff1602179055508260035f6101000a81548173ffffffffffffffffffffffffffffffffffffffff021916908373ffffffffffffffffffffffffffffffffffffffff1602179055508160045f6101000a81548173ffffffffffffffffffffffffffffffffffffffff021916908373ffffffffffffffffffffffffffffffffffffffff16021790555050505050565b6006602052805f5260405f205f91509050805f015f9054906101000a900473ffffffffffffffffffffffffffffffffffffffff1690806001015490806002018054611dd490613323565b80601f0160208091040260200160405190810160405280929190818152602001828054611e0090613323565b8015611e4b5780601f10611e2257610100808354040283529160200191611e4b565b820191905f5260205f20905b815481529060010190602001808311611e2e57829003601f168201915b505050505090806003015490806004015490806005015490806006015f9054906101000a900460ff16908060070154905088565b6206978081565b6007602052815f5260405f208181548110611e9f575f80fd5b905f5260205f2090600602015f9150915050805f015f9054906101000a900473ffffffffffffffffffffffffffffffffffffffff1690806001015490806002015f9054906101000a900460ff1690806003018054611efc90613323565b80601f0160208091040260200160405190810160405280929190818152602001828054611f2890613323565b8015611f735780601f10611f4a57610100808354040283529160200191611f73565b820191905f5260205f20905b815481529060010190602001808311611f5657829003601f168201915b505050505090806004015490806005015f9054906101000a900460ff16905086565b611f9d612836565b5f60065f8381526020019081526020015f2090503373ffffffffffffffffffffffffffffffffffffffff16815f015f9054906101000a900473ffffffffffffffffffffffffffffffffffffffff1673ffffffffffffffffffffffffffffffffffffffff1614612041576040517f08c379a000000000000000000000000000000000000000000000000000000000815260040161203890613c39565b60405180910390fd5b5f600381111561205457612053612ade565b5b816006015f9054906101000a900460ff16600381111561207757612076612ade565b5b146120b7576040517f08c379a00000000000000000000000000000000000000000000000000000000081526004016120ae90613954565b60405180910390fd5b806005015442116120fd576040517f08c379a00000000000000000000000000000000000000000000000000000000081526004016120f490613ca1565b60405180910390fd5b5f8260405160200161210f91906139da565b6040516020818303038152906040528051906020012090507f000000000000000000000000000000000000000000000000000000000000000073ffffffffffffffffffffffffffffffffffffffff16636f4fe2d533836040518363ffffffff1660e01b8152600401612182929190613b41565b5f604051808303815f87803b158015612199575f5ffd5b505af11580156121ab573d5f5f3e3d5ffd5b505050505f82600301819055503373ffffffffffffffffffffffffffffffffffffffff16837f379aa75a3ce753638a787f85ad8655bba22deba4d9746a0f907b88ab44d18df967016345785d8a000060405161220791906129a9565b60405180910390a3505061221961287c565b50565b5f612225612836565b5f5f1b8403612269576040517f08c379a000000000000000000000000000000000000000000000000000000000815260040161226090613d09565b60405180910390fd5b5f60085f8681526020019081526020015f2054146122bc576040517f08c379a00000000000000000000000000000000000000000000000000000000081526004016122b390613d71565b60405180910390fd5b60055f8154809291906122ce90613d8f565b9190505590505f816040516020016122e691906139da565b6040516020818303038152906040528051906020012090507f000000000000000000000000000000000000000000000000000000000000000073ffffffffffffffffffffffffffffffffffffffff166371105b46338367016345785d8a00006040518463ffffffff1660e01b8152600401612363939291906135f4565b5f604051808303815f87803b15801561237a575f5ffd5b505af115801561238c573d5f5f3e3d5ffd5b505050506040518061010001604052803373ffffffffffffffffffffffffffffffffffffffff16815260200186815260200185858080601f0160208091040260200160405190810160405280939291908181526020018383808284375f81840152601f19601f82011690508083019250505050505050815260200167016345785d8a0000815260200142815260200162093a804261242a9190613450565b81526020015f600381111561244257612441612ade565b5b81526020015f81525060065f8481526020019081526020015f205f820151815f015f6101000a81548173ffffffffffffffffffffffffffffffffffffffff021916908373ffffffffffffffffffffffffffffffffffffffff1602179055506020820151816001015560408201518160020190816124bf91906137ed565b50606082015181600301556080820151816004015560a0820151816005015560c0820151816006015f6101000a81548160ff0219169083600381111561250857612507612ade565b5b021790555060e082015181600701559050508160085f8781526020019081526020015f20819055503373ffffffffffffffffffffffffffffffffffffffff16827ff91c3e0bfe02fb808616a84d1034e8072a119117a229fabe02f2ed6f008f47d3876040516125779190612c1a565b60405180910390a35061258861287c565b9392505050565b6125988261084b565b6125a181612649565b6125ab838361274d565b50505050565b62093a8081565b6008602052805f5260405f205f915090505481565b67016345785d8a000081565b6212750081565b5f7f01ffc9a7000000000000000000000000000000000000000000000000000000007bffffffffffffffffffffffffffffffffffffffffffffffffffffffff1916827bffffffffffffffffffffffffffffffffffffffffffffffffffffffff1916149050919050565b61265a81612655612746565b612885565b50565b5f61266883836118c8565b61273c5760015f5f8581526020019081526020015f205f015f8473ffffffffffffffffffffffffffffffffffffffff1673ffffffffffffffffffffffffffffffffffffffff1681526020019081526020015f205f6101000a81548160ff0219169083151502179055506126d9612746565b73ffffffffffffffffffffffffffffffffffffffff168273ffffffffffffffffffffffffffffffffffffffff16847f2f8788117e7eff1d82e926ec794901d17c78024a50270940304540a733656f0d60405160405180910390a460019050612740565b5f90505b92915050565b5f33905090565b5f61275883836118c8565b1561282c575f5f5f8581526020019081526020015f205f015f8473ffffffffffffffffffffffffffffffffffffffff1673ffffffffffffffffffffffffffffffffffffffff1681526020019081526020015f205f6101000a81548160ff0219169083151502179055506127c9612746565b73ffffffffffffffffffffffffffffffffffffffff168273ffffffffffffffffffffffffffffffffffffffff16847ff6391f5c32d9c69d2a47ea670b442974b53935d1edc7fd64eb21e047a839171b60405160405180910390a460019050612830565b5f90505b92915050565b600260015403612872576040517f3ee5aeb500000000000000000000000000000000000000000000000000000000815260040160405180910390fd5b6002600181905550565b60018081905550565b61288f82826118c8565b6128d25780826040517fe2517d3f0000000000000000000000000000000000000000000000000000000081526004016128c9929190613b41565b60405180910390fd5b5050565b5f5ffd5b5f5ffd5b5f7fffffffff0000000000000000000000000000000000000000000000000000000082169050919050565b612912816128de565b811461291c575f5ffd5b50565b5f8135905061292d81612909565b92915050565b5f60208284031215612948576129476128d6565b5b5f6129558482850161291f565b91505092915050565b5f8115159050919050565b6129728161295e565b82525050565b5f60208201905061298b5f830184612969565b92915050565b5f819050919050565b6129a381612991565b82525050565b5f6020820190506129bc5f83018461299a565b92915050565b6129cb81612991565b81146129d5575f5ffd5b50565b5f813590506129e6816129c2565b92915050565b5f60208284031215612a0157612a006128d6565b5b5f612a0e848285016129d8565b91505092915050565b5f73ffffffffffffffffffffffffffffffffffffffff82169050919050565b5f612a4082612a17565b9050919050565b612a5081612a36565b82525050565b5f819050919050565b612a6881612a56565b82525050565b5f81519050919050565b5f82825260208201905092915050565b8281835e5f83830152505050565b5f601f19601f8301169050919050565b5f612ab082612a6e565b612aba8185612a78565b9350612aca818560208601612a88565b612ad381612a96565b840191505092915050565b7f4e487b71000000000000000000000000000000000000000000000000000000005f52602160045260245ffd5b60048110612b1c57612b1b612ade565b5b50565b5f819050612b2c82612b0b565b919050565b5f612b3b82612b1f565b9050919050565b612b4b81612b31565b82525050565b5f60e082019050612b645f83018a612a47565b612b716020830189612a5f565b8181036040830152612b838188612aa6565b9050612b92606083018761299a565b612b9f608083018661299a565b612bac60a083018561299a565b612bb960c0830184612b42565b98975050505050505050565b612bce81612a56565b8114612bd8575f5ffd5b50565b5f81359050612be981612bc5565b92915050565b5f60208284031215612c0457612c036128d6565b5b5f612c1184828501612bdb565b91505092915050565b5f602082019050612c2d5f830184612a5f565b92915050565b5f819050919050565b5f612c56612c51612c4c84612a17565b612c33565b612a17565b9050919050565b5f612c6782612c3c565b9050919050565b5f612c7882612c5d565b9050919050565b612c8881612c6e565b82525050565b5f602082019050612ca15f830184612c7f565b92915050565b5f612cb182612c5d565b9050919050565b612cc181612ca7565b82525050565b5f602082019050612cda5f830184612cb8565b92915050565b612ce981612a36565b8114612cf3575f5ffd5b50565b5f81359050612d0481612ce0565b92915050565b5f5f60408385031215612d2057612d1f6128d6565b5b5f612d2d85828601612bdb565b9250506020612d3e85828601612cf6565b9150509250929050565b60058110612d54575f5ffd5b50565b5f81359050612d6581612d48565b92915050565b5f5ffd5b5f5ffd5b5f5ffd5b5f5f83601f840112612d8c57612d8b612d6b565b5b8235905067ffffffffffffffff811115612da957612da8612d6f565b5b602083019150836001820283011115612dc557612dc4612d73565b5b9250929050565b5f5f5f5f60608587031215612de457612de36128d6565b5b5f612df1878288016129d8565b9450506020612e0287828801612d57565b935050604085013567ffffffffffffffff811115612e2357612e226128da565b5b612e2f87828801612d77565b925092505092959194509250565b612e468161295e565b8114612e50575f5ffd5b50565b5f81359050612e6181612e3d565b92915050565b5f5f60408385031215612e7d57612e7c6128d6565b5b5f612e8a858286016129d8565b9250506020612e9b85828601612e53565b9150509250929050565b5f602082019050612eb85f830184612a47565b92915050565b5f612ec882612c5d565b9050919050565b612ed881612ebe565b82525050565b5f602082019050612ef15f830184612ecf565b92915050565b5f81519050919050565b5f82825260208201905092915050565b5f819050602082019050919050565b612f2981612a36565b82525050565b612f3881612991565b82525050565b60058110612f4f57612f4e612ade565b5b50565b5f819050612f5f82612f3e565b919050565b5f612f6e82612f52565b9050919050565b612f7e81612f64565b82525050565b5f82825260208201905092915050565b5f612f9e82612a6e565b612fa88185612f84565b9350612fb8818560208601612a88565b612fc181612a96565b840191505092915050565b612fd58161295e565b82525050565b5f60c083015f830151612ff05f860182612f20565b5060208301516130036020860182612f2f565b5060408301516130166040860182612f75565b506060830151848203606086015261302e8282612f94565b91505060808301516130436080860182612f2f565b5060a083015161305660a0860182612fcc565b508091505092915050565b5f61306c8383612fdb565b905092915050565b5f602082019050919050565b5f61308a82612ef7565b6130948185612f01565b9350836020820285016130a685612f11565b805f5b858110156130e157848403895281516130c28582613061565b94506130cd83613074565b925060208a019950506001810190506130a9565b50829750879550505050505092915050565b5f6020820190508181035f83015261310b8184613080565b905092915050565b5f5f5f6060848603121561312a576131296128d6565b5b5f61313786828701612cf6565b935050602061314886828701612cf6565b925050604061315986828701612cf6565b9150509250925092565b5f610100820190506131775f83018b612a47565b613184602083018a612a5f565b81810360408301526131968189612aa6565b90506131a5606083018861299a565b6131b2608083018761299a565b6131bf60a083018661299a565b6131cc60c0830185612b42565b6131d960e083018461299a565b9998505050505050505050565b5f5f604083850312156131fc576131fb6128d6565b5b5f613209858286016129d8565b925050602061321a858286016129d8565b9150509250929050565b61322d81612f64565b82525050565b5f60c0820190506132465f830189612a47565b613253602083018861299a565b6132606040830187613224565b81810360608301526132728186612aa6565b9050613281608083018561299a565b61328e60a0830184612969565b979650505050505050565b5f5f5f604084860312156132b0576132af6128d6565b5b5f6132bd86828701612bdb565b935050602084013567ffffffffffffffff8111156132de576132dd6128da565b5b6132ea86828701612d77565b92509250509250925092565b7f4e487b71000000000000000000000000000000000000000000000000000000005f52602260045260245ffd5b5f600282049050600182168061333a57607f821691505b60208210810361334d5761334c6132f6565b5b50919050565b7f436f6e74656e7420646f6573206e6f74206578697374000000000000000000005f82015250565b5f613387601683612a78565b915061339282613353565b602082019050919050565b5f6020820190508181035f8301526133b48161337b565b9050919050565b7f436f6e74656e74206e6f74206368616c6c656e676561626c65000000000000005f82015250565b5f6133ef601983612a78565b91506133fa826133bb565b602082019050919050565b5f6020820190508181035f83015261341c816133e3565b9050919050565b7f4e487b71000000000000000000000000000000000000000000000000000000005f52601160045260245ffd5b5f61345a82612991565b915061346583612991565b925082820190508082111561347d5761347c613423565b5b92915050565b7f4368616c6c656e67652077696e646f77206578706972656400000000000000005f82015250565b5f6134b7601883612a78565b91506134c282613483565b602082019050919050565b5f6020820190508181035f8301526134e4816134ab565b9050919050565b7f52656368616c6c656e676520636f6f6c646f776e2061637469766500000000005f82015250565b5f61351f601b83612a78565b915061352a826134eb565b602082019050919050565b5f6020820190508181035f83015261354c81613513565b9050919050565b5f819050919050565b61356d61356882612991565b613553565b82525050565b5f8160601b9050919050565b5f61358982613573565b9050919050565b5f61359a8261357f565b9050919050565b6135b26135ad82612a36565b613590565b82525050565b5f6135c3828661355c565b6020820191506135d382856135a1565b6014820191506135e3828461355c565b602082019150819050949350505050565b5f6060820190506136075f830186612a47565b6136146020830185612a5f565b613621604083018461299a565b949350505050565b7f4e487b71000000000000000000000000000000000000000000000000000000005f52604160045260245ffd5b5f819050815f5260205f209050919050565b5f6020601f8301049050919050565b5f82821b905092915050565b5f600883026136b27fffffffffffffffffffffffffffffffffffffffffffffffffffffffffffffffff82613677565b6136bc8683613677565b95508019841693508086168417925050509392505050565b5f6136ee6136e96136e484612991565b612c33565b612991565b9050919050565b5f819050919050565b613707836136d4565b61371b613713826136f5565b848454613683565b825550505050565b5f5f905090565b613732613723565b61373d8184846136fe565b505050565b5b81811015613760576137555f8261372a565b600181019050613743565b5050565b601f8211156137a55761377681613656565b61377f84613668565b8101602085101561378e578190505b6137a261379a85613668565b830182613742565b50505b505050565b5f82821c905092915050565b5f6137c55f19846008026137aa565b1980831691505092915050565b5f6137dd83836137b6565b9150826002028217905092915050565b6137f682612a6e565b67ffffffffffffffff81111561380f5761380e613629565b5b6138198254613323565b613824828285613764565b5f60209050601f831160018114613855575f8415613843578287015190505b61384d85826137d2565b8655506138b4565b601f19841661386386613656565b5f5b8281101561388a57848901518255600182019150602085019450602081019050613865565b868310156138a757848901516138a3601f8916826137b6565b8355505b6001600288020188555050505b505050505050565b5f6020820190506138cf5f830184613224565b92915050565b5f6060820190506138e85f83018661299a565b6138f56020830185612a47565b613902604083018461299a565b949350505050565b7f496e76616c6964207374617475730000000000000000000000000000000000005f82015250565b5f61393e600e83612a78565b91506139498261390a565b602082019050919050565b5f6020820190508181035f83015261396b81613932565b9050919050565b7f4e6f206368616c6c656e67657320666f756e64000000000000000000000000005f82015250565b5f6139a6601383612a78565b91506139b182613972565b602082019050919050565b5f6020820190508181035f8301526139d38161399a565b9050919050565b5f6139e5828461355c565b60208201915081905092915050565b5f608082019050613a075f830187612a47565b613a146020830186612a5f565b613a21604083018561299a565b613a2e6060830184612a47565b95945050505050565b5f81519050613a45816129c2565b92915050565b5f60208284031215613a6057613a5f6128d6565b5b5f613a6d84828501613a37565b91505092915050565b5f613a8082612991565b9150613a8b83612991565b9250828202613a9981612991565b91508282048414831517613ab057613aaf613423565b5b5092915050565b7f4e487b71000000000000000000000000000000000000000000000000000000005f52601260045260245ffd5b5f613aee82612991565b9150613af983612991565b925082613b0957613b08613ab7565b5b828204905092915050565b7f4e487b71000000000000000000000000000000000000000000000000000000005f52603260045260245ffd5b5f604082019050613b545f830185612a47565b613b616020830184612a5f565b9392505050565b5f604082019050613b7b5f830185612969565b613b88602083018461299a565b9392505050565b5f819050919050565b5f613bb2613bad613ba884613b8f565b612c33565b612991565b9050919050565b613bc281613b98565b82525050565b5f604082019050613bdb5f830185612969565b613be86020830184613bb9565b9392505050565b7f4e6f7420636f6e74656e7420617574686f7200000000000000000000000000005f82015250565b5f613c23601283612a78565b9150613c2e82613bef565b602082019050919050565b5f6020820190508181035f830152613c5081613c17565b9050919050565b7f5374696c6c20696e206368616c6c656e67652077696e646f77000000000000005f82015250565b5f613c8b601983612a78565b9150613c9682613c57565b602082019050919050565b5f6020820190508181035f830152613cb881613c7f565b9050919050565b7f496e76616c696420636f6e74656e7420686173680000000000000000000000005f82015250565b5f613cf3601483612a78565b9150613cfe82613cbf565b602082019050919050565b5f6020820190508181035f830152613d2081613ce7565b9050919050565b7f436f6e74656e7420616c726561647920657869737473000000000000000000005f82015250565b5f613d5b601683612a78565b9150613d6682613d27565b602082019050919050565b5f6020820190508181035f830152613d8881613d4f565b9050919050565b5f613d9982612991565b91507fffffffffffffffffffffffffffffffffffffffffffffffffffffffffffffffff8203613dcb57613dca613423565b5b60018201905091905056fea26469706673582212201cec4adc57150d0506bffa5fac80d475756b3d083d1641f10bae2229eb5b1e6364736f6c634300081e0033","linkReferences":{}},"methodIdentifiers":{"CHALLENGE_BOND()":"9790ce71","CHALLENGE_WINDOW()":"d62aad29","CONTENT_BOND()":"e28d0a64","DEFAULT_ADMIN_ROLE()":"a217fddf","MAX_LOCK_PERIOD()":"f5540162","MODERATOR_ROLE()":"797669c9","RECHALLENGE_COOLDOWN()":"b90b85ee","RESOLVER_ROLE()":"78fab260","canWithdrawBond(uint256)":"ae6c0b03","challenge(uint256,uint8,string)":"4017d46f","contentChallenges(uint256,uint256)":"c14fd00d","contents(uint256)":"b5ecf912","getChallenges(uint256)":"946c0344","getContent(uint256)":"0b7ad54c","getRoleAdmin(bytes32)":"248a9ca3","grantRole(bytes32,address)":"2f2ff15d","hasRole(bytes32,address)":"91d14854","hashToContentId(bytes32)":"dccf5fdf","moderationGame()":"27a35b00","nextContentId()":"0a248d7f","publish(bytes32,string)":"c98e984e","renounceRole(bytes32,address)":"36568abe","resolve(uint256,bool)":"52a34b05","revokeRole(bytes32,address)":"d547741f","setContracts(address,address,address)":"b3066d49","stakingRewards()":"64b87a70","stakingVault()":"24e7964a","supportsInterface(bytes4)":"01ffc9a7","treasury()":"61d027b3","withdrawBond(uint256)":"c3daab96"},"id":0}