{"abi":[{"type":"constructor","inputs":[],"stateMutability":"nonpayable"},{"type":"function","name":"CLOCK_MODE","inputs":[],"outputs":[{"name":"","type":"string","internalType":"string"}],"stateMutability":"view"},{"type":"function","name":"DOMAIN_SEPARATOR","inputs":[],"outputs":[{"name":"","type":"bytes32","internalType":"bytes32"}],"stateMutability":"view"},{"type":"function","name":"INITIAL_SUPPLY","inputs":[],"outputs":[{"name":"","type":"uint256","internalType":"uint256"}],"stateMutability":"view"},{"type":"function","name":"MAX_SUPPLY","inputs":[],"outputs":[{"name":"","type":"uint256","internalType":"uint256"}],"stateMutability":"view"},{"type":"function","name":"allowance","inputs":[{"name":"owner","type":"address","internalType":"address"},{"name":"spender","type":"address","internalType":"address"}],"outputs":[{"name":"","type":"uint256","internalType":"uint256"}],"stateMutability":"view"},{"type":"function","name":"approve","inputs":[{"name":"spender","type":"address","internalType":"address"},{"name":"value","type":"uint256","internalType":"uint256"}],"outputs":[{"name":"","type":"bool","internalType":"bool"}],"stateMutability":"nonpayable"},{"type":"function","name":"balanceOf","inputs":[{"name":"account","type":"address","internalType":"address"}],"outputs":[{"name":"","type":"uint256","internalType":"uint256"}],"stateMutability":"view"},{"type":"function","name":"burn","inputs":[{"name":"amount","type":"uint256","internalType":"uint256"}],"outputs":[],"stateMutability":"nonpayable"},{"type":"function","name":"checkpoints","inputs":[{"name":"account","type":"address","internalType":"address"},{"name":"pos","type":"uint32","internalType":"uint32"}],"outputs":[{"name":"","type":"tuple","internalType":"struct Checkpoints.Checkpoint208","components":[{"name":"_key","type":"uint48","internalType":"uint48"},{"name":"_value","type":"uint208","internalType":"uint208"}]}],"stateMutability":"view"},{"type":"function","name":"clock","inputs":[],"outputs":[{"name":"","type":"uint48","internalType":"uint48"}],"stateMutability":"view"},{"type":"function","name":"decimals","inputs":[],"outputs":[{"name":"","type":"uint8","internalType":"uint8"}],"stateMutability":"view"},{"type":"function","name":"delegate","inputs":[{"name":"delegatee","type":"address","internalType":"address"}],"outputs":[],"stateMutability":"nonpayable"},{"type":"function","name":"delegateBySig","inputs":[{"name":"delegatee","type":"address","internalType":"address"},{"name":"nonce","type":"uint256","internalType":"uint256"},{"name":"expiry","type":"uint256","internalType":"uint256"},{"name":"v","type":"uint8","internalType":"uint8"},{"name":"r","type":"bytes32","internalType":"bytes32"},{"name":"s","type":"bytes32","internalType":"bytes32"}],"outputs":[],"stateMutability":"nonpayable"},{"type":"function","name":"delegates","inputs":[{"name":"account","type":"address","internalType":"address"}],"outputs":[{"name":"","type":"address","internalType":"address"}],"stateMutability":"view"},{"type":"function","name":"eip712Domain","inputs":[],"outputs":[{"name":"fields","type":"bytes1","internalType":"bytes1"},{"name":"name","type":"string","internalType":"string"},{"name":"version","type":"string","internalType":"string"},{"name":"chainId","type":"uint256","internalType":"uint256"},{"name":"verifyingContract","type":"address","internalType":"address"},{"name":"salt","type":"bytes32","internalType":"bytes32"},{"name":"extensions","type":"uint256[]","internalType":"uint256[]"}],"stateMutability":"view"},{"type":"function","name":"getPastTotalSupply","inputs":[{"name":"timepoint","type":"uint256","internalType":"uint256"}],"outputs":[{"name":"","type":"uint256","internalType":"uint256"}],"stateMutability":"view"},{"type":"function","name":"getPastVotes","inputs":[{"name":"account","type":"address","internalType":"address"},{"name":"timepoint","type":"uint256","internalType":"uint256"}],"outputs":[{"name":"","type":"uint256","internalType":"uint256"}],"stateMutability":"view"},{"type":"function","name":"getVotes","inputs":[{"name":"account","type":"address","internalType":"address"}],"outputs":[{"name":"","type":"uint256","internalType":"uint256"}],"stateMutability":"view"},{"type":"function","name":"mint","inputs":[{"name":"to","type":"address","internalType":"address"},{"name":"amount","type":"uint256","internalType":"uint256"}],"outputs":[],"stateMutability":"nonpayable"},{"type":"function","name":"name","inputs":[],"outputs":[{"name":"","type":"string","internalType":"string"}],"stateMutability":"view"},{"type":"function","name":"nonces","inputs":[{"name":"owner","type":"address","internalType":"address"}],"outputs":[{"name":"","type":"uint256","internalType":"uint256"}],"stateMutability":"view"},{"type":"function","name":"numCheckpoints","inputs":[{"name":"account","type":"address","internalType":"address"}],"outputs":[{"name":"","type":"uint32","internalType":"uint32"}],"stateMutability":"view"},{"type":"function","name":"owner","inputs":[],"outputs":[{"name":"","type":"address","internalType":"address"}],"stateMutability":"view"},{"type":"function","name":"permit","inputs":[{"name":"owner","type":"address","internalType":"address"},{"name":"spender","type":"address","internalType":"address"},{"name":"value","type":"uint256","internalType":"uint256"},{"name":"deadline","type":"uint256","internalType":"uint256"},{"name":"v","type":"uint8","internalType":"uint8"},{"name":"r","type":"bytes32","internalType":"bytes32"},{"name":"s","type":"bytes32","internalType":"bytes32"}],"outputs":[],"stateMutability":"nonpayable"},{"type":"function","name":"renounceOwnership","inputs":[],"outputs":[],"stateMutability":"nonpayable"},{"type":"function","name":"symbol","inputs":[],"outputs":[{"name":"","type":"string","internalType":"string"}],"stateMutability":"view"},{"type":"function","name":"totalSupply","inputs":[],"outputs":[{"name":"","type":"uint256","internalType":"uint256"}],"stateMutability":"view"},{"type":"function","name":"transfer","inputs":[{"name":"to","type":"address","internalType":"address"},{"name":"value","type":"uint256","internalType":"uint256"}],"outputs":[{"name":"","type":"bool","internalType":"bool"}],"stateMutability":"nonpayable"},{"type":"function","name":"transferFrom","inputs":[{"name":"from","type":"address","internalType":"address"},{"name":"to","type":"address","internalType":"address"},{"name":"value","type":"uint256","internalType":"uint256"}],"outputs":[{"name":"","type":"bool","internalType":"bool"}],"stateMutability":"nonpayable"},{"type":"function","name":"transferOwnership","inputs":[{"name":"newOwner","type":"address","internalType":"address"}],"outputs":[],"stateMutability":"nonpayable"},{"type":"event","name":"Approval","inputs":[{"name":"owner","type":"address","indexed":true,"internalType":"address"},{"name":"spender","type":"address","indexed":true,"internalType":"address"},{"name":"value","type":"uint256","indexed":false,"internalType":"uint256"}],"anonymous":false},{"type":"event","name":"DelegateChanged","inputs":[{"name":"delegator","type":"address","indexed":true,"internalType":"address"},{"name":"fromDelegate","type":"address","indexed":true,"internalType":"address"},{"name":"toDelegate","type":"address","indexed":true,"internalType":"address"}],"anonymous":false},{"type":"event","name":"DelegateVotesChanged","inputs":[{"name":"delegate","type":"address","indexed":true,"internalType":"address"},{"name":"previousVotes","type":"uint256","indexed":false,"internalType":"uint256"},{"name":"newVotes","type":"uint256","indexed":false,"internalType":"uint256"}],"anonymous":false},{"type":"event","name":"EIP712DomainChanged","inputs":[],"anonymous":false},{"type":"event","name":"OwnershipTransferred","inputs":[{"name":"previousOwner","type":"address","indexed":true,"internalType":"address"},{"name":"newOwner","type":"address","indexed":true,"internalType":"address"}],"anonymous":false},{"type":"event","name":"Transfer","inputs":[{"name":"from","type":"address","indexed":true,"internalType":"address"},{"name":"to","type":"address","indexed":true,"internalType":"address"},{"name":"value","type":"uint256","indexed":false,"internalType":"uint256"}],"anonymous":false},{"type":"error","name":"CheckpointUnorderedInsertion","inputs":[]},{"type":"error","name":"ECDSAInvalidSignature","inputs":[]},{"type":"error","name":"ECDSAInvalidSignatureLength","inputs":[{"name":"length","type":"uint256","internalType":"uint256"}]},{"type":"error","name":"ECDSAInvalidSignatureS","inputs":[{"name":"s","type":"bytes32","internalType":"bytes32"}]},{"type":"error","name":"ERC20ExceededSafeSupply","inputs":[{"name":"increasedSupply","type":"uint256","internalType":"uint256"},{"name":"cap","type":"uint256","internalType":"uint256"}]},{"type":"error","name":"ERC20InsufficientAllowance","inputs":[{"name":"spender","type":"address","internalType":"address"},{"name":"allowance","type":"uint256","internalType":"uint256"},{"name":"needed","type":"uint256","internalType":"uint256"}]},{"type":"error","name":"ERC20InsufficientBalance","inputs":[{"name":"sender","type":"address","internalType":"address"},{"name":"balance","type":"uint256","internalType":"uint256"},{"name":"needed","type":"uint256","internalType":"uint256"}]},{"type":"error","name":"ERC20InvalidApprover","inputs":[{"name":"approver","type":"address","internalType":"address"}]},{"type":"error","name":"ERC20InvalidReceiver","inputs":[{"name":"receiver","type":"address","internalType":"address"}]},{"type":"error","name":"ERC20InvalidSender","inputs":[{"name":"sender","type":"address","internalType":"address"}]},{"type":"error","name":"ERC20InvalidSpender","inputs":[{"name":"spender","type":"address","internalType":"address"}]},{"type":"error","name":"ERC2612ExpiredSignature","inputs":[{"name":"deadline","type":"uint256","internalType":"uint256"}]},{"type":"error","name":"ERC2612InvalidSigner","inputs":[{"name":"signer","type":"address","internalType":"address"},{"name":"owner","type":"address","internalType":"address"}]},{"type":"error","name":"ERC5805FutureLookup","inputs":[{"name":"timepoint","type":"uint256","internalType":"uint256"},{"name":"clock","type":"uint48","internalType":"uint48"}]},{"type":"error","name":"ERC6372InconsistentClock","inputs":[]},{"type":"error","name":"InvalidAccountNonce","inputs":[{"name":"account","type":"address","internalType":"address"},{"name":"currentNonce","type":"uint256","internalType":"uint256"}]},{"type":"error","name":"InvalidShortString","inputs":[]},{"type":"error","name":"OwnableInvalidOwner","inputs":[{"name":"owner","type":"address","internalType":"address"}]},{"type":"error","name":"OwnableUnauthorizedAccount","inputs":[{"name":"account","type":"address","internalType":"address"}]},{"type":"error","name":"SafeCastOverflowedUintDowncast","inputs":[{"name":"bits","type":"uint8","internalType":"uint8"},{"name":"value","type":"uint256","internalType":"uint256"}]},{"type":"error","name":"StringTooLong","inputs":[{"name":"str","type":"string","internalType":"string"}]},{"type":"error","name":"VotesExpiredSignature","inputs":[{"name":"expiry","type":"uint256","internalType":"uint256"}]}],"bytecode":{"object":"0x610160604052348015610010575f5ffd5b50336040518060400160405280600e81526020017f4d6f6e616464697420546f6b656e000000000000000000000000000000000000815250806040518060400160405280600181526020017f31000000000000000000000000000000000000000000000000000000000000008152506040518060400160405280600e81526020017f4d6f6e616464697420546f6b656e0000000000000000000000000000000000008152506040518060400160405280600381526020017f4d4454000000000000000000000000000000000000000000000000000000000081525081600390816100fa91906112f3565b50806004908161010a91906112f3565b50505061012160058361025760201b90919060201c565b610120818152505061013d60068261025760201b90919060201c565b6101408181525050818051906020012060e08181525050808051906020012061010081815250504660a0818152505061017a6102a460201b60201c565b608081815250503073ffffffffffffffffffffffffffffffffffffffff1660c08173ffffffffffffffffffffffffffffffffffffffff16815250505050505f73ffffffffffffffffffffffffffffffffffffffff168173ffffffffffffffffffffffffffffffffffffffff1603610228575f6040517f1e4fbdf700000000000000000000000000000000000000000000000000000000815260040161021f9190611401565b60405180910390fd5b610237816102fe60201b60201c565b506102523369d3c21bcecceda10000006103c160201b60201c565b61183e565b5f602083511015610278576102718361044660201b60201c565b905061029e565b82610288836104ab60201b60201c565b5f01908161029691906112f3565b5060ff5f1b90505b92915050565b5f7f8b73c3c69bb8fe3d512ecc4cf759cc79239f7b179b0ffacaa9a75d522b39400f60e0516101005146306040516020016102e3959493929190611441565b60405160208183030381529060405280519060200120905090565b5f600b5f9054906101000a900473ffffffffffffffffffffffffffffffffffffffff16905081600b5f6101000a81548173ffffffffffffffffffffffffffffffffffffffff021916908373ffffffffffffffffffffffffffffffffffffffff1602179055508173ffffffffffffffffffffffffffffffffffffffff168173ffffffffffffffffffffffffffffffffffffffff167f8be0079c531659141344cd1fd0a4f28419497f9722a3daafe3b4186f6b6457e060405160405180910390a35050565b5f73ffffffffffffffffffffffffffffffffffffffff168273ffffffffffffffffffffffffffffffffffffffff1603610431575f6040517fec442f050000000000000000000000000000000000000000000000000000000081526004016104289190611401565b60405180910390fd5b6104425f83836104b460201b60201c565b5050565b5f5f829050601f8151111561049257826040517f305a27a900000000000000000000000000000000000000000000000000000000815260040161048991906114f8565b60405180910390fd5b80518161049e90611545565b5f1c175f1b915050919050565b5f819050919050565b6104c58383836104ca60201b60201c565b505050565b6104db83838361059060201b60201c565b5f73ffffffffffffffffffffffffffffffffffffffff168373ffffffffffffffffffffffffffffffffffffffff160361057a575f61051d6107a960201b60201c565b90505f61052e6107b260201b60201c565b9050808211156105775781816040517f1cb15d2600000000000000000000000000000000000000000000000000000000815260040161056e9291906115ab565b60405180910390fd5b50505b61058b8383836107d560201b60201c565b505050565b5f73ffffffffffffffffffffffffffffffffffffffff168373ffffffffffffffffffffffffffffffffffffffff16036105e0578060025f8282546105d491906115ff565b925050819055506106ae565b5f5f5f8573ffffffffffffffffffffffffffffffffffffffff1673ffffffffffffffffffffffffffffffffffffffff1681526020019081526020015f2054905081811015610669578381836040517fe450d38c00000000000000000000000000000000000000000000000000000000815260040161066093929190611632565b60405180910390fd5b8181035f5f8673ffffffffffffffffffffffffffffffffffffffff1673ffffffffffffffffffffffffffffffffffffffff1681526020019081526020015f2081905550505b5f73ffffffffffffffffffffffffffffffffffffffff168273ffffffffffffffffffffffffffffffffffffffff16036106f5578060025f828254039250508190555061073f565b805f5f8473ffffffffffffffffffffffffffffffffffffffff1673ffffffffffffffffffffffffffffffffffffffff1681526020019081526020015f205f82825401925050819055505b8173ffffffffffffffffffffffffffffffffffffffff168373ffffffffffffffffffffffffffffffffffffffff167fddf252ad1be2c89b69c2b068fc378daa952ba7f163c4a11628f55a4df523b3ef8360405161079c9190611667565b60405180910390a3505050565b5f600254905090565b5f79ffffffffffffffffffffffffffffffffffffffffffffffffffff8016905090565b5f73ffffffffffffffffffffffffffffffffffffffff168373ffffffffffffffffffffffffffffffffffffffff160361083457610831600a6108c560201b610f2517610826846108da60201b60201c565b61094760201b60201c565b50505b5f73ffffffffffffffffffffffffffffffffffffffff168273ffffffffffffffffffffffffffffffffffffffff160361089357610890600a61098f60201b610f3a17610885846108da60201b60201c565b61094760201b60201c565b50505b6108c06108a5846109a460201b60201c565b6108b4846109a460201b60201c565b83610a0960201b60201c565b505050565b5f81836108d291906116a5565b905092915050565b5f79ffffffffffffffffffffffffffffffffffffffffffffffffffff801682111561093f5760d0826040517f6dfcc650000000000000000000000000000000000000000000000000000000008152600401610936929190611737565b60405180910390fd5b819050919050565b5f5f61098361095a610c9f60201b60201c565b61097361096c88610cb360201b60201c565b868860201c565b87610d1b60201b9092919060201c565b91509150935093915050565b5f818361099c919061175e565b905092915050565b5f60085f8373ffffffffffffffffffffffffffffffffffffffff1673ffffffffffffffffffffffffffffffffffffffff1681526020019081526020015f205f9054906101000a900473ffffffffffffffffffffffffffffffffffffffff169050919050565b8173ffffffffffffffffffffffffffffffffffffffff168373ffffffffffffffffffffffffffffffffffffffff1614158015610a4457505f81115b15610c9a575f73ffffffffffffffffffffffffffffffffffffffff168373ffffffffffffffffffffffffffffffffffffffff1614610b71575f5f610ae260095f8773ffffffffffffffffffffffffffffffffffffffff1673ffffffffffffffffffffffffffffffffffffffff1681526020019081526020015f2061098f60201b610f3a17610ad7866108da60201b60201c565b61094760201b60201c565b79ffffffffffffffffffffffffffffffffffffffffffffffffffff16915079ffffffffffffffffffffffffffffffffffffffffffffffffffff1691508473ffffffffffffffffffffffffffffffffffffffff167fdec2bacdd2f05b59de34da9b523dff8be42e5e38e818c82fdb0bae774387a7248383604051610b669291906115ab565b60405180910390a250505b5f73ffffffffffffffffffffffffffffffffffffffff168273ffffffffffffffffffffffffffffffffffffffff1614610c99575f5f610c0a60095f8673ffffffffffffffffffffffffffffffffffffffff1673ffffffffffffffffffffffffffffffffffffffff1681526020019081526020015f206108c560201b610f2517610bff866108da60201b60201c565b61094760201b60201c565b79ffffffffffffffffffffffffffffffffffffffffffffffffffff16915079ffffffffffffffffffffffffffffffffffffffffffffffffffff1691508373ffffffffffffffffffffffffffffffffffffffff167fdec2bacdd2f05b59de34da9b523dff8be42e5e38e818c82fdb0bae774387a7248383604051610c8e9291906115ab565b60405180910390a250505b5b505050565b5f610cae610d3c60201b60201c565b905090565b5f5f825f018054905090505f8114610d1157610ce3835f01600183610cd891906117ab565b610d5160201b60201c565b5f0160069054906101000a900479ffffffffffffffffffffffffffffffffffffffffffffffffffff16610d13565b5f5b915050919050565b5f5f610d30855f018585610d6360201b60201c565b91509150935093915050565b5f610d4c4361105d60201b60201c565b905090565b5f825f528160205f2001905092915050565b5f5f5f858054905090505f811115610f75575f610d9287600184610d8791906117ab565b610d5160201b60201c565b90505f815f015f9054906101000a900465ffffffffffff1690505f825f0160069054906101000a900479ffffffffffffffffffffffffffffffffffffffffffffffffffff1690508765ffffffffffff168265ffffffffffff161115610e23576040517f2520601d00000000000000000000000000000000000000000000000000000000815260040160405180910390fd5b8765ffffffffffff168265ffffffffffff1603610e8d5786835f0160066101000a81548179ffffffffffffffffffffffffffffffffffffffffffffffffffff021916908379ffffffffffffffffffffffffffffffffffffffffffffffffffff160217905550610f66565b8860405180604001604052808a65ffffffffffff1681526020018979ffffffffffffffffffffffffffffffffffffffffffffffffffff16815250908060018154018082558091505060019003905f5260205f20015f909190919091505f820151815f015f6101000a81548165ffffffffffff021916908365ffffffffffff1602179055506020820151815f0160066101000a81548179ffffffffffffffffffffffffffffffffffffffffffffffffffff021916908379ffffffffffffffffffffffffffffffffffffffffffffffffffff16021790555050505b80879550955050505050611055565b8560405180604001604052808765ffffffffffff1681526020018679ffffffffffffffffffffffffffffffffffffffffffffffffffff16815250908060018154018082558091505060019003905f5260205f20015f909190919091505f820151815f015f6101000a81548165ffffffffffff021916908365ffffffffffff1602179055506020820151815f0160066101000a81548179ffffffffffffffffffffffffffffffffffffffffffffffffffff021916908379ffffffffffffffffffffffffffffffffffffffffffffffffffff16021790555050505f8492509250505b935093915050565b5f65ffffffffffff80168211156110ae576030826040517f6dfcc6500000000000000000000000000000000000000000000000000000000081526004016110a5929190611817565b60405180910390fd5b819050919050565b5f81519050919050565b7f4e487b71000000000000000000000000000000000000000000000000000000005f52604160045260245ffd5b7f4e487b71000000000000000000000000000000000000000000000000000000005f52602260045260245ffd5b5f600282049050600182168061113157607f821691505b602082108103611144576111436110ed565b5b50919050565b5f819050815f5260205f209050919050565b5f6020601f8301049050919050565b5f82821b905092915050565b5f600883026111a67fffffffffffffffffffffffffffffffffffffffffffffffffffffffffffffffff8261116b565b6111b0868361116b565b95508019841693508086168417925050509392505050565b5f819050919050565b5f819050919050565b5f6111f46111ef6111ea846111c8565b6111d1565b6111c8565b9050919050565b5f819050919050565b61120d836111da565b611221611219826111fb565b848454611177565b825550505050565b5f5f905090565b611238611229565b611243818484611204565b505050565b5b818110156112665761125b5f82611230565b600181019050611249565b5050565b601f8211156112ab5761127c8161114a565b6112858461115c565b81016020851015611294578190505b6112a86112a08561115c565b830182611248565b50505b505050565b5f82821c905092915050565b5f6112cb5f19846008026112b0565b1980831691505092915050565b5f6112e383836112bc565b9150826002028217905092915050565b6112fc826110b6565b67ffffffffffffffff811115611315576113146110c0565b5b61131f825461111a565b61132a82828561126a565b5f60209050601f83116001811461135b575f8415611349578287015190505b61135385826112d8565b8655506113ba565b601f1984166113698661114a565b5f5b828110156113905784890151825560018201915060208501945060208101905061136b565b868310156113ad57848901516113a9601f8916826112bc565b8355505b6001600288020188555050505b505050505050565b5f73ffffffffffffffffffffffffffffffffffffffff82169050919050565b5f6113eb826113c2565b9050919050565b6113fb816113e1565b82525050565b5f6020820190506114145f8301846113f2565b92915050565b5f819050919050565b61142c8161141a565b82525050565b61143b816111c8565b82525050565b5f60a0820190506114545f830188611423565b6114616020830187611423565b61146e6040830186611423565b61147b6060830185611432565b61148860808301846113f2565b9695505050505050565b5f82825260208201905092915050565b8281835e5f83830152505050565b5f601f19601f8301169050919050565b5f6114ca826110b6565b6114d48185611492565b93506114e48185602086016114a2565b6114ed816114b0565b840191505092915050565b5f6020820190508181035f83015261151081846114c0565b905092915050565b5f81519050919050565b5f819050602082019050919050565b5f61153c825161141a565b80915050919050565b5f61154f82611518565b8261155984611522565b905061156481611531565b925060208210156115a45761159f7fffffffffffffffffffffffffffffffffffffffffffffffffffffffffffffffff8360200360080261116b565b831692505b5050919050565b5f6040820190506115be5f830185611432565b6115cb6020830184611432565b9392505050565b7f4e487b71000000000000000000000000000000000000000000000000000000005f52601160045260245ffd5b5f611609826111c8565b9150611614836111c8565b925082820190508082111561162c5761162b6115d2565b5b92915050565b5f6060820190506116455f8301866113f2565b6116526020830185611432565b61165f6040830184611432565b949350505050565b5f60208201905061167a5f830184611432565b92915050565b5f79ffffffffffffffffffffffffffffffffffffffffffffffffffff82169050919050565b5f6116af82611680565b91506116ba83611680565b9250828201905079ffffffffffffffffffffffffffffffffffffffffffffffffffff8111156116ec576116eb6115d2565b5b92915050565b5f819050919050565b5f60ff82169050919050565b5f61172161171c611717846116f2565b6111d1565b6116fb565b9050919050565b61173181611707565b82525050565b5f60408201905061174a5f830185611728565b6117576020830184611432565b9392505050565b5f61176882611680565b915061177383611680565b9250828203905079ffffffffffffffffffffffffffffffffffffffffffffffffffff8111156117a5576117a46115d2565b5b92915050565b5f6117b5826111c8565b91506117c0836111c8565b92508282039050818111156117d8576117d76115d2565b5b92915050565b5f819050919050565b5f6118016117fc6117f7846117de565b6111d1565b6116fb565b9050919050565b611811816117e7565b82525050565b5f60408201905061182a5f830185611808565b6118376020830184611432565b9392505050565b60805160a05160c05160e051610100516101205161014051613b4f61188f5f395f61170d01525f6116d201525f611b1501525f611af401525f6110ee01525f61114401525f61116d0152613b4f5ff3fe608060405234801561000f575f5ffd5b50600436106101d8575f3560e01c806370a082311161010257806395d89b41116100a0578063d505accf1161006f578063d505accf14610586578063dd62ed3e146105a2578063f1127ed8146105d2578063f2fde38b14610602576101d8565b806395d89b41146104ec5780639ab24eb01461050a578063a9059cbb1461053a578063c3cda5201461056a576101d8565b806384b0196e116100dc57806384b0196e1461045c5780638da5cb5b146104805780638e539e8c1461049e57806391ddadf4146104ce576101d8565b806370a08231146103f2578063715018a6146104225780637ecebe001461042c576101d8565b80633644e5151161017a5780634bf5d7e9116101495780634bf5d7e914610358578063587cde1e146103765780635c19a95c146103a65780636fcfff45146103c2576101d8565b80633644e515146102d25780633a46b1a8146102f057806340c10f191461032057806342966c681461033c576101d8565b806323b872dd116101b657806323b872dd146102485780632ff2e9dc14610278578063313ce5671461029657806332cb6b0c146102b4576101d8565b806306fdde03146101dc578063095ea7b3146101fa57806318160ddd1461022a575b5f5ffd5b6101e461061e565b6040516101f19190612e0a565b60405180910390f35b610214600480360381019061020f9190612ebb565b6106ae565b6040516102219190612f13565b60405180910390f35b6102326106d0565b60405161023f9190612f3b565b60405180910390f35b610262600480360381019061025d9190612f54565b6106d9565b60405161026f9190612f13565b60405180910390f35b610280610707565b60405161028d9190612f3b565b60405180910390f35b61029e610715565b6040516102ab9190612fbf565b60405180910390f35b6102bc61071d565b6040516102c99190612f3b565b60405180910390f35b6102da61072c565b6040516102e79190612ff0565b60405180910390f35b61030a60048036038101906103059190612ebb565b61073a565b6040516103179190612f3b565b60405180910390f35b61033a60048036038101906103359190612ebb565b6107b6565b005b61035660048036038101906103519190613009565b61082c565b005b610360610839565b60405161036d9190612e0a565b60405180910390f35b610390600480360381019061038b9190613034565b6108cd565b60405161039d919061306e565b60405180910390f35b6103c060048036038101906103bb9190613034565b610932565b005b6103dc60048036038101906103d79190613034565b61094b565b6040516103e991906130a5565b60405180910390f35b61040c60048036038101906104079190613034565b61095c565b6040516104199190612f3b565b60405180910390f35b61042a6109a1565b005b61044660048036038101906104419190613034565b6109b4565b6040516104539190612f3b565b60405180910390f35b6104646109c5565b60405161047797969594939291906131af565b60405180910390f35b610488610a6a565b604051610495919061306e565b60405180910390f35b6104b860048036038101906104b39190613009565b610a92565b6040516104c59190612f3b565b60405180910390f35b6104d6610ad2565b6040516104e39190613251565b60405180910390f35b6104f4610ae0565b6040516105019190612e0a565b60405180910390f35b610524600480360381019061051f9190613034565b610b70565b6040516105319190612f3b565b60405180910390f35b610554600480360381019061054f9190612ebb565b610bd9565b6040516105619190612f13565b60405180910390f35b610584600480360381019061057f91906132be565b610bfb565b005b6105a0600480360381019061059b9190613347565b610cc0565b005b6105bc60048036038101906105b791906133e4565b610e05565b6040516105c99190612f3b565b60405180910390f35b6105ec60048036038101906105e7919061344c565b610e87565b6040516105f991906134fa565b60405180910390f35b61061c60048036038101906106179190613034565b610ea1565b005b60606003805461062d90613540565b80601f016020809104026020016040519081016040528092919081815260200182805461065990613540565b80156106a45780601f1061067b576101008083540402835291602001916106a4565b820191905f5260205f20905b81548152906001019060200180831161068757829003601f168201915b5050505050905090565b5f5f6106b8610f4f565b90506106c5818585610f56565b600191505092915050565b5f600254905090565b5f5f6106e3610f4f565b90506106f0858285610f68565b6106fb858585610ffb565b60019150509392505050565b69d3c21bcecceda100000081565b5f6012905090565b6a084595161401484a00000081565b5f6107356110eb565b905090565b5f610792610747836111a1565b60095f8673ffffffffffffffffffffffffffffffffffffffff1673ffffffffffffffffffffffffffffffffffffffff1681526020019081526020015f2061120c90919063ffffffff16565b79ffffffffffffffffffffffffffffffffffffffffffffffffffff16905092915050565b6107be6112fc565b6a084595161401484a000000816107d36106d0565b6107dd919061359d565b111561081e576040517f08c379a00000000000000000000000000000000000000000000000000000000081526004016108159061361a565b60405180910390fd5b6108288282611383565b5050565b6108363382611402565b50565b6060610843611481565b65ffffffffffff16610853610ad2565b65ffffffffffff1614610892576040517f6ff0714000000000000000000000000000000000000000000000000000000000815260040160405180910390fd5b6040518060400160405280601d81526020017f6d6f64653d626c6f636b6e756d6265722666726f6d3d64656661756c74000000815250905090565b5f60085f8373ffffffffffffffffffffffffffffffffffffffff1673ffffffffffffffffffffffffffffffffffffffff1681526020019081526020015f205f9054906101000a900473ffffffffffffffffffffffffffffffffffffffff169050919050565b5f61093b610f4f565b90506109478183611490565b5050565b5f610955826115a0565b9050919050565b5f5f5f8373ffffffffffffffffffffffffffffffffffffffff1673ffffffffffffffffffffffffffffffffffffffff1681526020019081526020015f20549050919050565b6109a96112fc565b6109b25f6115f5565b565b5f6109be826116b8565b9050919050565b5f6060805f5f5f60606109d66116c9565b6109de611704565b46305f5f1b5f67ffffffffffffffff8111156109fd576109fc613638565b5b604051908082528060200260200182016040528015610a2b5781602001602082028036833780820191505090505b507f0f00000000000000000000000000000000000000000000000000000000000000959493929190965096509650965096509650965090919293949596565b5f600b5f9054906101000a900473ffffffffffffffffffffffffffffffffffffffff16905090565b5f610aaf610a9f836111a1565b600a61120c90919063ffffffff16565b79ffffffffffffffffffffffffffffffffffffffffffffffffffff169050919050565b5f610adb611481565b905090565b606060048054610aef90613540565b80601f0160208091040260200160405190810160405280929190818152602001828054610b1b90613540565b8015610b665780601f10610b3d57610100808354040283529160200191610b66565b820191905f5260205f20905b815481529060010190602001808311610b4957829003601f168201915b5050505050905090565b5f610bb660095f8473ffffffffffffffffffffffffffffffffffffffff1673ffffffffffffffffffffffffffffffffffffffff1681526020019081526020015f2061173f565b79ffffffffffffffffffffffffffffffffffffffffffffffffffff169050919050565b5f5f610be3610f4f565b9050610bf0818585610ffb565b600191505092915050565b83421115610c4057836040517f4683af0e000000000000000000000000000000000000000000000000000000008152600401610c379190612f3b565b60405180910390fd5b5f610ca1610c997fe48329057bfd03d55e49b547132e39cffd9c1820ad7b9d4c5307691425d15adf898989604051602001610c7e9493929190613665565b604051602081830303815290604052805190602001206117a1565b8585856117ba565b9050610cad81876117e8565b610cb78188611490565b50505050505050565b83421115610d0557836040517f62791302000000000000000000000000000000000000000000000000000000008152600401610cfc9190612f3b565b60405180910390fd5b5f7f6e71edae12b1b97f4d1f60370fef10105fa2faae0126114a169c64845d6126c9888888610d338c61183f565b89604051602001610d49969594939291906136a8565b6040516020818303038152906040528051906020012090505f610d6b826117a1565b90505f610d7a828787876117ba565b90508973ffffffffffffffffffffffffffffffffffffffff168173ffffffffffffffffffffffffffffffffffffffff1614610dee57808a6040517f4b800e46000000000000000000000000000000000000000000000000000000008152600401610de5929190613707565b60405180910390fd5b610df98a8a8a610f56565b50505050505050505050565b5f60015f8473ffffffffffffffffffffffffffffffffffffffff1673ffffffffffffffffffffffffffffffffffffffff1681526020019081526020015f205f8373ffffffffffffffffffffffffffffffffffffffff1673ffffffffffffffffffffffffffffffffffffffff1681526020019081526020015f2054905092915050565b610e8f612d5e565b610e998383611892565b905092915050565b610ea96112fc565b5f73ffffffffffffffffffffffffffffffffffffffff168173ffffffffffffffffffffffffffffffffffffffff1603610f19575f6040517f1e4fbdf7000000000000000000000000000000000000000000000000000000008152600401610f10919061306e565b60405180910390fd5b610f22816115f5565b50565b5f8183610f32919061372e565b905092915050565b5f8183610f47919061377b565b905092915050565b5f33905090565b610f6383838360016118f1565b505050565b5f610f738484610e05565b90507fffffffffffffffffffffffffffffffffffffffffffffffffffffffffffffffff811015610ff55781811015610fe6578281836040517ffb8f41b2000000000000000000000000000000000000000000000000000000008152600401610fdd939291906137c8565b60405180910390fd5b610ff484848484035f6118f1565b5b50505050565b5f73ffffffffffffffffffffffffffffffffffffffff168373ffffffffffffffffffffffffffffffffffffffff160361106b575f6040517f96c6fd1e000000000000000000000000000000000000000000000000000000008152600401611062919061306e565b60405180910390fd5b5f73ffffffffffffffffffffffffffffffffffffffff168273ffffffffffffffffffffffffffffffffffffffff16036110db575f6040517fec442f050000000000000000000000000000000000000000000000000000000081526004016110d2919061306e565b60405180910390fd5b6110e6838383611ac0565b505050565b5f7f000000000000000000000000000000000000000000000000000000000000000073ffffffffffffffffffffffffffffffffffffffff163073ffffffffffffffffffffffffffffffffffffffff1614801561116657507f000000000000000000000000000000000000000000000000000000000000000046145b15611193577f0000000000000000000000000000000000000000000000000000000000000000905061119e565b61119b611ad0565b90505b90565b5f5f6111ab610ad2565b90508065ffffffffffff1683106111fb5782816040517fecd3f81e0000000000000000000000000000000000000000000000000000000081526004016111f29291906137fd565b60405180910390fd5b61120483611b65565b915050919050565b5f5f835f018054905090505f5f90505f8290506005831115611290575f61123284611bbe565b8461123d9190613824565b905061124b875f0182611d58565b5f015f9054906101000a900465ffffffffffff1665ffffffffffff168665ffffffffffff16101561127e5780915061128e565b60018161128b919061359d565b92505b505b5f61129f875f01878585611d6a565b90505f81146112ee576112c0875f016001836112bb9190613824565b611d58565b5f0160069054906101000a900479ffffffffffffffffffffffffffffffffffffffffffffffffffff166112f0565b5f5b94505050505092915050565b611304610f4f565b73ffffffffffffffffffffffffffffffffffffffff16611322610a6a565b73ffffffffffffffffffffffffffffffffffffffff161461138157611345610f4f565b6040517f118cdaa7000000000000000000000000000000000000000000000000000000008152600401611378919061306e565b60405180910390fd5b565b5f73ffffffffffffffffffffffffffffffffffffffff168273ffffffffffffffffffffffffffffffffffffffff16036113f3575f6040517fec442f050000000000000000000000000000000000000000000000000000000081526004016113ea919061306e565b60405180910390fd5b6113fe5f8383611ac0565b5050565b5f73ffffffffffffffffffffffffffffffffffffffff168273ffffffffffffffffffffffffffffffffffffffff1603611472575f6040517f96c6fd1e000000000000000000000000000000000000000000000000000000008152600401611469919061306e565b60405180910390fd5b61147d825f83611ac0565b5050565b5f61148b43611b65565b905090565b5f61149a836108cd565b90508160085f8573ffffffffffffffffffffffffffffffffffffffff1673ffffffffffffffffffffffffffffffffffffffff1681526020019081526020015f205f6101000a81548173ffffffffffffffffffffffffffffffffffffffff021916908373ffffffffffffffffffffffffffffffffffffffff1602179055508173ffffffffffffffffffffffffffffffffffffffff168173ffffffffffffffffffffffffffffffffffffffff168473ffffffffffffffffffffffffffffffffffffffff167f3134e8a2e6d97e929a7e54011ea5485d7d196dd5f0ba4d4ef95803e8e3fc257f60405160405180910390a461159b818361159686611ddf565b611df0565b505050565b5f6115ee6115e960095f8573ffffffffffffffffffffffffffffffffffffffff1673ffffffffffffffffffffffffffffffffffffffff1681526020019081526020015f20612060565b61206f565b9050919050565b5f600b5f9054906101000a900473ffffffffffffffffffffffffffffffffffffffff16905081600b5f6101000a81548173ffffffffffffffffffffffffffffffffffffffff021916908373ffffffffffffffffffffffffffffffffffffffff1602179055508173ffffffffffffffffffffffffffffffffffffffff168173ffffffffffffffffffffffffffffffffffffffff167f8be0079c531659141344cd1fd0a4f28419497f9722a3daafe3b4186f6b6457e060405160405180910390a35050565b5f6116c2826120c6565b9050919050565b60606116ff60057f000000000000000000000000000000000000000000000000000000000000000061210c90919063ffffffff16565b905090565b606061173a60067f000000000000000000000000000000000000000000000000000000000000000061210c90919063ffffffff16565b905090565b5f5f825f018054905090505f811461179757611769835f016001836117649190613824565b611d58565b5f0160069054906101000a900479ffffffffffffffffffffffffffffffffffffffffffffffffffff16611799565b5f5b915050919050565b5f6117b36117ad6110eb565b836121b9565b9050919050565b5f5f5f5f6117ca888888886121f9565b9250925092506117da82826122e0565b829350505050949350505050565b5f6117f28361183f565b905080821461183a5782816040517f752d88c0000000000000000000000000000000000000000000000000000000008152600401611831929190613857565b60405180910390fd5b505050565b5f60075f8373ffffffffffffffffffffffffffffffffffffffff1673ffffffffffffffffffffffffffffffffffffffff1681526020019081526020015f205f815480929190600101919050559050919050565b61189a612d5e565b6118e98260095f8673ffffffffffffffffffffffffffffffffffffffff1673ffffffffffffffffffffffffffffffffffffffff1681526020019081526020015f2061244290919063ffffffff16565b905092915050565b5f73ffffffffffffffffffffffffffffffffffffffff168473ffffffffffffffffffffffffffffffffffffffff1603611961575f6040517fe602df05000000000000000000000000000000000000000000000000000000008152600401611958919061306e565b60405180910390fd5b5f73ffffffffffffffffffffffffffffffffffffffff168373ffffffffffffffffffffffffffffffffffffffff16036119d1575f6040517f94280d620000000000000000000000000000000000000000000000000000000081526004016119c8919061306e565b60405180910390fd5b8160015f8673ffffffffffffffffffffffffffffffffffffffff1673ffffffffffffffffffffffffffffffffffffffff1681526020019081526020015f205f8573ffffffffffffffffffffffffffffffffffffffff1673ffffffffffffffffffffffffffffffffffffffff1681526020019081526020015f20819055508015611aba578273ffffffffffffffffffffffffffffffffffffffff168473ffffffffffffffffffffffffffffffffffffffff167f8c5be1e5ebec7d5bd14f71427d1e84f3dd0314c0f7b2291e5b200ac8c7c3b92584604051611ab19190612f3b565b60405180910390a35b50505050565b611acb838383612511565b505050565b5f7f8b73c3c69bb8fe3d512ecc4cf759cc79239f7b179b0ffacaa9a75d522b39400f7f00000000000000000000000000000000000000000000000000000000000000007f00000000000000000000000000000000000000000000000000000000000000004630604051602001611b4a95949392919061387e565b60405160208183030381529060405280519060200120905090565b5f65ffffffffffff8016821115611bb6576030826040517f6dfcc650000000000000000000000000000000000000000000000000000000008152600401611bad929190613911565b60405180910390fd5b819050919050565b5f60018211611bcf57819050611d53565b5f8290505f600190507001000000000000000000000000000000008210611bff57608082901c9150604081901b90505b680100000000000000008210611c1e57604082901c9150602081901b90505b6401000000008210611c3957602082901c9150601081901b90505b620100008210611c5257601082901c9150600881901b90505b6101008210611c6a57600882901c9150600481901b90505b60108210611c8157600482901c9150600281901b90505b60048210611c9157600181901b90505b600181600302901c90506001818581611cad57611cac613938565b5b048201901c90506001818581611cc657611cc5613938565b5b048201901c90506001818581611cdf57611cde613938565b5b048201901c90506001818581611cf857611cf7613938565b5b048201901c90506001818581611d1157611d10613938565b5b048201901c90506001818581611d2a57611d29613938565b5b048201901c9050611d4c818581611d4457611d43613938565b5b0482116125bf565b8103925050505b919050565b5f825f528160205f2001905092915050565b5f5b81831015611dd4575f611d7f84846125ca565b90508465ffffffffffff16611d948783611d58565b5f015f9054906101000a900465ffffffffffff1665ffffffffffff161115611dbe57809250611dce565b600181611dcb919061359d565b93505b50611d6c565b819050949350505050565b5f611de98261095c565b9050919050565b8173ffffffffffffffffffffffffffffffffffffffff168373ffffffffffffffffffffffffffffffffffffffff1614158015611e2b57505f81115b1561205b575f73ffffffffffffffffffffffffffffffffffffffff168373ffffffffffffffffffffffffffffffffffffffff1614611f45575f5f611eb660095f8773ffffffffffffffffffffffffffffffffffffffff1673ffffffffffffffffffffffffffffffffffffffff1681526020019081526020015f20610f3a611eb1866125ef565b61265c565b79ffffffffffffffffffffffffffffffffffffffffffffffffffff16915079ffffffffffffffffffffffffffffffffffffffffffffffffffff1691508473ffffffffffffffffffffffffffffffffffffffff167fdec2bacdd2f05b59de34da9b523dff8be42e5e38e818c82fdb0bae774387a7248383604051611f3a929190613965565b60405180910390a250505b5f73ffffffffffffffffffffffffffffffffffffffff168273ffffffffffffffffffffffffffffffffffffffff161461205a575f5f611fcb60095f8673ffffffffffffffffffffffffffffffffffffffff1673ffffffffffffffffffffffffffffffffffffffff1681526020019081526020015f20610f25611fc6866125ef565b61265c565b79ffffffffffffffffffffffffffffffffffffffffffffffffffff16915079ffffffffffffffffffffffffffffffffffffffffffffffffffff1691508373ffffffffffffffffffffffffffffffffffffffff167fdec2bacdd2f05b59de34da9b523dff8be42e5e38e818c82fdb0bae774387a724838360405161204f929190613965565b60405180910390a250505b5b505050565b5f815f01805490509050919050565b5f63ffffffff80168211156120be576020826040517f6dfcc6500000000000000000000000000000000000000000000000000000000081526004016120b59291906139c5565b60405180910390fd5b819050919050565b5f60075f8373ffffffffffffffffffffffffffffffffffffffff1673ffffffffffffffffffffffffffffffffffffffff1681526020019081526020015f20549050919050565b606060ff5f1b8314612128576121218361269b565b90506121b3565b81805461213490613540565b80601f016020809104026020016040519081016040528092919081815260200182805461216090613540565b80156121ab5780601f10612182576101008083540402835291602001916121ab565b820191905f5260205f20905b81548152906001019060200180831161218e57829003601f168201915b505050505090505b92915050565b5f6040517f190100000000000000000000000000000000000000000000000000000000000081528360028201528260228201526042812091505092915050565b5f5f5f7f7fffffffffffffffffffffffffffffff5d576e7357a4501ddfe92f46681b20a0845f1c1115612235575f6003859250925092506122d6565b5f6001888888886040515f815260200160405260405161225894939291906139ec565b6020604051602081039080840390855afa158015612278573d5f5f3e3d5ffd5b5050506020604051035190505f73ffffffffffffffffffffffffffffffffffffffff168173ffffffffffffffffffffffffffffffffffffffff16036122c9575f60015f5f1b935093509350506122d6565b805f5f5f1b935093509350505b9450945094915050565b5f60038111156122f3576122f2613a2f565b5b82600381111561230657612305613a2f565b5b031561243e57600160038111156123205761231f613a2f565b5b82600381111561233357612332613a2f565b5b0361236a576040517ff645eedf00000000000000000000000000000000000000000000000000000000815260040160405180910390fd5b6002600381111561237e5761237d613a2f565b5b82600381111561239157612390613a2f565b5b036123d557805f1c6040517ffce698f70000000000000000000000000000000000000000000000000000000081526004016123cc9190612f3b565b60405180910390fd5b6003808111156123e8576123e7613a2f565b5b8260038111156123fb576123fa613a2f565b5b0361243d57806040517fd78bce0c0000000000000000000000000000000000000000000000000000000081526004016124349190612ff0565b60405180910390fd5b5b5050565b61244a612d5e565b825f018263ffffffff168154811061246557612464613a5c565b5b905f5260205f20016040518060400160405290815f82015f9054906101000a900465ffffffffffff1665ffffffffffff1665ffffffffffff1681526020015f820160069054906101000a900479ffffffffffffffffffffffffffffffffffffffffffffffffffff1679ffffffffffffffffffffffffffffffffffffffffffffffffffff1679ffffffffffffffffffffffffffffffffffffffffffffffffffff1681525050905092915050565b61251c83838361270d565b5f73ffffffffffffffffffffffffffffffffffffffff168373ffffffffffffffffffffffffffffffffffffffff16036125af575f6125586106d0565b90505f612563612926565b9050808211156125ac5781816040517f1cb15d260000000000000000000000000000000000000000000000000000000081526004016125a3929190613965565b60405180910390fd5b50505b6125ba838383612949565b505050565b5f8115159050919050565b5f60028284186125da9190613a89565b8284166125e7919061359d565b905092915050565b5f79ffffffffffffffffffffffffffffffffffffffffffffffffffff80168211156126545760d0826040517f6dfcc65000000000000000000000000000000000000000000000000000000000815260040161264b929190613af2565b60405180910390fd5b819050919050565b5f5f61268f612669610ad2565b61267f6126758861173f565b868863ffffffff16565b87612a019092919063ffffffff16565b91509150935093915050565b60605f6126a783612a1c565b90505f602067ffffffffffffffff8111156126c5576126c4613638565b5b6040519080825280601f01601f1916602001820160405280156126f75781602001600182028036833780820191505090505b5090508181528360208201528092505050919050565b5f73ffffffffffffffffffffffffffffffffffffffff168373ffffffffffffffffffffffffffffffffffffffff160361275d578060025f828254612751919061359d565b9250508190555061282b565b5f5f5f8573ffffffffffffffffffffffffffffffffffffffff1673ffffffffffffffffffffffffffffffffffffffff1681526020019081526020015f20549050818110156127e6578381836040517fe450d38c0000000000000000000000000000000000000000000000000000000081526004016127dd939291906137c8565b60405180910390fd5b8181035f5f8673ffffffffffffffffffffffffffffffffffffffff1673ffffffffffffffffffffffffffffffffffffffff1681526020019081526020015f2081905550505b5f73ffffffffffffffffffffffffffffffffffffffff168273ffffffffffffffffffffffffffffffffffffffff1603612872578060025f82825403925050819055506128bc565b805f5f8473ffffffffffffffffffffffffffffffffffffffff1673ffffffffffffffffffffffffffffffffffffffff1681526020019081526020015f205f82825401925050819055505b8173ffffffffffffffffffffffffffffffffffffffff168373ffffffffffffffffffffffffffffffffffffffff167fddf252ad1be2c89b69c2b068fc378daa952ba7f163c4a11628f55a4df523b3ef836040516129199190612f3b565b60405180910390a3505050565b5f79ffffffffffffffffffffffffffffffffffffffffffffffffffff8016905090565b5f73ffffffffffffffffffffffffffffffffffffffff168373ffffffffffffffffffffffffffffffffffffffff160361299557612992600a610f2561298d846125ef565b61265c565b50505b5f73ffffffffffffffffffffffffffffffffffffffff168273ffffffffffffffffffffffffffffffffffffffff16036129e1576129de600a610f3a6129d9846125ef565b61265c565b50505b6129fc6129ed846108cd565b6129f6846108cd565b83611df0565b505050565b5f5f612a10855f018585612a6a565b91509150935093915050565b5f5f60ff835f1c169050601f811115612a61576040517fb3512b0c00000000000000000000000000000000000000000000000000000000815260040160405180910390fd5b80915050919050565b5f5f5f858054905090505f811115612c76575f612a9387600184612a8e9190613824565b611d58565b90505f815f015f9054906101000a900465ffffffffffff1690505f825f0160069054906101000a900479ffffffffffffffffffffffffffffffffffffffffffffffffffff1690508765ffffffffffff168265ffffffffffff161115612b24576040517f2520601d00000000000000000000000000000000000000000000000000000000815260040160405180910390fd5b8765ffffffffffff168265ffffffffffff1603612b8e5786835f0160066101000a81548179ffffffffffffffffffffffffffffffffffffffffffffffffffff021916908379ffffffffffffffffffffffffffffffffffffffffffffffffffff160217905550612c67565b8860405180604001604052808a65ffffffffffff1681526020018979ffffffffffffffffffffffffffffffffffffffffffffffffffff16815250908060018154018082558091505060019003905f5260205f20015f909190919091505f820151815f015f6101000a81548165ffffffffffff021916908365ffffffffffff1602179055506020820151815f0160066101000a81548179ffffffffffffffffffffffffffffffffffffffffffffffffffff021916908379ffffffffffffffffffffffffffffffffffffffffffffffffffff16021790555050505b80879550955050505050612d56565b8560405180604001604052808765ffffffffffff1681526020018679ffffffffffffffffffffffffffffffffffffffffffffffffffff16815250908060018154018082558091505060019003905f5260205f20015f909190919091505f820151815f015f6101000a81548165ffffffffffff021916908365ffffffffffff1602179055506020820151815f0160066101000a81548179ffffffffffffffffffffffffffffffffffffffffffffffffffff021916908379ffffffffffffffffffffffffffffffffffffffffffffffffffff16021790555050505f8492509250505b935093915050565b60405180604001604052805f65ffffffffffff1681526020015f79ffffffffffffffffffffffffffffffffffffffffffffffffffff1681525090565b5f81519050919050565b5f82825260208201905092915050565b8281835e5f83830152505050565b5f601f19601f8301169050919050565b5f612ddc82612d9a565b612de68185612da4565b9350612df6818560208601612db4565b612dff81612dc2565b840191505092915050565b5f6020820190508181035f830152612e228184612dd2565b905092915050565b5f5ffd5b5f73ffffffffffffffffffffffffffffffffffffffff82169050919050565b5f612e5782612e2e565b9050919050565b612e6781612e4d565b8114612e71575f5ffd5b50565b5f81359050612e8281612e5e565b92915050565b5f819050919050565b612e9a81612e88565b8114612ea4575f5ffd5b50565b5f81359050612eb581612e91565b92915050565b5f5f60408385031215612ed157612ed0612e2a565b5b5f612ede85828601612e74565b9250506020612eef85828601612ea7565b9150509250929050565b5f8115159050919050565b612f0d81612ef9565b82525050565b5f602082019050612f265f830184612f04565b92915050565b612f3581612e88565b82525050565b5f602082019050612f4e5f830184612f2c565b92915050565b5f5f5f60608486031215612f6b57612f6a612e2a565b5b5f612f7886828701612e74565b9350506020612f8986828701612e74565b9250506040612f9a86828701612ea7565b9150509250925092565b5f60ff82169050919050565b612fb981612fa4565b82525050565b5f602082019050612fd25f830184612fb0565b92915050565b5f819050919050565b612fea81612fd8565b82525050565b5f6020820190506130035f830184612fe1565b92915050565b5f6020828403121561301e5761301d612e2a565b5b5f61302b84828501612ea7565b91505092915050565b5f6020828403121561304957613048612e2a565b5b5f61305684828501612e74565b91505092915050565b61306881612e4d565b82525050565b5f6020820190506130815f83018461305f565b92915050565b5f63ffffffff82169050919050565b61309f81613087565b82525050565b5f6020820190506130b85f830184613096565b92915050565b5f7fff0000000000000000000000000000000000000000000000000000000000000082169050919050565b6130f2816130be565b82525050565b5f81519050919050565b5f82825260208201905092915050565b5f819050602082019050919050565b61312a81612e88565b82525050565b5f61313b8383613121565b60208301905092915050565b5f602082019050919050565b5f61315d826130f8565b6131678185613102565b935061317283613112565b805f5b838110156131a25781516131898882613130565b975061319483613147565b925050600181019050613175565b5085935050505092915050565b5f60e0820190506131c25f83018a6130e9565b81810360208301526131d48189612dd2565b905081810360408301526131e88188612dd2565b90506131f76060830187612f2c565b613204608083018661305f565b61321160a0830185612fe1565b81810360c08301526132238184613153565b905098975050505050505050565b5f65ffffffffffff82169050919050565b61324b81613231565b82525050565b5f6020820190506132645f830184613242565b92915050565b61327381612fa4565b811461327d575f5ffd5b50565b5f8135905061328e8161326a565b92915050565b61329d81612fd8565b81146132a7575f5ffd5b50565b5f813590506132b881613294565b92915050565b5f5f5f5f5f5f60c087890312156132d8576132d7612e2a565b5b5f6132e589828a01612e74565b96505060206132f689828a01612ea7565b955050604061330789828a01612ea7565b945050606061331889828a01613280565b935050608061332989828a016132aa565b92505060a061333a89828a016132aa565b9150509295509295509295565b5f5f5f5f5f5f5f60e0888a03121561336257613361612e2a565b5b5f61336f8a828b01612e74565b97505060206133808a828b01612e74565b96505060406133918a828b01612ea7565b95505060606133a28a828b01612ea7565b94505060806133b38a828b01613280565b93505060a06133c48a828b016132aa565b92505060c06133d58a828b016132aa565b91505092959891949750929550565b5f5f604083850312156133fa576133f9612e2a565b5b5f61340785828601612e74565b925050602061341885828601612e74565b9150509250929050565b61342b81613087565b8114613435575f5ffd5b50565b5f8135905061344681613422565b92915050565b5f5f6040838503121561346257613461612e2a565b5b5f61346f85828601612e74565b925050602061348085828601613438565b9150509250929050565b61349381613231565b82525050565b5f79ffffffffffffffffffffffffffffffffffffffffffffffffffff82169050919050565b6134c781613499565b82525050565b604082015f8201516134e15f85018261348a565b5060208201516134f460208501826134be565b50505050565b5f60408201905061350d5f8301846134cd565b92915050565b7f4e487b71000000000000000000000000000000000000000000000000000000005f52602260045260245ffd5b5f600282049050600182168061355757607f821691505b60208210810361356a57613569613513565b5b50919050565b7f4e487b71000000000000000000000000000000000000000000000000000000005f52601160045260245ffd5b5f6135a782612e88565b91506135b283612e88565b92508282019050808211156135ca576135c9613570565b5b92915050565b7f4d617820737570706c79206578636565646564000000000000000000000000005f82015250565b5f613604601383612da4565b915061360f826135d0565b602082019050919050565b5f6020820190508181035f830152613631816135f8565b9050919050565b7f4e487b71000000000000000000000000000000000000000000000000000000005f52604160045260245ffd5b5f6080820190506136785f830187612fe1565b613685602083018661305f565b6136926040830185612f2c565b61369f6060830184612f2c565b95945050505050565b5f60c0820190506136bb5f830189612fe1565b6136c8602083018861305f565b6136d5604083018761305f565b6136e26060830186612f2c565b6136ef6080830185612f2c565b6136fc60a0830184612f2c565b979650505050505050565b5f60408201905061371a5f83018561305f565b613727602083018461305f565b9392505050565b5f61373882613499565b915061374383613499565b9250828201905079ffffffffffffffffffffffffffffffffffffffffffffffffffff81111561377557613774613570565b5b92915050565b5f61378582613499565b915061379083613499565b9250828203905079ffffffffffffffffffffffffffffffffffffffffffffffffffff8111156137c2576137c1613570565b5b92915050565b5f6060820190506137db5f83018661305f565b6137e86020830185612f2c565b6137f56040830184612f2c565b949350505050565b5f6040820190506138105f830185612f2c565b61381d6020830184613242565b9392505050565b5f61382e82612e88565b915061383983612e88565b925082820390508181111561385157613850613570565b5b92915050565b5f60408201905061386a5f83018561305f565b6138776020830184612f2c565b9392505050565b5f60a0820190506138915f830188612fe1565b61389e6020830187612fe1565b6138ab6040830186612fe1565b6138b86060830185612f2c565b6138c5608083018461305f565b9695505050505050565b5f819050919050565b5f819050919050565b5f6138fb6138f66138f1846138cf565b6138d8565b612fa4565b9050919050565b61390b816138e1565b82525050565b5f6040820190506139245f830185613902565b6139316020830184612f2c565b9392505050565b7f4e487b71000000000000000000000000000000000000000000000000000000005f52601260045260245ffd5b5f6040820190506139785f830185612f2c565b6139856020830184612f2c565b9392505050565b5f819050919050565b5f6139af6139aa6139a58461398c565b6138d8565b612fa4565b9050919050565b6139bf81613995565b82525050565b5f6040820190506139d85f8301856139b6565b6139e56020830184612f2c565b9392505050565b5f6080820190506139ff5f830187612fe1565b613a0c6020830186612fb0565b613a196040830185612fe1565b613a266060830184612fe1565b95945050505050565b7f4e487b71000000000000000000000000000000000000000000000000000000005f52602160045260245ffd5b7f4e487b71000000000000000000000000000000000000000000000000000000005f52603260045260245ffd5b5f613a9382612e88565b9150613a9e83612e88565b925082613aae57613aad613938565b5b828204905092915050565b5f819050919050565b5f613adc613ad7613ad284613ab9565b6138d8565b612fa4565b9050919050565b613aec81613ac2565b82525050565b5f604082019050613b055f830185613ae3565b613b126020830184612f2c565b939250505056fea2646970667358221220ce3ef5d2a68b4b24fdc7a8f7790ce3bf34ed028ad95a6262aad9c8d85e51efe664736f6c634300081e0033","linkReferences":{}},"methodIdentifiers":{"CLOCK_MODE()":"4bf5d7e9","DOMAIN_SEPARATOR()":"3644e515","INITIAL_SUPPLY()":"2ff2e9dc","MAX_SUPPLY()":"32cb6b0c","allowance(address,address)":"dd62ed3e","approve(address,uint256)":"095ea7b3","balanceOf(address)":"70a08231","burn(uint256)":"42966c68","checkpoints(address,uint32)":"f1127ed8","clock()":"91ddadf4","decimals()":"313ce567","delegate(address)":"5c19a95c","delegateBySig(address,uint256,uint256,uint8,bytes32,bytes32)":"c3cda520","delegates(address)":"587cde1e","eip712Domain()":"84b0196e","getPastTotalSupply(uint256)":"8e539e8c","getPastVotes(address,uint256)":"3a46b1a8","getVotes(address)":"9ab24eb0","mint(address,uint256)":"40c10f19","name()":"06fdde03","nonces(address)":"7ecebe00","numCheckpoints(address)":"6fcfff45","owner()":"8da5cb5b","permit(address,address,uint256,uint256,uint8,bytes32,bytes32)":"d505accf","renounceOwnership()":"715018a6","symbol()":"95d89b41","totalSupply()":"18160ddd","transfer(address,uint256)":"a9059cbb","transferFrom(address,address,uint256)":"23b872dd","transferOwnership(address)":"f2fde38b"},"id":1}