{"abi":[{"type":"constructor","inputs":[{"name":"_contentRegistry","type":"address","internalType":"address"},{"name":"_stakingVault","type":"address","internalType":"address"}],"stateMutability":"nonpayable"},{"type":"function","name":"ADMIN_ROLE","inputs":[],"outputs":[{"name":"","type":"bytes32","internalType":"bytes32"}],"stateMutability":"view"},{"type":"function","name":"COMMIT_PHASE_DURATION","inputs":[],"outputs":[{"name":"","type":"uint256","internalType":"uint256"}],"stateMutability":"view"},{"type":"function","name":"DEFAULT_ADMIN_ROLE","inputs":[],"outputs":[{"name":"","type":"bytes32","internalType":"bytes32"}],"stateMutability":"view"},{"type":"function","name":"JURY_SIZE","inputs":[],"outputs":[{"name":"","type":"uint256","internalType":"uint256"}],"stateMutability":"view"},{"type":"function","name":"MIN_JURORS_FOR_VERDICT","inputs":[],"outputs":[{"name":"","type":"uint256","internalType":"uint256"}],"stateMutability":"view"},{"type":"function","name":"REVEAL_PHASE_DURATION","inputs":[],"outputs":[{"name":"","type":"uint256","internalType":"uint256"}],"stateMutability":"view"},{"type":"function","name":"commitVote","inputs":[{"name":"disputeId","type":"uint256","internalType":"uint256"},{"name":"commitment","type":"bytes32","internalType":"bytes32"}],"outputs":[],"stateMutability":"nonpayable"},{"type":"function","name":"contentRegistry","inputs":[],"outputs":[{"name":"","type":"address","internalType":"contract IContentRegistry"}],"stateMutability":"view"},{"type":"function","name":"disputes","inputs":[{"name":"","type":"uint256","internalType":"uint256"}],"outputs":[{"name":"contentId","type":"uint256","internalType":"uint256"},{"name":"challenger","type":"address","internalType":"address"},{"name":"challengerBond","type":"uint256","internalType":"uint256"},{"name":"status","type":"uint8","internalType":"enum ModerationGame.DisputeStatus"},{"name":"commitDeadline","type":"uint256","internalType":"uint256"},{"name":"revealDeadline","type":"uint256","internalType":"uint256"},{"name":"guiltyVotes","type":"uint256","internalType":"uint256"},{"name":"notGuiltyVotes","type":"uint256","internalType":"uint256"},{"name":"evidenceRoot","type":"bytes32","internalType":"bytes32"}],"stateMutability":"view"},{"type":"function","name":"eligibleJurors","inputs":[{"name":"","type":"uint256","internalType":"uint256"}],"outputs":[{"name":"","type":"address","internalType":"address"}],"stateMutability":"view"},{"type":"function","name":"finalizeDispute","inputs":[{"name":"disputeId","type":"uint256","internalType":"uint256"}],"outputs":[],"stateMutability":"nonpayable"},{"type":"function","name":"getDispute","inputs":[{"name":"disputeId","type":"uint256","internalType":"uint256"}],"outputs":[{"name":"contentId","type":"uint256","internalType":"uint256"},{"name":"challenger","type":"address","internalType":"address"},{"name":"status","type":"uint8","internalType":"enum ModerationGame.DisputeStatus"},{"name":"guiltyVotes","type":"uint256","internalType":"uint256"},{"name":"notGuiltyVotes","type":"uint256","internalType":"uint256"},{"name":"selectedJurors","type":"address[]","internalType":"address[]"}],"stateMutability":"view"},{"type":"function","name":"getJurorVote","inputs":[{"name":"disputeId","type":"uint256","internalType":"uint256"},{"name":"juror","type":"address","internalType":"address"}],"outputs":[{"name":"hasCommitted","type":"bool","internalType":"bool"},{"name":"hasRevealed","type":"bool","internalType":"bool"},{"name":"vote","type":"bool","internalType":"bool"}],"stateMutability":"view"},{"type":"function","name":"getRoleAdmin","inputs":[{"name":"role","type":"bytes32","internalType":"bytes32"}],"outputs":[{"name":"","type":"bytes32","internalType":"bytes32"}],"stateMutability":"view"},{"type":"function","name":"grantRole","inputs":[{"name":"role","type":"bytes32","internalType":"bytes32"},{"name":"account","type":"address","internalType":"address"}],"outputs":[],"stateMutability":"nonpayable"},{"type":"function","name":"hasRole","inputs":[{"name":"role","type":"bytes32","internalType":"bytes32"},{"name":"account","type":"address","internalType":"address"}],"outputs":[{"name":"","type":"bool","internalType":"bool"}],"stateMutability":"view"},{"type":"function","name":"initializeDispute","inputs":[{"name":"contentId","type":"uint256","internalType":"uint256"},{"name":"challenger","type":"address","internalType":"address"},{"name":"challengerBond","type":"uint256","internalType":"uint256"}],"outputs":[{"name":"disputeId","type":"uint256","internalType":"uint256"}],"stateMutability":"nonpayable"},{"type":"function","name":"jurorDisputes","inputs":[{"name":"","type":"address","internalType":"address"},{"name":"","type":"uint256","internalType":"uint256"}],"outputs":[{"name":"","type":"uint256","internalType":"uint256"}],"stateMutability":"view"},{"type":"function","name":"jurorVotes","inputs":[{"name":"","type":"uint256","internalType":"uint256"},{"name":"","type":"address","internalType":"address"}],"outputs":[{"name":"commitment","type":"bytes32","internalType":"bytes32"},{"name":"revealed","type":"bool","internalType":"bool"},{"name":"vote","type":"bool","internalType":"bool"}],"stateMutability":"view"},{"type":"function","name":"nextDisputeId","inputs":[],"outputs":[{"name":"","type":"uint256","internalType":"uint256"}],"stateMutability":"view"},{"type":"function","name":"registerAsJuror","inputs":[],"outputs":[],"stateMutability":"nonpayable"},{"type":"function","name":"renounceRole","inputs":[{"name":"role","type":"bytes32","internalType":"bytes32"},{"name":"callerConfirmation","type":"address","internalType":"address"}],"outputs":[],"stateMutability":"nonpayable"},{"type":"function","name":"reputationSBT","inputs":[],"outputs":[{"name":"","type":"address","internalType":"contract IReputationSBT"}],"stateMutability":"view"},{"type":"function","name":"revealVote","inputs":[{"name":"disputeId","type":"uint256","internalType":"uint256"},{"name":"vote","type":"bool","internalType":"bool"},{"name":"salt","type":"bytes32","internalType":"bytes32"}],"outputs":[],"stateMutability":"nonpayable"},{"type":"function","name":"revokeRole","inputs":[{"name":"role","type":"bytes32","internalType":"bytes32"},{"name":"account","type":"address","internalType":"address"}],"outputs":[],"stateMutability":"nonpayable"},{"type":"function","name":"setReputationSBT","inputs":[{"name":"_reputationSBT","type":"address","internalType":"address"}],"outputs":[],"stateMutability":"nonpayable"},{"type":"function","name":"stakingVault","inputs":[],"outputs":[{"name":"","type":"address","internalType":"contract IStakingVault"}],"stateMutability":"view"},{"type":"function","name":"submitEvidence","inputs":[{"name":"disputeId","type":"uint256","internalType":"uint256"},{"name":"evidenceRoot","type":"bytes32","internalType":"bytes32"}],"outputs":[],"stateMutability":"nonpayable"},{"type":"function","name":"supportsInterface","inputs":[{"name":"interfaceId","type":"bytes4","internalType":"bytes4"}],"outputs":[{"name":"","type":"bool","internalType":"bool"}],"stateMutability":"view"},{"type":"event","name":"DisputeInitialized","inputs":[{"name":"disputeId","type":"uint256","indexed":true,"internalType":"uint256"},{"name":"contentId","type":"uint256","indexed":true,"internalType":"uint256"},{"name":"challenger","type":"address","indexed":true,"internalType":"address"}],"anonymous":false},{"type":"event","name":"DisputeResolved","inputs":[{"name":"disputeId","type":"uint256","indexed":true,"internalType":"uint256"},{"name":"guilty","type":"bool","indexed":false,"internalType":"bool"},{"name":"guiltyVotes","type":"uint256","indexed":false,"internalType":"uint256"},{"name":"notGuiltyVotes","type":"uint256","indexed":false,"internalType":"uint256"}],"anonymous":false},{"type":"event","name":"JurySelected","inputs":[{"name":"disputeId","type":"uint256","indexed":true,"internalType":"uint256"},{"name":"jurors","type":"address[]","indexed":false,"internalType":"address[]"}],"anonymous":false},{"type":"event","name":"RoleAdminChanged","inputs":[{"name":"role","type":"bytes32","indexed":true,"internalType":"bytes32"},{"name":"previousAdminRole","type":"bytes32","indexed":true,"internalType":"bytes32"},{"name":"newAdminRole","type":"bytes32","indexed":true,"internalType":"bytes32"}],"anonymous":false},{"type":"event","name":"RoleGranted","inputs":[{"name":"role","type":"bytes32","indexed":true,"internalType":"bytes32"},{"name":"account","type":"address","indexed":true,"internalType":"address"},{"name":"sender","type":"address","indexed":true,"internalType":"address"}],"anonymous":false},{"type":"event","name":"RoleRevoked","inputs":[{"name":"role","type":"bytes32","indexed":true,"internalType":"bytes32"},{"name":"account","type":"address","indexed":true,"internalType":"address"},{"name":"sender","type":"address","indexed":true,"internalType":"address"}],"anonymous":false},{"type":"event","name":"VoteCommitted","inputs":[{"name":"disputeId","type":"uint256","indexed":true,"internalType":"uint256"},{"name":"juror","type":"address","indexed":true,"internalType":"address"}],"anonymous":false},{"type":"event","name":"VoteRevealed","inputs":[{"name":"disputeId","type":"uint256","indexed":true,"internalType":"uint256"},{"name":"juror","type":"address","indexed":true,"internalType":"address"},{"name":"vote","type":"bool","indexed":false,"internalType":"bool"}],"anonymous":false},{"type":"error","name":"AccessControlBadConfirmation","inputs":[]},{"type":"error","name":"AccessControlUnauthorizedAccount","inputs":[{"name":"account","type":"address","internalType":"address"},{"name":"neededRole","type":"bytes32","internalType":"bytes32"}]},{"type":"error","name":"ReentrancyGuardReentrantCall","inputs":[]}],"bytecode":{"object":"0x608060405234801561000f575f5ffd5b506040516139ba3803806139ba833981810160405281019061003191906102c0565b600180819055508160025f6101000a81548173ffffffffffffffffffffffffffffffffffffffff021916908373ffffffffffffffffffffffffffffffffffffffff1602179055508060035f6101000a81548173ffffffffffffffffffffffffffffffffffffffff021916908373ffffffffffffffffffffffffffffffffffffffff1602179055506100ca5f5f1b3361010360201b60201c565b506100fb7fa49807205ce4d355092ef5a8a18f56e8913cf4a201fbe287825b095693c217753361010360201b60201c565b5050506102fe565b5f61011483836101f860201b60201c565b6101ee5760015f5f8581526020019081526020015f205f015f8473ffffffffffffffffffffffffffffffffffffffff1673ffffffffffffffffffffffffffffffffffffffff1681526020019081526020015f205f6101000a81548160ff02191690831515021790555061018b61025b60201b60201c565b73ffffffffffffffffffffffffffffffffffffffff168273ffffffffffffffffffffffffffffffffffffffff16847f2f8788117e7eff1d82e926ec794901d17c78024a50270940304540a733656f0d60405160405180910390a4600190506101f2565b5f90505b92915050565b5f5f5f8481526020019081526020015f205f015f8373ffffffffffffffffffffffffffffffffffffffff1673ffffffffffffffffffffffffffffffffffffffff1681526020019081526020015f205f9054906101000a900460ff16905092915050565b5f33905090565b5f5ffd5b5f73ffffffffffffffffffffffffffffffffffffffff82169050919050565b5f61028f82610266565b9050919050565b61029f81610285565b81146102a9575f5ffd5b50565b5f815190506102ba81610296565b92915050565b5f5f604083850312156102d6576102d5610262565b5b5f6102e3858286016102ac565b92505060206102f4858286016102ac565b9150509250929050565b6136af8061030b5f395ff3fe608060405234801561000f575f5ffd5b50600436106101cd575f3560e01c806371929ad5116101025780639da69180116100a0578063d547741f1161006f578063d547741f1461053b578063e3a96cbd14610557578063f6de77791461058c578063facc092f146105bc576101cd565b80639da69180146104c5578063a217fddf146104e1578063afaec527146104ff578063c988fb261461051d576101cd565b80638bdcbed8116100dc5780638bdcbed81461042b578063912da4db1461045b57806391d1485414610477578063923e3379146104a7576101cd565b806371929ad5146103e557806375b238fc146103ef57806381cef3bd1461040d576101cd565b80632f2ff15d1161016f578063504a3b6911610149578063504a3b691461032f578063564a565d1461035f57806356989a831461039757806366fc1ff2146103b3576101cd565b80632f2ff15d146102c557806336568abe146102e15780633af7f4f7146102fd576101cd565b8063224d2baa116101ab578063224d2baa1461023d578063248a9ca31461025957806324e7964a1461028957806327a4f2bb146102a7576101cd565b806301ffc9a7146101d15780630d3c15cc146102015780630db399341461021f575b5f5ffd5b6101eb60048036038101906101e691906124c3565b6105d8565b6040516101f89190612508565b60405180910390f35b610209610651565b6040516102169190612539565b60405180910390f35b610227610658565b6040516102349190612539565b60405180910390f35b610257600480360381019061025291906125ac565b61065e565b005b610273600480360381019061026e919061260a565b6106cc565b6040516102809190612644565b60405180910390f35b6102916106e8565b60405161029e91906126b8565b60405180910390f35b6102af61070d565b6040516102bc91906126f1565b60405180910390f35b6102df60048036038101906102da919061270a565b610732565b005b6102fb60048036038101906102f6919061270a565b610754565b005b61031760048036038101906103129190612772565b6107cf565b604051610326939291906127b0565b60405180910390f35b610349600480360381019061034491906127e5565b61088b565b604051610356919061281f565b60405180910390f35b610379600480360381019061037491906127e5565b6108c6565b60405161038e999897969594939291906128ab565b60405180910390f35b6103b160048036038101906103ac91906127e5565b61093b565b005b6103cd60048036038101906103c89190612772565b610a0f565b6040516103dc93929190612936565b60405180910390f35b6103ed610a59565b005b6103f7610c5c565b6040516104049190612644565b60405180910390f35b610415610c80565b6040516104229190612539565b60405180910390f35b6104456004803603810190610440919061296b565b610c85565b6040516104529190612539565b60405180910390f35b610475600480360381019061047091906129a9565b610cb0565b005b610491600480360381019061048c919061270a565b610dda565b60405161049e9190612508565b60405180910390f35b6104af610e3d565b6040516104bc9190612a07565b60405180910390f35b6104df60048036038101906104da91906129a9565b610e62565b005b6104e96110d1565b6040516104f69190612644565b60405180910390f35b6105076110d7565b6040516105149190612539565b60405180910390f35b6105256110dc565b6040516105329190612539565b60405180910390f35b6105556004803603810190610550919061270a565b6110e3565b005b610571600480360381019061056c91906127e5565b611105565b60405161058396959493929190612ad7565b60405180910390f35b6105a660048036038101906105a19190612b3d565b6112bf565b6040516105b39190612539565b60405180910390f35b6105d660048036038101906105d19190612bb7565b611615565b005b5f7f7965db0b000000000000000000000000000000000000000000000000000000007bffffffffffffffffffffffffffffffffffffffffffffffffffffffff1916827bffffffffffffffffffffffffffffffffffffffffffffffffffffffff1916148061064a5750610649826119a9565b5b9050919050565b6202a30081565b60085481565b7fa49807205ce4d355092ef5a8a18f56e8913cf4a201fbe287825b095693c2177561068881611a12565b8160045f6101000a81548173ffffffffffffffffffffffffffffffffffffffff021916908373ffffffffffffffffffffffffffffffffffffffff1602179055505050565b5f5f5f8381526020019081526020015f20600101549050919050565b60035f9054906101000a900473ffffffffffffffffffffffffffffffffffffffff1681565b60025f9054906101000a900473ffffffffffffffffffffffffffffffffffffffff1681565b61073b826106cc565b61074481611a12565b61074e8383611a26565b50505050565b61075c611b0f565b73ffffffffffffffffffffffffffffffffffffffff168173ffffffffffffffffffffffffffffffffffffffff16146107c0576040517f6697b23200000000000000000000000000000000000000000000000000000000815260040160405180910390fd5b6107ca8282611b16565b505050565b5f5f5f5f60065f8781526020019081526020015f205f8673ffffffffffffffffffffffffffffffffffffffff1673ffffffffffffffffffffffffffffffffffffffff1681526020019081526020015f206040518060600160405290815f8201548152602001600182015f9054906101000a900460ff161515151581526020016001820160019054906101000a900460ff16151515158152505090505f5f1b815f0151141581602001518260400151935093509350509250925092565b6009818154811061089a575f80fd5b905f5260205f20015f915054906101000a900473ffffffffffffffffffffffffffffffffffffffff1681565b6005602052805f5260405f205f91509050805f015490806001015f9054906101000a900473ffffffffffffffffffffffffffffffffffffffff1690806002015490806003015f9054906101000a900460ff16908060040154908060050154908060070154908060080154908060090154905089565b610943611bff565b5f60055f8381526020019081526020015f2090506001600481111561096b5761096a612838565b5b816003015f9054906101000a900460ff16600481111561098e5761098d612838565b5b14801561099e5750806004015442115b156109ad576109ac82611c45565b5b600260048111156109c1576109c0612838565b5b816003015f9054906101000a900460ff1660048111156109e4576109e3612838565b5b1480156109f45750806005015442115b15610a0357610a0282611c89565b5b50610a0c611f33565b50565b6006602052815f5260405f20602052805f5260405f205f9150915050805f015490806001015f9054906101000a900460ff16908060010160019054906101000a900460ff16905083565b60035f9054906101000a900473ffffffffffffffffffffffffffffffffffffffff1673ffffffffffffffffffffffffffffffffffffffff16637da807a6336040518263ffffffff1660e01b8152600401610ab3919061281f565b602060405180830381865afa158015610ace573d5f5f3e3d5ffd5b505050506040513d601f19601f82011682018060405250810190610af29190612c1b565b610b31576040517f08c379a0000000000000000000000000000000000000000000000000000000008152600401610b2890612ca0565b60405180910390fd5b5f5f90505b600980549050811015610bf9573373ffffffffffffffffffffffffffffffffffffffff1660098281548110610b6e57610b6d612cbe565b5b905f5260205f20015f9054906101000a900473ffffffffffffffffffffffffffffffffffffffff1673ffffffffffffffffffffffffffffffffffffffff1603610bec576040517f08c379a0000000000000000000000000000000000000000000000000000000008152600401610be390612d35565b60405180910390fd5b8080600101915050610b36565b50600933908060018154018082558091505060019003905f5260205f20015f9091909190916101000a81548173ffffffffffffffffffffffffffffffffffffffff021916908373ffffffffffffffffffffffffffffffffffffffff160217905550565b7fa49807205ce4d355092ef5a8a18f56e8913cf4a201fbe287825b095693c2177581565b600581565b6007602052815f5260405f208181548110610c9e575f80fd5b905f5260205f20015f91509150505481565b5f60055f8481526020019081526020015f209050806001015f9054906101000a900473ffffffffffffffffffffffffffffffffffffffff1673ffffffffffffffffffffffffffffffffffffffff163373ffffffffffffffffffffffffffffffffffffffff1614610d55576040517f08c379a0000000000000000000000000000000000000000000000000000000008152600401610d4c90612dc3565b60405180910390fd5b60016004811115610d6957610d68612838565b5b816003015f9054906101000a900460ff166004811115610d8c57610d8b612838565b5b14610dcc576040517f08c379a0000000000000000000000000000000000000000000000000000000008152600401610dc390612e51565b60405180910390fd5b818160090181905550505050565b5f5f5f8481526020019081526020015f205f015f8373ffffffffffffffffffffffffffffffffffffffff1673ffffffffffffffffffffffffffffffffffffffff1681526020019081526020015f205f9054906101000a900460ff16905092915050565b60045f9054906101000a900473ffffffffffffffffffffffffffffffffffffffff1681565b610e6a611bff565b5f60055f8481526020019081526020015f20905060016004811115610e9257610e91612838565b5b816003015f9054906101000a900460ff166004811115610eb557610eb4612838565b5b14610ef5576040517f08c379a0000000000000000000000000000000000000000000000000000000008152600401610eec90612eb9565b60405180910390fd5b8060040154421115610f3c576040517f08c379a0000000000000000000000000000000000000000000000000000000008152600401610f3390612f21565b60405180910390fd5b610f468333611f3c565b610f85576040517f08c379a0000000000000000000000000000000000000000000000000000000008152600401610f7c90612f89565b60405180910390fd5b5f5f1b60065f8581526020019081526020015f205f3373ffffffffffffffffffffffffffffffffffffffff1673ffffffffffffffffffffffffffffffffffffffff1681526020019081526020015f205f015414611017576040517f08c379a000000000000000000000000000000000000000000000000000000000815260040161100e90612ff1565b60405180910390fd5b8160065f8581526020019081526020015f205f3373ffffffffffffffffffffffffffffffffffffffff1673ffffffffffffffffffffffffffffffffffffffff1681526020019081526020015f205f01819055503373ffffffffffffffffffffffffffffffffffffffff16837f3834a2c8ea101e1468b529270d35fbff0a12de32a5a7e5729b8b4dad6fb32c0160405160405180910390a380600401544211156110c4576110c383611c45565b5b506110cd611f33565b5050565b5f5f1b81565b600781565b6201518081565b6110ec826106cc565b6110f581611a12565b6110ff8383611b16565b50505050565b5f5f5f5f5f60605f60055f8981526020019081526020015f20604051806101400160405290815f8201548152602001600182015f9054906101000a900473ffffffffffffffffffffffffffffffffffffffff1673ffffffffffffffffffffffffffffffffffffffff1673ffffffffffffffffffffffffffffffffffffffff16815260200160028201548152602001600382015f9054906101000a900460ff1660048111156111b6576111b5612838565b5b60048111156111c8576111c7612838565b5b815260200160048201548152602001600582015481526020016006820180548060200260200160405190810160405280929190818152602001828054801561126257602002820191905f5260205f20905b815f9054906101000a900473ffffffffffffffffffffffffffffffffffffffff1673ffffffffffffffffffffffffffffffffffffffff1681526020019060010190808311611219575b5050505050815260200160078201548152602001600882015481526020016009820154815250509050805f0151816020015182606001518360e001518461010001518560c001519650965096509650965096505091939550919395565b5f60025f9054906101000a900473ffffffffffffffffffffffffffffffffffffffff1673ffffffffffffffffffffffffffffffffffffffff163373ffffffffffffffffffffffffffffffffffffffff161461134f576040517f08c379a000000000000000000000000000000000000000000000000000000000815260040161134690613059565b60405180910390fd5b60085f815480929190611361906130a4565b9190505590505f611370612055565b90506040518061014001604052808681526020018573ffffffffffffffffffffffffffffffffffffffff168152602001848152602001600160048111156113ba576113b9612838565b5b81526020016202a300426113ce91906130eb565b8152602001620151806202a300426113e691906130eb565b6113f091906130eb565b81526020018281526020015f81526020015f81526020015f5f1b81525060055f8481526020019081526020015f205f820151815f01556020820151816001015f6101000a81548173ffffffffffffffffffffffffffffffffffffffff021916908373ffffffffffffffffffffffffffffffffffffffff160217905550604082015181600201556060820151816003015f6101000a81548160ff021916908360048111156114a05761149f612838565b5b02179055506080820151816004015560a0820151816005015560c08201518160060190805190602001906114d59291906123c8565b5060e08201518160070155610100820151816008015561012082015181600901559050505f5f90505b815181101561158f5760075f83838151811061151d5761151c612cbe565b5b602002602001015173ffffffffffffffffffffffffffffffffffffffff1673ffffffffffffffffffffffffffffffffffffffff1681526020019081526020015f2083908060018154018082558091505060019003905f5260205f20015f909190919091505580806001019150506114fe565b508373ffffffffffffffffffffffffffffffffffffffff1685837f84ac3ee4badbb81ee310ce56d5e58cb494507bbcdd6e8a80d94cbbf5d66d7fa160405160405180910390a4817fe9980bc09166c44c23f41cbec4892a43fa4b0e1087f2af818de1c692489f0bba82604051611605919061311e565b60405180910390a2509392505050565b61161d611bff565b5f60055f8581526020019081526020015f2090506001600481111561164557611644612838565b5b816003015f9054906101000a900460ff16600481111561166857611667612838565b5b1480156116785750806004015442115b156116875761168684611c45565b5b6002600481111561169b5761169a612838565b5b816003015f9054906101000a900460ff1660048111156116be576116bd612838565b5b146116fe576040517f08c379a00000000000000000000000000000000000000000000000000000000081526004016116f590613188565b60405180910390fd5b8060050154421115611745576040517f08c379a000000000000000000000000000000000000000000000000000000000815260040161173c906131f0565b60405180910390fd5b5f60065f8681526020019081526020015f205f3373ffffffffffffffffffffffffffffffffffffffff1673ffffffffffffffffffffffffffffffffffffffff1681526020019081526020015f2090505f5f1b815f0154036117db576040517f08c379a00000000000000000000000000000000000000000000000000000000081526004016117d290613258565b60405180910390fd5b806001015f9054906101000a900460ff161561182c576040517f08c379a0000000000000000000000000000000000000000000000000000000008152600401611823906132c0565b60405180910390fd5b5f84843360405160200161184293929190613388565b604051602081830303815290604052805190602001209050815f0154811461189f576040517f08c379a00000000000000000000000000000000000000000000000000000000081526004016118969061340e565b60405180910390fd5b6001826001015f6101000a81548160ff021916908315150217905550848260010160016101000a81548160ff02191690831515021790555084156118fb57826007015f8154809291906118f1906130a4565b9190505550611915565b826008015f81548092919061190f906130a4565b91905055505b3373ffffffffffffffffffffffffffffffffffffffff16867f943b1e1e6ea36d3a013c9f482eb56e6fec8904129c7ed1869bcfe1f04727cd4c8760405161195c9190612508565b60405180910390a3826005015442118061198a575060058360080154846007015461198791906130eb565b10155b156119995761199886611c89565b5b5050506119a4611f33565b505050565b5f7f01ffc9a7000000000000000000000000000000000000000000000000000000007bffffffffffffffffffffffffffffffffffffffffffffffffffffffff1916827bffffffffffffffffffffffffffffffffffffffffffffffffffffffff1916149050919050565b611a2381611a1e611b0f565b612377565b50565b5f611a318383610dda565b611b055760015f5f8581526020019081526020015f205f015f8473ffffffffffffffffffffffffffffffffffffffff1673ffffffffffffffffffffffffffffffffffffffff1681526020019081526020015f205f6101000a81548160ff021916908315150217905550611aa2611b0f565b73ffffffffffffffffffffffffffffffffffffffff168273ffffffffffffffffffffffffffffffffffffffff16847f2f8788117e7eff1d82e926ec794901d17c78024a50270940304540a733656f0d60405160405180910390a460019050611b09565b5f90505b92915050565b5f33905090565b5f611b218383610dda565b15611bf5575f5f5f8581526020019081526020015f205f015f8473ffffffffffffffffffffffffffffffffffffffff1673ffffffffffffffffffffffffffffffffffffffff1681526020019081526020015f205f6101000a81548160ff021916908315150217905550611b92611b0f565b73ffffffffffffffffffffffffffffffffffffffff168273ffffffffffffffffffffffffffffffffffffffff16847ff6391f5c32d9c69d2a47ea670b442974b53935d1edc7fd64eb21e047a839171b60405160405180910390a460019050611bf9565b5f90505b92915050565b600260015403611c3b576040517f3ee5aeb500000000000000000000000000000000000000000000000000000000815260040160405180910390fd5b6002600181905550565b5f60055f8381526020019081526020015f2090506002816003015f6101000a81548160ff02191690836004811115611c8057611c7f612838565b5b02179055505050565b5f60055f8381526020019081526020015f20905060026004811115611cb157611cb0612838565b5b816003015f9054906101000a900460ff166004811115611cd457611cd3612838565b5b14611d14576040517f08c379a0000000000000000000000000000000000000000000000000000000008152600401611d0b90613188565b60405180910390fd5b6003816003015f6101000a81548160ff02191690836004811115611d3b57611d3a612838565b5b02179055505f81600801548260070154611d5591906130eb565b90506005811015611e375760025f9054906101000a900473ffffffffffffffffffffffffffffffffffffffff1673ffffffffffffffffffffffffffffffffffffffff1663a8fc138c835f01545f5f6040518463ffffffff1660e01b8152600401611dc193929190613465565b5f604051808303815f87803b158015611dd8575f5ffd5b505af1158015611dea573d5f5f3e3d5ffd5b50505050827f88eecbbf54eddf9adbeb289ef36beac8d141af4274d667ccc04a40044df75b395f84600701548560080154604051611e2a9392919061349a565b60405180910390a2611f2e565b5f826008015483600701541190505f81611e51575f611e57565b83600201545b905060025f9054906101000a900473ffffffffffffffffffffffffffffffffffffffff1673ffffffffffffffffffffffffffffffffffffffff1663a8fc138c855f015484846040518463ffffffff1660e01b8152600401611eba939291906134cf565b5f604051808303815f87803b158015611ed1575f5ffd5b505af1158015611ee3573d5f5f3e3d5ffd5b50505050847f88eecbbf54eddf9adbeb289ef36beac8d141af4274d667ccc04a40044df75b398386600701548760080154604051611f239392919061349a565b60405180910390a250505b505050565b60018081905550565b5f5f60055f8581526020019081526020015f20600601805480602002602001604051908101604052809291908181526020018280548015611fcf57602002820191905f5260205f20905b815f9054906101000a900473ffffffffffffffffffffffffffffffffffffffff1673ffffffffffffffffffffffffffffffffffffffff1681526020019060010190808311611f86575b505050505090505f5f90505b8151811015612049578373ffffffffffffffffffffffffffffffffffffffff1682828151811061200e5761200d612cbe565b5b602002602001015173ffffffffffffffffffffffffffffffffffffffff160361203c5760019250505061204f565b8080600101915050611fdb565b505f9150505b92915050565b6060600760098054905010156120a0576040517f08c379a00000000000000000000000000000000000000000000000000000000081526004016120979061354e565b60405180910390fd5b5f600767ffffffffffffffff8111156120bc576120bb61356c565b5b6040519080825280602002602001820160405280156120ea5781602001602082028036833780820191505090505b5090505f600767ffffffffffffffff8111156121095761210861356c565b5b6040519080825280602002602001820160405280156121375781602001602082028036833780820191505090505b5090505f4244600854604051602001612152939291906135b9565b604051602081830303815290604052805190602001205f1c90505f5f90505b600781101561236d575f600980549050828461218d91906130eb565b6121979190613622565b90505f5f90505f5f90505b838110156121e157828682815181106121be576121bd612cbe565b5b6020026020010151036121d457600191506121e1565b80806001019150506121a2565b508061229557818584815181106121fb576121fa612cbe565b5b6020026020010181815250506009828154811061221b5761221a612cbe565b5b905f5260205f20015f9054906101000a900473ffffffffffffffffffffffffffffffffffffffff1686848151811061225657612255612cbe565b5b602002602001019073ffffffffffffffffffffffffffffffffffffffff16908173ffffffffffffffffffffffffffffffffffffffff168152505061235e565b6009805490506001836122a891906130eb565b6122b29190613622565b9150818584815181106122c8576122c7612cbe565b5b602002602001018181525050600982815481106122e8576122e7612cbe565b5b905f5260205f20015f9054906101000a900473ffffffffffffffffffffffffffffffffffffffff1686848151811061232357612322612cbe565b5b602002602001019073ffffffffffffffffffffffffffffffffffffffff16908173ffffffffffffffffffffffffffffffffffffffff16815250505b50508080600101915050612171565b5082935050505090565b6123818282610dda565b6123c45780826040517fe2517d3f0000000000000000000000000000000000000000000000000000000081526004016123bb929190613652565b60405180910390fd5b5050565b828054828255905f5260205f2090810192821561243e579160200282015b8281111561243d578251825f6101000a81548173ffffffffffffffffffffffffffffffffffffffff021916908373ffffffffffffffffffffffffffffffffffffffff160217905550916020019190600101906123e6565b5b50905061244b919061244f565b5090565b5b80821115612466575f815f905550600101612450565b5090565b5f5ffd5b5f7fffffffff0000000000000000000000000000000000000000000000000000000082169050919050565b6124a28161246e565b81146124ac575f5ffd5b50565b5f813590506124bd81612499565b92915050565b5f602082840312156124d8576124d761246a565b5b5f6124e5848285016124af565b91505092915050565b5f8115159050919050565b612502816124ee565b82525050565b5f60208201905061251b5f8301846124f9565b92915050565b5f819050919050565b61253381612521565b82525050565b5f60208201905061254c5f83018461252a565b92915050565b5f73ffffffffffffffffffffffffffffffffffffffff82169050919050565b5f61257b82612552565b9050919050565b61258b81612571565b8114612595575f5ffd5b50565b5f813590506125a681612582565b92915050565b5f602082840312156125c1576125c061246a565b5b5f6125ce84828501612598565b91505092915050565b5f819050919050565b6125e9816125d7565b81146125f3575f5ffd5b50565b5f81359050612604816125e0565b92915050565b5f6020828403121561261f5761261e61246a565b5b5f61262c848285016125f6565b91505092915050565b61263e816125d7565b82525050565b5f6020820190506126575f830184612635565b92915050565b5f819050919050565b5f61268061267b61267684612552565b61265d565b612552565b9050919050565b5f61269182612666565b9050919050565b5f6126a282612687565b9050919050565b6126b281612698565b82525050565b5f6020820190506126cb5f8301846126a9565b92915050565b5f6126db82612687565b9050919050565b6126eb816126d1565b82525050565b5f6020820190506127045f8301846126e2565b92915050565b5f5f604083850312156127205761271f61246a565b5b5f61272d858286016125f6565b925050602061273e85828601612598565b9150509250929050565b61275181612521565b811461275b575f5ffd5b50565b5f8135905061276c81612748565b92915050565b5f5f604083850312156127885761278761246a565b5b5f6127958582860161275e565b92505060206127a685828601612598565b9150509250929050565b5f6060820190506127c35f8301866124f9565b6127d060208301856124f9565b6127dd60408301846124f9565b949350505050565b5f602082840312156127fa576127f961246a565b5b5f6128078482850161275e565b91505092915050565b61281981612571565b82525050565b5f6020820190506128325f830184612810565b92915050565b7f4e487b71000000000000000000000000000000000000000000000000000000005f52602160045260245ffd5b6005811061287657612875612838565b5b50565b5f81905061288682612865565b919050565b5f61289582612879565b9050919050565b6128a58161288b565b82525050565b5f610120820190506128bf5f83018c61252a565b6128cc602083018b612810565b6128d9604083018a61252a565b6128e6606083018961289c565b6128f3608083018861252a565b61290060a083018761252a565b61290d60c083018661252a565b61291a60e083018561252a565b612928610100830184612635565b9a9950505050505050505050565b5f6060820190506129495f830186612635565b61295660208301856124f9565b61296360408301846124f9565b949350505050565b5f5f604083850312156129815761298061246a565b5b5f61298e85828601612598565b925050602061299f8582860161275e565b9150509250929050565b5f5f604083850312156129bf576129be61246a565b5b5f6129cc8582860161275e565b92505060206129dd858286016125f6565b9150509250929050565b5f6129f182612687565b9050919050565b612a01816129e7565b82525050565b5f602082019050612a1a5f8301846129f8565b92915050565b5f81519050919050565b5f82825260208201905092915050565b5f819050602082019050919050565b612a5281612571565b82525050565b5f612a638383612a49565b60208301905092915050565b5f602082019050919050565b5f612a8582612a20565b612a8f8185612a2a565b9350612a9a83612a3a565b805f5b83811015612aca578151612ab18882612a58565b9750612abc83612a6f565b925050600181019050612a9d565b5085935050505092915050565b5f60c082019050612aea5f83018961252a565b612af76020830188612810565b612b04604083018761289c565b612b11606083018661252a565b612b1e608083018561252a565b81810360a0830152612b308184612a7b565b9050979650505050505050565b5f5f5f60608486031215612b5457612b5361246a565b5b5f612b618682870161275e565b9350506020612b7286828701612598565b9250506040612b838682870161275e565b9150509250925092565b612b96816124ee565b8114612ba0575f5ffd5b50565b5f81359050612bb181612b8d565b92915050565b5f5f5f60608486031215612bce57612bcd61246a565b5b5f612bdb8682870161275e565b9350506020612bec86828701612ba3565b9250506040612bfd868287016125f6565b9150509250925092565b5f81519050612c1581612b8d565b92915050565b5f60208284031215612c3057612c2f61246a565b5b5f612c3d84828501612c07565b91505092915050565b5f82825260208201905092915050565b7f4e6f7420656c696769626c65207374616b6572000000000000000000000000005f82015250565b5f612c8a601383612c46565b9150612c9582612c56565b602082019050919050565b5f6020820190508181035f830152612cb781612c7e565b9050919050565b7f4e487b71000000000000000000000000000000000000000000000000000000005f52603260045260245ffd5b7f416c7265616479207265676973746572656400000000000000000000000000005f82015250565b5f612d1f601283612c46565b9150612d2a82612ceb565b602082019050919050565b5f6020820190508181035f830152612d4c81612d13565b9050919050565b7f4f6e6c79206368616c6c656e6765722063616e207375626d69742065766964655f8201527f6e63650000000000000000000000000000000000000000000000000000000000602082015250565b5f612dad602383612c46565b9150612db882612d53565b604082019050919050565b5f6020820190508181035f830152612dda81612da1565b9050919050565b7f43616e206f6e6c79207375626d697420647572696e6720636f6d6d69742070685f8201527f6173650000000000000000000000000000000000000000000000000000000000602082015250565b5f612e3b602383612c46565b9150612e4682612de1565b604082019050919050565b5f6020820190508181035f830152612e6881612e2f565b9050919050565b7f4e6f7420696e20636f6d6d6974207068617365000000000000000000000000005f82015250565b5f612ea3601383612c46565b9150612eae82612e6f565b602082019050919050565b5f6020820190508181035f830152612ed081612e97565b9050919050565b7f436f6d6d697420706861736520656e64656400000000000000000000000000005f82015250565b5f612f0b601283612c46565b9150612f1682612ed7565b602082019050919050565b5f6020820190508181035f830152612f3881612eff565b9050919050565b7f4e6f742073656c6563746564206a75726f7200000000000000000000000000005f82015250565b5f612f73601283612c46565b9150612f7e82612f3f565b602082019050919050565b5f6020820190508181035f830152612fa081612f67565b9050919050565b7f416c726561647920636f6d6d69747465640000000000000000000000000000005f82015250565b5f612fdb601183612c46565b9150612fe682612fa7565b602082019050919050565b5f6020820190508181035f83015261300881612fcf565b9050919050565b7f4f6e6c7920636f6e74656e7420726567697374727900000000000000000000005f82015250565b5f613043601583612c46565b915061304e8261300f565b602082019050919050565b5f6020820190508181035f83015261307081613037565b9050919050565b7f4e487b71000000000000000000000000000000000000000000000000000000005f52601160045260245ffd5b5f6130ae82612521565b91507fffffffffffffffffffffffffffffffffffffffffffffffffffffffffffffffff82036130e0576130df613077565b5b600182019050919050565b5f6130f582612521565b915061310083612521565b925082820190508082111561311857613117613077565b5b92915050565b5f6020820190508181035f8301526131368184612a7b565b905092915050565b7f4e6f7420696e2072657665616c207068617365000000000000000000000000005f82015250565b5f613172601383612c46565b915061317d8261313e565b602082019050919050565b5f6020820190508181035f83015261319f81613166565b9050919050565b7f52657665616c20706861736520656e64656400000000000000000000000000005f82015250565b5f6131da601283612c46565b91506131e5826131a6565b602082019050919050565b5f6020820190508181035f830152613207816131ce565b9050919050565b7f4e6f20636f6d6d69746d656e7420666f756e64000000000000000000000000005f82015250565b5f613242601383612c46565b915061324d8261320e565b602082019050919050565b5f6020820190508181035f83015261326f81613236565b9050919050565b7f416c72656164792072657665616c6564000000000000000000000000000000005f82015250565b5f6132aa601083612c46565b91506132b582613276565b602082019050919050565b5f6020820190508181035f8301526132d78161329e565b9050919050565b5f8160f81b9050919050565b5f6132f4826132de565b9050919050565b5f613305826132ea565b9050919050565b61331d613318826124ee565b6132fb565b82525050565b5f819050919050565b61333d613338826125d7565b613323565b82525050565b5f8160601b9050919050565b5f61335982613343565b9050919050565b5f61336a8261334f565b9050919050565b61338261337d82612571565b613360565b82525050565b5f613393828661330c565b6001820191506133a3828561332c565b6020820191506133b38284613371565b601482019150819050949350505050565b7f496e76616c69642072657665616c0000000000000000000000000000000000005f82015250565b5f6133f8600e83612c46565b9150613403826133c4565b602082019050919050565b5f6020820190508181035f830152613425816133ec565b9050919050565b5f819050919050565b5f61344f61344a6134458461342c565b61265d565b612521565b9050919050565b61345f81613435565b82525050565b5f6060820190506134785f83018661252a565b61348560208301856124f9565b6134926040830184613456565b949350505050565b5f6060820190506134ad5f8301866124f9565b6134ba602083018561252a565b6134c7604083018461252a565b949350505050565b5f6060820190506134e25f83018661252a565b6134ef60208301856124f9565b6134fc604083018461252a565b949350505050565b7f4e6f7420656e6f75676820656c696769626c65206a75726f72730000000000005f82015250565b5f613538601a83612c46565b915061354382613504565b602082019050919050565b5f6020820190508181035f8301526135658161352c565b9050919050565b7f4e487b71000000000000000000000000000000000000000000000000000000005f52604160045260245ffd5b5f819050919050565b6135b36135ae82612521565b613599565b82525050565b5f6135c482866135a2565b6020820191506135d482856135a2565b6020820191506135e482846135a2565b602082019150819050949350505050565b7f4e487b71000000000000000000000000000000000000000000000000000000005f52601260045260245ffd5b5f61362c82612521565b915061363783612521565b925082613647576136466135f5565b5b828206905092915050565b5f6040820190506136655f830185612810565b6136726020830184612635565b939250505056fea2646970667358221220782708111016fcbe484bb05babf0a9c6198344ebe98fa1c94792e7be866cbc9f64736f6c634300081e0033","linkReferences":{}},"methodIdentifiers":{"ADMIN_ROLE()":"75b238fc","COMMIT_PHASE_DURATION()":"0d3c15cc","DEFAULT_ADMIN_ROLE()":"a217fddf","JURY_SIZE()":"afaec527","MIN_JURORS_FOR_VERDICT()":"81cef3bd","REVEAL_PHASE_DURATION()":"c988fb26","commitVote(uint256,bytes32)":"9da69180","contentRegistry()":"27a4f2bb","disputes(uint256)":"564a565d","eligibleJurors(uint256)":"504a3b69","finalizeDispute(uint256)":"56989a83","getDispute(uint256)":"e3a96cbd","getJurorVote(uint256,address)":"3af7f4f7","getRoleAdmin(bytes32)":"248a9ca3","grantRole(bytes32,address)":"2f2ff15d","hasRole(bytes32,address)":"91d14854","initializeDispute(uint256,address,uint256)":"f6de7779","jurorDisputes(address,uint256)":"8bdcbed8","jurorVotes(uint256,address)":"66fc1ff2","nextDisputeId()":"0db39934","registerAsJuror()":"71929ad5","renounceRole(bytes32,address)":"36568abe","reputationSBT()":"923e3379","revealVote(uint256,bool,bytes32)":"facc092f","revokeRole(bytes32,address)":"d547741f","setReputationSBT(address)":"224d2baa","stakingVault()":"24e7964a","submitEvidence(uint256,bytes32)":"912da4db","supportsInterface(bytes4)":"01ffc9a7"},"id":2}