{"abi":[{"type":"constructor","inputs":[],"stateMutability":"nonpayable"},{"type":"function","name":"DEFAULT_ADMIN_ROLE","inputs":[],"outputs":[{"name":"","type":"bytes32","internalType":"bytes32"}],"stateMutability":"view"},{"type":"function","name":"MINTER_ROLE","inputs":[],"outputs":[{"name":"","type":"bytes32","internalType":"bytes32"}],"stateMutability":"view"},{"type":"function","name":"UPDATER_ROLE","inputs":[],"outputs":[{"name":"","type":"bytes32","internalType":"bytes32"}],"stateMutability":"view"},{"type":"function","name":"approve","inputs":[{"name":"to","type":"address","internalType":"address"},{"name":"tokenId","type":"uint256","internalType":"uint256"}],"outputs":[],"stateMutability":"nonpayable"},{"type":"function","name":"balanceOf","inputs":[{"name":"owner","type":"address","internalType":"address"}],"outputs":[{"name":"","type":"uint256","internalType":"uint256"}],"stateMutability":"view"},{"type":"function","name":"getApproved","inputs":[{"name":"tokenId","type":"uint256","internalType":"uint256"}],"outputs":[{"name":"","type":"address","internalType":"address"}],"stateMutability":"view"},{"type":"function","name":"getFullReputation","inputs":[{"name":"user","type":"address","internalType":"address"}],"outputs":[{"name":"","type":"tuple","internalType":"struct ReputationSBT.Reputation","components":[{"name":"karma","type":"uint256","internalType":"uint256"},{"name":"totalDisputes","type":"uint256","internalType":"uint256"},{"name":"disputesWon","type":"uint256","internalType":"uint256"},{"name":"disputesLost","type":"uint256","internalType":"uint256"},{"name":"contentCreated","type":"uint256","internalType":"uint256"},{"name":"successfulChallenges","type":"uint256","internalType":"uint256"},{"name":"failedChallenges","type":"uint256","internalType":"uint256"},{"name":"lastActivityAt","type":"uint256","internalType":"uint256"},{"name":"joinedAt","type":"uint256","internalType":"uint256"}]}],"stateMutability":"view"},{"type":"function","name":"getReputation","inputs":[{"name":"user","type":"address","internalType":"address"}],"outputs":[{"name":"karma","type":"uint256","internalType":"uint256"},{"name":"disputeRate","type":"uint256","internalType":"uint256"}],"stateMutability":"view"},{"type":"function","name":"getReputationMultiplier","inputs":[{"name":"user","type":"address","internalType":"address"}],"outputs":[{"name":"","type":"uint256","internalType":"uint256"}],"stateMutability":"view"},{"type":"function","name":"getRoleAdmin","inputs":[{"name":"role","type":"bytes32","internalType":"bytes32"}],"outputs":[{"name":"","type":"bytes32","internalType":"bytes32"}],"stateMutability":"view"},{"type":"function","name":"grantRole","inputs":[{"name":"role","type":"bytes32","internalType":"bytes32"},{"name":"account","type":"address","internalType":"address"}],"outputs":[],"stateMutability":"nonpayable"},{"type":"function","name":"hasRole","inputs":[{"name":"role","type":"bytes32","internalType":"bytes32"},{"name":"account","type":"address","internalType":"address"}],"outputs":[{"name":"","type":"bool","internalType":"bool"}],"stateMutability":"view"},{"type":"function","name":"hasSBT","inputs":[{"name":"","type":"address","internalType":"address"}],"outputs":[{"name":"","type":"bool","internalType":"bool"}],"stateMutability":"view"},{"type":"function","name":"isApprovedForAll","inputs":[{"name":"owner","type":"address","internalType":"address"},{"name":"operator","type":"address","internalType":"address"}],"outputs":[{"name":"","type":"bool","internalType":"bool"}],"stateMutability":"view"},{"type":"function","name":"isGoodStanding","inputs":[{"name":"user","type":"address","internalType":"address"}],"outputs":[{"name":"","type":"bool","internalType":"bool"}],"stateMutability":"view"},{"type":"function","name":"mint","inputs":[{"name":"to","type":"address","internalType":"address"}],"outputs":[{"name":"","type":"uint256","internalType":"uint256"}],"stateMutability":"nonpayable"},{"type":"function","name":"name","inputs":[],"outputs":[{"name":"","type":"string","internalType":"string"}],"stateMutability":"view"},{"type":"function","name":"ownerOf","inputs":[{"name":"tokenId","type":"uint256","internalType":"uint256"}],"outputs":[{"name":"","type":"address","internalType":"address"}],"stateMutability":"view"},{"type":"function","name":"recordChallenge","inputs":[{"name":"user","type":"address","internalType":"address"},{"name":"successful","type":"bool","internalType":"bool"}],"outputs":[],"stateMutability":"nonpayable"},{"type":"function","name":"recordContentCreated","inputs":[{"name":"user","type":"address","internalType":"address"}],"outputs":[],"stateMutability":"nonpayable"},{"type":"function","name":"recordDispute","inputs":[{"name":"user","type":"address","internalType":"address"},{"name":"won","type":"bool","internalType":"bool"}],"outputs":[],"stateMutability":"nonpayable"},{"type":"function","name":"renounceRole","inputs":[{"name":"role","type":"bytes32","internalType":"bytes32"},{"name":"callerConfirmation","type":"address","internalType":"address"}],"outputs":[],"stateMutability":"nonpayable"},{"type":"function","name":"reputations","inputs":[{"name":"","type":"uint256","internalType":"uint256"}],"outputs":[{"name":"karma","type":"uint256","internalType":"uint256"},{"name":"totalDisputes","type":"uint256","internalType":"uint256"},{"name":"disputesWon","type":"uint256","internalType":"uint256"},{"name":"disputesLost","type":"uint256","internalType":"uint256"},{"name":"contentCreated","type":"uint256","internalType":"uint256"},{"name":"successfulChallenges","type":"uint256","internalType":"uint256"},{"name":"failedChallenges","type":"uint256","internalType":"uint256"},{"name":"lastActivityAt","type":"uint256","internalType":"uint256"},{"name":"joinedAt","type":"uint256","internalType":"uint256"}],"stateMutability":"view"},{"type":"function","name":"revokeRole","inputs":[{"name":"role","type":"bytes32","internalType":"bytes32"},{"name":"account","type":"address","internalType":"address"}],"outputs":[],"stateMutability":"nonpayable"},{"type":"function","name":"safeTransferFrom","inputs":[{"name":"from","type":"address","internalType":"address"},{"name":"to","type":"address","internalType":"address"},{"name":"tokenId","type":"uint256","internalType":"uint256"}],"outputs":[],"stateMutability":"nonpayable"},{"type":"function","name":"safeTransferFrom","inputs":[{"name":"from","type":"address","internalType":"address"},{"name":"to","type":"address","internalType":"address"},{"name":"tokenId","type":"uint256","internalType":"uint256"},{"name":"data","type":"bytes","internalType":"bytes"}],"outputs":[],"stateMutability":"nonpayable"},{"type":"function","name":"setApprovalForAll","inputs":[{"name":"operator","type":"address","internalType":"address"},{"name":"approved","type":"bool","internalType":"bool"}],"outputs":[],"stateMutability":"nonpayable"},{"type":"function","name":"supportsInterface","inputs":[{"name":"interfaceId","type":"bytes4","internalType":"bytes4"}],"outputs":[{"name":"","type":"bool","internalType":"bool"}],"stateMutability":"view"},{"type":"function","name":"symbol","inputs":[],"outputs":[{"name":"","type":"string","internalType":"string"}],"stateMutability":"view"},{"type":"function","name":"tokenURI","inputs":[{"name":"tokenId","type":"uint256","internalType":"uint256"}],"outputs":[{"name":"","type":"string","internalType":"string"}],"stateMutability":"view"},{"type":"function","name":"transferFrom","inputs":[{"name":"from","type":"address","internalType":"address"},{"name":"to","type":"address","internalType":"address"},{"name":"tokenId","type":"uint256","internalType":"uint256"}],"outputs":[],"stateMutability":"nonpayable"},{"type":"function","name":"updateKarma","inputs":[{"name":"user","type":"address","internalType":"address"},{"name":"change","type":"int256","internalType":"int256"},{"name":"reason","type":"string","internalType":"string"}],"outputs":[],"stateMutability":"nonpayable"},{"type":"function","name":"userTokenId","inputs":[{"name":"","type":"address","internalType":"address"}],"outputs":[{"name":"","type":"uint256","internalType":"uint256"}],"stateMutability":"view"},{"type":"event","name":"Approval","inputs":[{"name":"owner","type":"address","indexed":true,"internalType":"address"},{"name":"approved","type":"address","indexed":true,"internalType":"address"},{"name":"tokenId","type":"uint256","indexed":true,"internalType":"uint256"}],"anonymous":false},{"type":"event","name":"ApprovalForAll","inputs":[{"name":"owner","type":"address","indexed":true,"internalType":"address"},{"name":"operator","type":"address","indexed":true,"internalType":"address"},{"name":"approved","type":"bool","indexed":false,"internalType":"bool"}],"anonymous":false},{"type":"event","name":"KarmaChanged","inputs":[{"name":"user","type":"address","indexed":true,"internalType":"address"},{"name":"change","type":"int256","indexed":false,"internalType":"int256"},{"name":"reason","type":"string","indexed":false,"internalType":"string"}],"anonymous":false},{"type":"event","name":"ReputationUpdated","inputs":[{"name":"user","type":"address","indexed":true,"internalType":"address"},{"name":"karma","type":"uint256","indexed":false,"internalType":"uint256"},{"name":"disputeRate","type":"uint256","indexed":false,"internalType":"uint256"}],"anonymous":false},{"type":"event","name":"RoleAdminChanged","inputs":[{"name":"role","type":"bytes32","indexed":true,"internalType":"bytes32"},{"name":"previousAdminRole","type":"bytes32","indexed":true,"internalType":"bytes32"},{"name":"newAdminRole","type":"bytes32","indexed":true,"internalType":"bytes32"}],"anonymous":false},{"type":"event","name":"RoleGranted","inputs":[{"name":"role","type":"bytes32","indexed":true,"internalType":"bytes32"},{"name":"account","type":"address","indexed":true,"internalType":"address"},{"name":"sender","type":"address","indexed":true,"internalType":"address"}],"anonymous":false},{"type":"event","name":"RoleRevoked","inputs":[{"name":"role","type":"bytes32","indexed":true,"internalType":"bytes32"},{"name":"account","type":"address","indexed":true,"internalType":"address"},{"name":"sender","type":"address","indexed":true,"internalType":"address"}],"anonymous":false},{"type":"event","name":"SBTMinted","inputs":[{"name":"user","type":"address","indexed":true,"internalType":"address"},{"name":"tokenId","type":"uint256","indexed":false,"internalType":"uint256"}],"anonymous":false},{"type":"event","name":"Transfer","inputs":[{"name":"from","type":"address","indexed":true,"internalType":"address"},{"name":"to","type":"address","indexed":true,"internalType":"address"},{"name":"tokenId","type":"uint256","indexed":true,"internalType":"uint256"}],"anonymous":false},{"type":"error","name":"AccessControlBadConfirmation","inputs":[]},{"type":"error","name":"AccessControlUnauthorizedAccount","inputs":[{"name":"account","type":"address","internalType":"address"},{"name":"neededRole","type":"bytes32","internalType":"bytes32"}]},{"type":"error","name":"ERC721IncorrectOwner","inputs":[{"name":"sender","type":"address","internalType":"address"},{"name":"tokenId","type":"uint256","internalType":"uint256"},{"name":"owner","type":"address","internalType":"address"}]},{"type":"error","name":"ERC721InsufficientApproval","inputs":[{"name":"operator","type":"address","internalType":"address"},{"name":"tokenId","type":"uint256","internalType":"uint256"}]},{"type":"error","name":"ERC721InvalidApprover","inputs":[{"name":"approver","type":"address","internalType":"address"}]},{"type":"error","name":"ERC721InvalidOperator","inputs":[{"name":"operator","type":"address","internalType":"address"}]},{"type":"error","name":"ERC721InvalidOwner","inputs":[{"name":"owner","type":"address","internalType":"address"}]},{"type":"error","name":"ERC721InvalidReceiver","inputs":[{"name":"receiver","type":"address","internalType":"address"}]},{"type":"error","name":"ERC721InvalidSender","inputs":[{"name":"sender","type":"address","internalType":"address"}]},{"type":"error","name":"ERC721NonexistentToken","inputs":[{"name":"tokenId","type":"uint256","internalType":"uint256"}]}],"bytecode":{"object":"0x608060405234801561000f575f5ffd5b506040518060400160405280601381526020017f4d6f6e61646469742052657075746174696f6e000000000000000000000000008152506040518060400160405280600681526020017f4d44545245500000000000000000000000000000000000000000000000000000815250815f908161008a9190610484565b50806001908161009a9190610484565b5050506100af5f5f1b336100e660201b60201c565b506100e07f9f2df0fed2c77648de5860a4cc508cd0818c85b8b8a1ab4ceeef8d981c8956a6336100e660201b60201c565b50610553565b5f6100f783836101dc60201b60201c565b6101d257600160065f8581526020019081526020015f205f015f8473ffffffffffffffffffffffffffffffffffffffff1673ffffffffffffffffffffffffffffffffffffffff1681526020019081526020015f205f6101000a81548160ff02191690831515021790555061016f61024060201b60201c565b73ffffffffffffffffffffffffffffffffffffffff168273ffffffffffffffffffffffffffffffffffffffff16847f2f8788117e7eff1d82e926ec794901d17c78024a50270940304540a733656f0d60405160405180910390a4600190506101d6565b5f90505b92915050565b5f60065f8481526020019081526020015f205f015f8373ffffffffffffffffffffffffffffffffffffffff1673ffffffffffffffffffffffffffffffffffffffff1681526020019081526020015f205f9054906101000a900460ff16905092915050565b5f33905090565b5f81519050919050565b7f4e487b71000000000000000000000000000000000000000000000000000000005f52604160045260245ffd5b7f4e487b71000000000000000000000000000000000000000000000000000000005f52602260045260245ffd5b5f60028204905060018216806102c257607f821691505b6020821081036102d5576102d461027e565b5b50919050565b5f819050815f5260205f209050919050565b5f6020601f8301049050919050565b5f82821b905092915050565b5f600883026103377fffffffffffffffffffffffffffffffffffffffffffffffffffffffffffffffff826102fc565b61034186836102fc565b95508019841693508086168417925050509392505050565b5f819050919050565b5f819050919050565b5f61038561038061037b84610359565b610362565b610359565b9050919050565b5f819050919050565b61039e8361036b565b6103b26103aa8261038c565b848454610308565b825550505050565b5f5f905090565b6103c96103ba565b6103d4818484610395565b505050565b5b818110156103f7576103ec5f826103c1565b6001810190506103da565b5050565b601f82111561043c5761040d816102db565b610416846102ed565b81016020851015610425578190505b610439610431856102ed565b8301826103d9565b50505b505050565b5f82821c905092915050565b5f61045c5f1984600802610441565b1980831691505092915050565b5f610474838361044d565b9150826002028217905092915050565b61048d82610247565b67ffffffffffffffff8111156104a6576104a5610251565b5b6104b082546102ab565b6104bb8282856103fb565b5f60209050601f8311600181146104ec575f84156104da578287015190505b6104e48582610469565b86555061054b565b601f1984166104fa866102db565b5f5b82811015610521578489015182556001820191506020850194506020810190506104fc565b8683101561053e578489015161053a601f89168261044d565b8355505b6001600288020188555050505b505050505050565b613d14806105605f395ff3fe608060405234801561000f575f5ffd5b50600436106101f9575f3560e01c80636a627842116101185780639c89a0e2116100ab578063b88d4fde1161007a578063b88d4fde14610636578063c87b56dd14610652578063d539139314610682578063d547741f146106a0578063e985e9c5146106bc576101f9565b80639c89a0e21461059b578063a217fddf146105cc578063a22cb465146105ea578063b107e88c14610606576101f9565b80637782cec6116100e75780637782cec61461050157806391d148541461053157806395d89b4114610561578063964ee9d71461057f576101f9565b80636a6278421461043957806370a0823114610469578063715ca5421461049957806372fa9b85146104c9576101f9565b806326ee7f561161019057806347e633801161015f57806347e633801461039f57806356a9c454146103bd57806358d3b6dc146103ed5780636352211e14610409576101f9565b806326ee7f561461031b5780632f2ff15d1461034b57806336568abe1461036757806342842e0e14610383576101f9565b80631aa6b142116101cc5780631aa6b1421461029757806323b872dd146102b3578063248a9ca3146102cf57806326a590f1146102ff576101f9565b806301ffc9a7146101fd57806306fdde031461022d578063081812fc1461024b578063095ea7b31461027b575b5f5ffd5b61021760048036038101906102129190612f0f565b6106ec565b6040516102249190612f54565b60405180910390f35b6102356106fd565b6040516102429190612fdd565b60405180910390f35b61026560048036038101906102609190613030565b61078c565b604051610272919061309a565b60405180910390f35b610295600480360381019061029091906130dd565b6107a7565b005b6102b160048036038101906102ac9190613145565b6107bd565b005b6102cd60048036038101906102c89190613183565b6109bb565b005b6102e960048036038101906102e49190613206565b610aba565b6040516102f69190613240565b60405180910390f35b610319600480360381019061031491906132ed565b610ad7565b005b6103356004803603810190610330919061335e565b610d05565b604051610342919061344d565b60405180910390f35b61036560048036038101906103609190613467565b610e50565b005b610381600480360381019061037c9190613467565b610e72565b005b61039d60048036038101906103989190613183565b610eed565b005b6103a7610f0c565b6040516103b49190613240565b60405180910390f35b6103d760048036038101906103d2919061335e565b610f30565b6040516103e49190612f54565b60405180910390f35b61040760048036038101906104029190613145565b610f4d565b005b610423600480360381019061041e9190613030565b611164565b604051610430919061309a565b60405180910390f35b610453600480360381019061044e919061335e565b611175565b60405161046091906134b4565b60405180910390f35b610483600480360381019061047e919061335e565b6113ee565b60405161049091906134b4565b60405180910390f35b6104b360048036038101906104ae919061335e565b6114a4565b6040516104c091906134b4565b60405180910390f35b6104e360048036038101906104de9190613030565b6114b9565b6040516104f8999897969594939291906134cd565b60405180910390f35b61051b6004803603810190610516919061335e565b611503565b6040516105289190612f54565b60405180910390f35b61054b60048036038101906105469190613467565b611657565b6040516105589190612f54565b60405180910390f35b6105696116bb565b6040516105769190612fdd565b60405180910390f35b6105996004803603810190610594919061335e565b61174b565b005b6105b560048036038101906105b0919061335e565b611886565b6040516105c3929190613558565b60405180910390f35b6105d4611979565b6040516105e19190613240565b60405180910390f35b61060460048036038101906105ff9190613145565b61197f565b005b610620600480360381019061061b919061335e565b611995565b60405161062d91906134b4565b60405180910390f35b610650600480360381019061064b91906136a7565b611ab7565b005b61066c60048036038101906106679190613030565b611adc565b6040516106799190612fdd565b60405180910390f35b61068a611b42565b6040516106979190613240565b60405180910390f35b6106ba60048036038101906106b59190613467565b611b66565b005b6106d660048036038101906106d19190613727565b611b88565b6040516106e39190612f54565b60405180910390f35b5f6106f682611c16565b9050919050565b60605f805461070b90613792565b80601f016020809104026020016040519081016040528092919081815260200182805461073790613792565b80156107825780601f1061075957610100808354040283529160200191610782565b820191905f5260205f20905b81548152906001019060200180831161076557829003601f168201915b5050505050905090565b5f61079682611c8f565b506107a082611d15565b9050919050565b6107b982826107b4611d4e565b611d55565b5050565b7f73e573f9566d61418a34d5de3ff49360f9c51fec37f7486551670290f6285dab6107e781611d67565b600a5f8473ffffffffffffffffffffffffffffffffffffffff1673ffffffffffffffffffffffffffffffffffffffff1681526020019081526020015f205f9054906101000a900460ff16610870576040517f08c379a00000000000000000000000000000000000000000000000000000000081526004016108679061380c565b60405180910390fd5b5f60085f8573ffffffffffffffffffffffffffffffffffffffff1673ffffffffffffffffffffffffffffffffffffffff1681526020019081526020015f205490505f60095f8381526020019081526020015f209050831561090357806005015f8154809291906108df90613857565b91905055506005815f015f8282546108f7919061389e565b92505081905550610950565b806006015f81548092919061091790613857565b9190505550600a815f01541061094657600a815f015f82825461093a91906138d1565b9250508190555061094f565b5f815f01819055505b5b4281600701819055508473ffffffffffffffffffffffffffffffffffffffff167f5b88a2e3fc1a53234357ab78c104df11c33ccfa79886793654565ad70b8afb6e825f015461099e85611d7b565b6040516109ac929190613558565b60405180910390a25050505050565b5f73ffffffffffffffffffffffffffffffffffffffff168273ffffffffffffffffffffffffffffffffffffffff1603610a2b575f6040517f64a0ae92000000000000000000000000000000000000000000000000000000008152600401610a22919061309a565b60405180910390fd5b5f610a3e8383610a39611d4e565b611e32565b90508373ffffffffffffffffffffffffffffffffffffffff168173ffffffffffffffffffffffffffffffffffffffff1614610ab4578382826040517f64283d7b000000000000000000000000000000000000000000000000000000008152600401610aab93929190613904565b60405180910390fd5b50505050565b5f60065f8381526020019081526020015f20600101549050919050565b7f73e573f9566d61418a34d5de3ff49360f9c51fec37f7486551670290f6285dab610b0181611d67565b600a5f8673ffffffffffffffffffffffffffffffffffffffff1673ffffffffffffffffffffffffffffffffffffffff1681526020019081526020015f205f9054906101000a900460ff16610b8a576040517f08c379a0000000000000000000000000000000000000000000000000000000008152600401610b819061380c565b60405180910390fd5b5f60085f8773ffffffffffffffffffffffffffffffffffffffff1673ffffffffffffffffffffffffffffffffffffffff1681526020019081526020015f205490505f60095f8381526020019081526020015f2090505f861215610c2c575f86610bf290613939565b9050815f0154811115610c0c575f825f0181905550610c26565b80825f015f828254610c1e91906138d1565b925050819055505b50610c46565b85815f015f828254610c3e919061389e565b925050819055505b4281600701819055508673ffffffffffffffffffffffffffffffffffffffff167ffa09257054ccf1b524094abd60376e44ca49814bb4433e59559927fd25ce39f7878787604051610c99939291906139ba565b60405180910390a28673ffffffffffffffffffffffffffffffffffffffff167f5b88a2e3fc1a53234357ab78c104df11c33ccfa79886793654565ad70b8afb6e825f0154610ce685611d7b565b604051610cf4929190613558565b60405180910390a250505050505050565b610d0d612e66565b600a5f8373ffffffffffffffffffffffffffffffffffffffff1673ffffffffffffffffffffffffffffffffffffffff1681526020019081526020015f205f9054906101000a900460ff16610d96576040517f08c379a0000000000000000000000000000000000000000000000000000000008152600401610d8d9061380c565b60405180910390fd5b60095f60085f8573ffffffffffffffffffffffffffffffffffffffff1673ffffffffffffffffffffffffffffffffffffffff1681526020019081526020015f205481526020019081526020015f20604051806101200160405290815f8201548152602001600182015481526020016002820154815260200160038201548152602001600482015481526020016005820154815260200160068201548152602001600782015481526020016008820154815250509050919050565b610e5982610aba565b610e6281611d67565b610e6c8383611ef8565b50505050565b610e7a611d4e565b73ffffffffffffffffffffffffffffffffffffffff168173ffffffffffffffffffffffffffffffffffffffff1614610ede576040517f6697b23200000000000000000000000000000000000000000000000000000000815260040160405180910390fd5b610ee88282611fe2565b505050565b610f0783838360405180602001604052805f815250611ab7565b505050565b7f73e573f9566d61418a34d5de3ff49360f9c51fec37f7486551670290f6285dab81565b600a602052805f5260405f205f915054906101000a900460ff1681565b7f73e573f9566d61418a34d5de3ff49360f9c51fec37f7486551670290f6285dab610f7781611d67565b600a5f8473ffffffffffffffffffffffffffffffffffffffff1673ffffffffffffffffffffffffffffffffffffffff1681526020019081526020015f205f9054906101000a900460ff16611000576040517f08c379a0000000000000000000000000000000000000000000000000000000008152600401610ff79061380c565b60405180910390fd5b5f60085f8573ffffffffffffffffffffffffffffffffffffffff1673ffffffffffffffffffffffffffffffffffffffff1681526020019081526020015f205490505f60095f8381526020019081526020015f209050806001015f81548092919061106990613857565b919050555083156110ac57806002015f81548092919061108890613857565b9190505550600a815f015f8282546110a0919061389e565b925050819055506110f9565b806003015f8154809291906110c090613857565b91905055506014815f0154106110ef576014815f015f8282546110e391906138d1565b925050819055506110f8565b5f815f01819055505b5b4281600701819055508473ffffffffffffffffffffffffffffffffffffffff167f5b88a2e3fc1a53234357ab78c104df11c33ccfa79886793654565ad70b8afb6e825f015461114785611d7b565b604051611155929190613558565b60405180910390a25050505050565b5f61116e82611c8f565b9050919050565b5f7f9f2df0fed2c77648de5860a4cc508cd0818c85b8b8a1ab4ceeef8d981c8956a66111a081611d67565b600a5f8473ffffffffffffffffffffffffffffffffffffffff1673ffffffffffffffffffffffffffffffffffffffff1681526020019081526020015f205f9054906101000a900460ff161561122a576040517f08c379a000000000000000000000000000000000000000000000000000000000815260040161122190613a34565b60405180910390fd5b60075f81548092919061123c90613857565b91905055505f600754905061125184826120cc565b8060085f8673ffffffffffffffffffffffffffffffffffffffff1673ffffffffffffffffffffffffffffffffffffffff1681526020019081526020015f20819055506001600a5f8673ffffffffffffffffffffffffffffffffffffffff1673ffffffffffffffffffffffffffffffffffffffff1681526020019081526020015f205f6101000a81548160ff021916908315150217905550604051806101200160405280606481526020015f81526020015f81526020015f81526020015f81526020015f81526020015f81526020014281526020014281525060095f8381526020019081526020015f205f820151815f01556020820151816001015560408201518160020155606082015181600301556080820151816004015560a0820151816005015560c0820151816006015560e0820151816007015561010082015181600801559050508373ffffffffffffffffffffffffffffffffffffffff167f69180e5630fe9bd5b50dab3216e4151093508a9dfe7eb5fa1166632c7bc65936826040516113dc91906134b4565b60405180910390a28092505050919050565b5f5f73ffffffffffffffffffffffffffffffffffffffff168273ffffffffffffffffffffffffffffffffffffffff160361145f575f6040517f89c62b64000000000000000000000000000000000000000000000000000000008152600401611456919061309a565b60405180910390fd5b60035f8373ffffffffffffffffffffffffffffffffffffffff1673ffffffffffffffffffffffffffffffffffffffff1681526020019081526020015f20549050919050565b6008602052805f5260405f205f915090505481565b6009602052805f5260405f205f91509050805f0154908060010154908060020154908060030154908060040154908060050154908060060154908060070154908060080154905089565b5f600a5f8373ffffffffffffffffffffffffffffffffffffffff1673ffffffffffffffffffffffffffffffffffffffff1681526020019081526020015f205f9054906101000a900460ff1661155a575f9050611652565b5f60085f8473ffffffffffffffffffffffffffffffffffffffff1673ffffffffffffffffffffffffffffffffffffffff1681526020019081526020015f205490505f60095f8381526020019081526020015f20604051806101200160405290815f82015481526020016001820154815260200160028201548152602001600382015481526020016004820154815260200160058201548152602001600682015481526020016007820154815260200160088201548152505090506032815f0151101580156116305750603261162e83611d7b565b105b801561164d575062278d008160e001514261164b91906138d1565b105b925050505b919050565b5f60065f8481526020019081526020015f205f015f8373ffffffffffffffffffffffffffffffffffffffff1673ffffffffffffffffffffffffffffffffffffffff1681526020019081526020015f205f9054906101000a900460ff16905092915050565b6060600180546116ca90613792565b80601f01602080910402602001604051908101604052809291908181526020018280546116f690613792565b80156117415780601f1061171857610100808354040283529160200191611741565b820191905f5260205f20905b81548152906001019060200180831161172457829003601f168201915b5050505050905090565b7f73e573f9566d61418a34d5de3ff49360f9c51fec37f7486551670290f6285dab61177581611d67565b600a5f8373ffffffffffffffffffffffffffffffffffffffff1673ffffffffffffffffffffffffffffffffffffffff1681526020019081526020015f205f9054906101000a900460ff166117fe576040517f08c379a00000000000000000000000000000000000000000000000000000000081526004016117f59061380c565b60405180910390fd5b5f60085f8473ffffffffffffffffffffffffffffffffffffffff1673ffffffffffffffffffffffffffffffffffffffff1681526020019081526020015f2054905060095f8281526020019081526020015f206004015f81548092919061186390613857565b91905055504260095f8381526020019081526020015f2060070181905550505050565b5f5f600a5f8473ffffffffffffffffffffffffffffffffffffffff1673ffffffffffffffffffffffffffffffffffffffff1681526020019081526020015f205f9054906101000a900460ff16611911576040517f08c379a00000000000000000000000000000000000000000000000000000000081526004016119089061380c565b60405180910390fd5b5f60085f8573ffffffffffffffffffffffffffffffffffffffff1673ffffffffffffffffffffffffffffffffffffffff1681526020019081526020015f2054905060095f8281526020019081526020015f205f0154925061197181611d7b565b915050915091565b5f5f1b81565b61199161198a611d4e565b83836120e9565b5050565b5f600a5f8373ffffffffffffffffffffffffffffffffffffffff1673ffffffffffffffffffffffffffffffffffffffff1681526020019081526020015f205f9054906101000a900460ff166119ed5760649050611ab2565b5f60085f8473ffffffffffffffffffffffffffffffffffffffff1673ffffffffffffffffffffffffffffffffffffffff1681526020019081526020015f205490505f60095f8381526020019081526020015f205f015490506032811015611a5957603292505050611ab2565b6064811015611a6d57604b92505050611ab2565b60c8811015611a8157606492505050611ab2565b6101f4811015611a9657607d92505050611ab2565b6103e8811015611aab57609692505050611ab2565b60c8925050505b919050565b611ac28484846109bb565b611ad6611acd611d4e565b85858585612252565b50505050565b6060611ae782611c8f565b505f611af16123fe565b90505f815111611b0f5760405180602001604052805f815250611b3a565b80611b1984612414565b604051602001611b2a929190613a8c565b6040516020818303038152906040525b915050919050565b7f9f2df0fed2c77648de5860a4cc508cd0818c85b8b8a1ab4ceeef8d981c8956a681565b611b6f82610aba565b611b7881611d67565b611b828383611fe2565b50505050565b5f60055f8473ffffffffffffffffffffffffffffffffffffffff1673ffffffffffffffffffffffffffffffffffffffff1681526020019081526020015f205f8373ffffffffffffffffffffffffffffffffffffffff1673ffffffffffffffffffffffffffffffffffffffff1681526020019081526020015f205f9054906101000a900460ff16905092915050565b5f7f7965db0b000000000000000000000000000000000000000000000000000000007bffffffffffffffffffffffffffffffffffffffffffffffffffffffff1916827bffffffffffffffffffffffffffffffffffffffffffffffffffffffff19161480611c885750611c87826124de565b5b9050919050565b5f5f611c9a836125bf565b90505f73ffffffffffffffffffffffffffffffffffffffff168173ffffffffffffffffffffffffffffffffffffffff1603611d0c57826040517f7e273289000000000000000000000000000000000000000000000000000000008152600401611d0391906134b4565b60405180910390fd5b80915050919050565b5f60045f8381526020019081526020015f205f9054906101000a900473ffffffffffffffffffffffffffffffffffffffff169050919050565b5f33905090565b611d6283838360016125f8565b505050565b611d7881611d73611d4e565b6127b7565b50565b5f5f60095f8481526020019081526020015f20604051806101200160405290815f82015481526020016001820154815260200160028201548152602001600382015481526020016004820154815260200160058201548152602001600682015481526020016007820154815260200160088201548152505090505f816020015103611e09575f915050611e2d565b806020015160648260600151611e1f9190613aaf565b611e299190613b1d565b9150505b919050565b5f5f611e3d846125bf565b90505f73ffffffffffffffffffffffffffffffffffffffff168173ffffffffffffffffffffffffffffffffffffffff161480611ea457505f73ffffffffffffffffffffffffffffffffffffffff168573ffffffffffffffffffffffffffffffffffffffff16145b611ee3576040517f08c379a0000000000000000000000000000000000000000000000000000000008152600401611eda90613b97565b60405180910390fd5b611eee858585612808565b9150509392505050565b5f611f038383611657565b611fd857600160065f8581526020019081526020015f205f015f8473ffffffffffffffffffffffffffffffffffffffff1673ffffffffffffffffffffffffffffffffffffffff1681526020019081526020015f205f6101000a81548160ff021916908315150217905550611f75611d4e565b73ffffffffffffffffffffffffffffffffffffffff168273ffffffffffffffffffffffffffffffffffffffff16847f2f8788117e7eff1d82e926ec794901d17c78024a50270940304540a733656f0d60405160405180910390a460019050611fdc565b5f90505b92915050565b5f611fed8383611657565b156120c2575f60065f8581526020019081526020015f205f015f8473ffffffffffffffffffffffffffffffffffffffff1673ffffffffffffffffffffffffffffffffffffffff1681526020019081526020015f205f6101000a81548160ff02191690831515021790555061205f611d4e565b73ffffffffffffffffffffffffffffffffffffffff168273ffffffffffffffffffffffffffffffffffffffff16847ff6391f5c32d9c69d2a47ea670b442974b53935d1edc7fd64eb21e047a839171b60405160405180910390a4600190506120c6565b5f90505b92915050565b6120e5828260405180602001604052805f815250612a13565b5050565b5f73ffffffffffffffffffffffffffffffffffffffff168273ffffffffffffffffffffffffffffffffffffffff160361215957816040517f5b08ba18000000000000000000000000000000000000000000000000000000008152600401612150919061309a565b60405180910390fd5b8060055f8573ffffffffffffffffffffffffffffffffffffffff1673ffffffffffffffffffffffffffffffffffffffff1681526020019081526020015f205f8473ffffffffffffffffffffffffffffffffffffffff1673ffffffffffffffffffffffffffffffffffffffff1681526020019081526020015f205f6101000a81548160ff0219169083151502179055508173ffffffffffffffffffffffffffffffffffffffff168373ffffffffffffffffffffffffffffffffffffffff167f17307eab39ab6107e8899845ad3d59bd9653f200f220920489ca2b5937696c31836040516122459190612f54565b60405180910390a3505050565b5f8373ffffffffffffffffffffffffffffffffffffffff163b11156123f7578273ffffffffffffffffffffffffffffffffffffffff1663150b7a02868685856040518563ffffffff1660e01b81526004016122b09493929190613c07565b6020604051808303815f875af19250505080156122eb57506040513d601f19601f820116820180604052508101906122e89190613c65565b60015b61236c573d805f8114612319576040519150601f19603f3d011682016040523d82523d5f602084013e61231e565b606091505b505f81510361236457836040517f64a0ae9200000000000000000000000000000000000000000000000000000000815260040161235b919061309a565b60405180910390fd5b805160208201fd5b63150b7a0260e01b7bffffffffffffffffffffffffffffffffffffffffffffffffffffffff1916817bffffffffffffffffffffffffffffffffffffffffffffffffffffffff1916146123f557836040517f64a0ae920000000000000000000000000000000000000000000000000000000081526004016123ec919061309a565b60405180910390fd5b505b5050505050565b606060405180602001604052805f815250905090565b60605f600161242284612a36565b0190505f8167ffffffffffffffff8111156124405761243f613583565b5b6040519080825280601f01601f1916602001820160405280156124725781602001600182028036833780820191505090505b5090505f82602083010190505b6001156124d3578080600190039150507f3031323334353637383961626364656600000000000000000000000000000000600a86061a8153600a85816124c8576124c7613af0565b5b0494505f850361247f575b819350505050919050565b5f7f80ac58cd000000000000000000000000000000000000000000000000000000007bffffffffffffffffffffffffffffffffffffffffffffffffffffffff1916827bffffffffffffffffffffffffffffffffffffffffffffffffffffffff191614806125a857507f5b5e139f000000000000000000000000000000000000000000000000000000007bffffffffffffffffffffffffffffffffffffffffffffffffffffffff1916827bffffffffffffffffffffffffffffffffffffffffffffffffffffffff1916145b806125b857506125b782612b87565b5b9050919050565b5f60025f8381526020019081526020015f205f9054906101000a900473ffffffffffffffffffffffffffffffffffffffff169050919050565b808061263057505f73ffffffffffffffffffffffffffffffffffffffff168273ffffffffffffffffffffffffffffffffffffffff1614155b15612762575f61263f84611c8f565b90505f73ffffffffffffffffffffffffffffffffffffffff168373ffffffffffffffffffffffffffffffffffffffff16141580156126a957508273ffffffffffffffffffffffffffffffffffffffff168173ffffffffffffffffffffffffffffffffffffffff1614155b80156126bc57506126ba8184611b88565b155b156126fe57826040517fa9fbf51f0000000000000000000000000000000000000000000000000000000081526004016126f5919061309a565b60405180910390fd5b811561276057838573ffffffffffffffffffffffffffffffffffffffff168273ffffffffffffffffffffffffffffffffffffffff167f8c5be1e5ebec7d5bd14f71427d1e84f3dd0314c0f7b2291e5b200ac8c7c3b92560405160405180910390a45b505b8360045f8581526020019081526020015f205f6101000a81548173ffffffffffffffffffffffffffffffffffffffff021916908373ffffffffffffffffffffffffffffffffffffffff16021790555050505050565b6127c18282611657565b6128045780826040517fe2517d3f0000000000000000000000000000000000000000000000000000000081526004016127fb929190613c90565b60405180910390fd5b5050565b5f5f612813846125bf565b90505f73ffffffffffffffffffffffffffffffffffffffff168373ffffffffffffffffffffffffffffffffffffffff161461285457612853818486612bf0565b5b5f73ffffffffffffffffffffffffffffffffffffffff168173ffffffffffffffffffffffffffffffffffffffff16146128df576128935f855f5f6125f8565b600160035f8373ffffffffffffffffffffffffffffffffffffffff1673ffffffffffffffffffffffffffffffffffffffff1681526020019081526020015f205f82825403925050819055505b5f73ffffffffffffffffffffffffffffffffffffffff168573ffffffffffffffffffffffffffffffffffffffff161461295e57600160035f8773ffffffffffffffffffffffffffffffffffffffff1673ffffffffffffffffffffffffffffffffffffffff1681526020019081526020015f205f82825401925050819055505b8460025f8681526020019081526020015f205f6101000a81548173ffffffffffffffffffffffffffffffffffffffff021916908373ffffffffffffffffffffffffffffffffffffffff160217905550838573ffffffffffffffffffffffffffffffffffffffff168273ffffffffffffffffffffffffffffffffffffffff167fddf252ad1be2c89b69c2b068fc378daa952ba7f163c4a11628f55a4df523b3ef60405160405180910390a4809150509392505050565b612a1d8383612cb3565b612a31612a28611d4e565b5f858585612252565b505050565b5f5f5f90507a184f03e93ff9f4daa797ed6e38ed64bf6a1f0100000000000000008310612a92577a184f03e93ff9f4daa797ed6e38ed64bf6a1f0100000000000000008381612a8857612a87613af0565b5b0492506040810190505b6d04ee2d6d415b85acef81000000008310612acf576d04ee2d6d415b85acef81000000008381612ac557612ac4613af0565b5b0492506020810190505b662386f26fc100008310612afe57662386f26fc100008381612af457612af3613af0565b5b0492506010810190505b6305f5e1008310612b27576305f5e1008381612b1d57612b1c613af0565b5b0492506008810190505b6127108310612b4c576127108381612b4257612b41613af0565b5b0492506004810190505b60648310612b6f5760648381612b6557612b64613af0565b5b0492506002810190505b600a8310612b7e576001810190505b80915050919050565b5f7f01ffc9a7000000000000000000000000000000000000000000000000000000007bffffffffffffffffffffffffffffffffffffffffffffffffffffffff1916827bffffffffffffffffffffffffffffffffffffffffffffffffffffffff1916149050919050565b612bfb838383612da6565b612cae575f73ffffffffffffffffffffffffffffffffffffffff168373ffffffffffffffffffffffffffffffffffffffff1603612c6f57806040517f7e273289000000000000000000000000000000000000000000000000000000008152600401612c6691906134b4565b60405180910390fd5b81816040517f177e802f000000000000000000000000000000000000000000000000000000008152600401612ca5929190613cb7565b60405180910390fd5b505050565b5f73ffffffffffffffffffffffffffffffffffffffff168273ffffffffffffffffffffffffffffffffffffffff1603612d23575f6040517f64a0ae92000000000000000000000000000000000000000000000000000000008152600401612d1a919061309a565b60405180910390fd5b5f612d2f83835f611e32565b90505f73ffffffffffffffffffffffffffffffffffffffff168173ffffffffffffffffffffffffffffffffffffffff1614612da1575f6040517f73c6ac6e000000000000000000000000000000000000000000000000000000008152600401612d98919061309a565b60405180910390fd5b505050565b5f5f73ffffffffffffffffffffffffffffffffffffffff168373ffffffffffffffffffffffffffffffffffffffff1614158015612e5d57508273ffffffffffffffffffffffffffffffffffffffff168473ffffffffffffffffffffffffffffffffffffffff161480612e1e5750612e1d8484611b88565b5b80612e5c57508273ffffffffffffffffffffffffffffffffffffffff16612e4483611d15565b73ffffffffffffffffffffffffffffffffffffffff16145b5b90509392505050565b6040518061012001604052805f81526020015f81526020015f81526020015f81526020015f81526020015f81526020015f81526020015f81526020015f81525090565b5f604051905090565b5f5ffd5b5f5ffd5b5f7fffffffff0000000000000000000000000000000000000000000000000000000082169050919050565b612eee81612eba565b8114612ef8575f5ffd5b50565b5f81359050612f0981612ee5565b92915050565b5f60208284031215612f2457612f23612eb2565b5b5f612f3184828501612efb565b91505092915050565b5f8115159050919050565b612f4e81612f3a565b82525050565b5f602082019050612f675f830184612f45565b92915050565b5f81519050919050565b5f82825260208201905092915050565b8281835e5f83830152505050565b5f601f19601f8301169050919050565b5f612faf82612f6d565b612fb98185612f77565b9350612fc9818560208601612f87565b612fd281612f95565b840191505092915050565b5f6020820190508181035f830152612ff58184612fa5565b905092915050565b5f819050919050565b61300f81612ffd565b8114613019575f5ffd5b50565b5f8135905061302a81613006565b92915050565b5f6020828403121561304557613044612eb2565b5b5f6130528482850161301c565b91505092915050565b5f73ffffffffffffffffffffffffffffffffffffffff82169050919050565b5f6130848261305b565b9050919050565b6130948161307a565b82525050565b5f6020820190506130ad5f83018461308b565b92915050565b6130bc8161307a565b81146130c6575f5ffd5b50565b5f813590506130d7816130b3565b92915050565b5f5f604083850312156130f3576130f2612eb2565b5b5f613100858286016130c9565b92505060206131118582860161301c565b9150509250929050565b61312481612f3a565b811461312e575f5ffd5b50565b5f8135905061313f8161311b565b92915050565b5f5f6040838503121561315b5761315a612eb2565b5b5f613168858286016130c9565b925050602061317985828601613131565b9150509250929050565b5f5f5f6060848603121561319a57613199612eb2565b5b5f6131a7868287016130c9565b93505060206131b8868287016130c9565b92505060406131c98682870161301c565b9150509250925092565b5f819050919050565b6131e5816131d3565b81146131ef575f5ffd5b50565b5f81359050613200816131dc565b92915050565b5f6020828403121561321b5761321a612eb2565b5b5f613228848285016131f2565b91505092915050565b61323a816131d3565b82525050565b5f6020820190506132535f830184613231565b92915050565b5f819050919050565b61326b81613259565b8114613275575f5ffd5b50565b5f8135905061328681613262565b92915050565b5f5ffd5b5f5ffd5b5f5ffd5b5f5f83601f8401126132ad576132ac61328c565b5b8235905067ffffffffffffffff8111156132ca576132c9613290565b5b6020830191508360018202830111156132e6576132e5613294565b5b9250929050565b5f5f5f5f6060858703121561330557613304612eb2565b5b5f613312878288016130c9565b945050602061332387828801613278565b935050604085013567ffffffffffffffff81111561334457613343612eb6565b5b61335087828801613298565b925092505092959194509250565b5f6020828403121561337357613372612eb2565b5b5f613380848285016130c9565b91505092915050565b61339281612ffd565b82525050565b61012082015f8201516133ad5f850182613389565b5060208201516133c06020850182613389565b5060408201516133d36040850182613389565b5060608201516133e66060850182613389565b5060808201516133f96080850182613389565b5060a082015161340c60a0850182613389565b5060c082015161341f60c0850182613389565b5060e082015161343260e0850182613389565b50610100820151613447610100850182613389565b50505050565b5f610120820190506134615f830184613398565b92915050565b5f5f6040838503121561347d5761347c612eb2565b5b5f61348a858286016131f2565b925050602061349b858286016130c9565b9150509250929050565b6134ae81612ffd565b82525050565b5f6020820190506134c75f8301846134a5565b92915050565b5f610120820190506134e15f83018c6134a5565b6134ee602083018b6134a5565b6134fb604083018a6134a5565b61350860608301896134a5565b61351560808301886134a5565b61352260a08301876134a5565b61352f60c08301866134a5565b61353c60e08301856134a5565b61354a6101008301846134a5565b9a9950505050505050505050565b5f60408201905061356b5f8301856134a5565b61357860208301846134a5565b9392505050565b5f5ffd5b7f4e487b71000000000000000000000000000000000000000000000000000000005f52604160045260245ffd5b6135b982612f95565b810181811067ffffffffffffffff821117156135d8576135d7613583565b5b80604052505050565b5f6135ea612ea9565b90506135f682826135b0565b919050565b5f67ffffffffffffffff82111561361557613614613583565b5b61361e82612f95565b9050602081019050919050565b828183375f83830152505050565b5f61364b613646846135fb565b6135e1565b9050828152602081018484840111156136675761366661357f565b5b61367284828561362b565b509392505050565b5f82601f83011261368e5761368d61328c565b5b813561369e848260208601613639565b91505092915050565b5f5f5f5f608085870312156136bf576136be612eb2565b5b5f6136cc878288016130c9565b94505060206136dd878288016130c9565b93505060406136ee8782880161301c565b925050606085013567ffffffffffffffff81111561370f5761370e612eb6565b5b61371b8782880161367a565b91505092959194509250565b5f5f6040838503121561373d5761373c612eb2565b5b5f61374a858286016130c9565b925050602061375b858286016130c9565b9150509250929050565b7f4e487b71000000000000000000000000000000000000000000000000000000005f52602260045260245ffd5b5f60028204905060018216806137a957607f821691505b6020821081036137bc576137bb613765565b5b50919050565b7f5573657220686173206e6f2053425400000000000000000000000000000000005f82015250565b5f6137f6600f83612f77565b9150613801826137c2565b602082019050919050565b5f6020820190508181035f830152613823816137ea565b9050919050565b7f4e487b71000000000000000000000000000000000000000000000000000000005f52601160045260245ffd5b5f61386182612ffd565b91507fffffffffffffffffffffffffffffffffffffffffffffffffffffffffffffffff82036138935761389261382a565b5b600182019050919050565b5f6138a882612ffd565b91506138b383612ffd565b92508282019050808211156138cb576138ca61382a565b5b92915050565b5f6138db82612ffd565b91506138e683612ffd565b92508282039050818111156138fe576138fd61382a565b5b92915050565b5f6060820190506139175f83018661308b565b61392460208301856134a5565b613931604083018461308b565b949350505050565b5f61394382613259565b91507f800000000000000000000000000000000000000000000000000000000000000082036139755761397461382a565b5b815f039050919050565b61398881613259565b82525050565b5f6139998385612f77565b93506139a683858461362b565b6139af83612f95565b840190509392505050565b5f6040820190506139cd5f83018661397f565b81810360208301526139e081848661398e565b9050949350505050565b7f416c7265616479206861732053425400000000000000000000000000000000005f82015250565b5f613a1e600f83612f77565b9150613a29826139ea565b602082019050919050565b5f6020820190508181035f830152613a4b81613a12565b9050919050565b5f81905092915050565b5f613a6682612f6d565b613a708185613a52565b9350613a80818560208601612f87565b80840191505092915050565b5f613a978285613a5c565b9150613aa38284613a5c565b91508190509392505050565b5f613ab982612ffd565b9150613ac483612ffd565b9250828202613ad281612ffd565b91508282048414831517613ae957613ae861382a565b5b5092915050565b7f4e487b71000000000000000000000000000000000000000000000000000000005f52601260045260245ffd5b5f613b2782612ffd565b9150613b3283612ffd565b925082613b4257613b41613af0565b5b828204905092915050565b7f5342543a205472616e73666572206e6f7420616c6c6f776564000000000000005f82015250565b5f613b81601983612f77565b9150613b8c82613b4d565b602082019050919050565b5f6020820190508181035f830152613bae81613b75565b9050919050565b5f81519050919050565b5f82825260208201905092915050565b5f613bd982613bb5565b613be38185613bbf565b9350613bf3818560208601612f87565b613bfc81612f95565b840191505092915050565b5f608082019050613c1a5f83018761308b565b613c27602083018661308b565b613c3460408301856134a5565b8181036060830152613c468184613bcf565b905095945050505050565b5f81519050613c5f81612ee5565b92915050565b5f60208284031215613c7a57613c79612eb2565b5b5f613c8784828501613c51565b91505092915050565b5f604082019050613ca35f83018561308b565b613cb06020830184613231565b9392505050565b5f604082019050613cca5f83018561308b565b613cd760208301846134a5565b939250505056fea264697066735822122047c330dd69df03073475670ca1413a14804bfcc78355ceeec5598b5a79cb43a764736f6c634300081e0033","linkReferences":{}},"methodIdentifiers":{"DEFAULT_ADMIN_ROLE()":"a217fddf","MINTER_ROLE()":"d5391393","UPDATER_ROLE()":"47e63380","approve(address,uint256)":"095ea7b3","balanceOf(address)":"70a08231","getApproved(uint256)":"081812fc","getFullReputation(address)":"26ee7f56","getReputation(address)":"9c89a0e2","getReputationMultiplier(address)":"b107e88c","getRoleAdmin(bytes32)":"248a9ca3","grantRole(bytes32,address)":"2f2ff15d","hasRole(bytes32,address)":"91d14854","hasSBT(address)":"56a9c454","isApprovedForAll(address,address)":"e985e9c5","isGoodStanding(address)":"7782cec6","mint(address)":"6a627842","name()":"06fdde03","ownerOf(uint256)":"6352211e","recordChallenge(address,bool)":"1aa6b142","recordContentCreated(address)":"964ee9d7","recordDispute(address,bool)":"58d3b6dc","renounceRole(bytes32,address)":"36568abe","reputations(uint256)":"72fa9b85","revokeRole(bytes32,address)":"d547741f","safeTransferFrom(address,address,uint256)":"42842e0e","safeTransferFrom(address,address,uint256,bytes)":"b88d4fde","setApprovalForAll(address,bool)":"a22cb465","supportsInterface(bytes4)":"01ffc9a7","symbol()":"95d89b41","tokenURI(uint256)":"c87b56dd","transferFrom(address,address,uint256)":"23b872dd","updateKarma(address,int256,string)":"26a590f1","userTokenId(address)":"715ca542"},"id":3}