{"abi":[{"type":"constructor","inputs":[{"name":"_mdtToken","type":"address","internalType":"address"},{"name":"_stakingVault","type":"address","internalType":"address"}],"stateMutability":"nonpayable"},{"type":"function","name":"ACCRUER_ROLE","inputs":[],"outputs":[{"name":"","type":"bytes32","internalType":"bytes32"}],"stateMutability":"view"},{"type":"function","name":"DEFAULT_ADMIN_ROLE","inputs":[],"outputs":[{"name":"","type":"bytes32","internalType":"bytes32"}],"stateMutability":"view"},{"type":"function","name":"DISTRIBUTOR_ROLE","inputs":[],"outputs":[{"name":"","type":"bytes32","internalType":"bytes32"}],"stateMutability":"view"},{"type":"function","name":"EPOCH_DURATION","inputs":[],"outputs":[{"name":"","type":"uint256","internalType":"uint256"}],"stateMutability":"view"},{"type":"function","name":"MIN_DISTRIBUTION","inputs":[],"outputs":[{"name":"","type":"uint256","internalType":"uint256"}],"stateMutability":"view"},{"type":"function","name":"accrue","inputs":[{"name":"amount","type":"uint256","internalType":"uint256"}],"outputs":[],"stateMutability":"nonpayable"},{"type":"function","name":"accumulatedRewards","inputs":[],"outputs":[{"name":"","type":"uint256","internalType":"uint256"}],"stateMutability":"view"},{"type":"function","name":"checkpoint","inputs":[],"outputs":[],"stateMutability":"nonpayable"},{"type":"function","name":"claim","inputs":[],"outputs":[{"name":"totalClaimed","type":"uint256","internalType":"uint256"}],"stateMutability":"nonpayable"},{"type":"function","name":"currentEpoch","inputs":[],"outputs":[{"name":"","type":"uint256","internalType":"uint256"}],"stateMutability":"view"},{"type":"function","name":"eligibleUsers","inputs":[{"name":"","type":"uint256","internalType":"uint256"}],"outputs":[{"name":"","type":"address","internalType":"address"}],"stateMutability":"view"},{"type":"function","name":"epochs","inputs":[{"name":"","type":"uint256","internalType":"uint256"}],"outputs":[{"name":"startTime","type":"uint256","internalType":"uint256"},{"name":"endTime","type":"uint256","internalType":"uint256"},{"name":"totalRewards","type":"uint256","internalType":"uint256"},{"name":"totalShares","type":"uint256","internalType":"uint256"},{"name":"finalized","type":"bool","internalType":"bool"}],"stateMutability":"view"},{"type":"function","name":"getEpochInfo","inputs":[{"name":"epochId","type":"uint256","internalType":"uint256"}],"outputs":[{"name":"startTime","type":"uint256","internalType":"uint256"},{"name":"endTime","type":"uint256","internalType":"uint256"},{"name":"totalRewards","type":"uint256","internalType":"uint256"},{"name":"totalShares","type":"uint256","internalType":"uint256"},{"name":"finalized","type":"bool","internalType":"bool"}],"stateMutability":"view"},{"type":"function","name":"getPendingRewards","inputs":[{"name":"user","type":"address","internalType":"address"}],"outputs":[{"name":"pending","type":"uint256","internalType":"uint256"}],"stateMutability":"view"},{"type":"function","name":"getRoleAdmin","inputs":[{"name":"role","type":"bytes32","internalType":"bytes32"}],"outputs":[{"name":"","type":"bytes32","internalType":"bytes32"}],"stateMutability":"view"},{"type":"function","name":"getUserEpochInfo","inputs":[{"name":"user","type":"address","internalType":"address"},{"name":"epochId","type":"uint256","internalType":"uint256"}],"outputs":[{"name":"shares","type":"uint256","internalType":"uint256"},{"name":"claimed","type":"bool","internalType":"bool"},{"name":"reward","type":"uint256","internalType":"uint256"}],"stateMutability":"view"},{"type":"function","name":"grantRole","inputs":[{"name":"role","type":"bytes32","internalType":"bytes32"},{"name":"account","type":"address","internalType":"address"}],"outputs":[],"stateMutability":"nonpayable"},{"type":"function","name":"hasRole","inputs":[{"name":"role","type":"bytes32","internalType":"bytes32"},{"name":"account","type":"address","internalType":"address"}],"outputs":[{"name":"","type":"bool","internalType":"bool"}],"stateMutability":"view"},{"type":"function","name":"isEligible","inputs":[{"name":"user","type":"address","internalType":"address"}],"outputs":[{"name":"","type":"bool","internalType":"bool"}],"stateMutability":"view"},{"type":"function","name":"lastEpochTime","inputs":[],"outputs":[{"name":"","type":"uint256","internalType":"uint256"}],"stateMutability":"view"},{"type":"function","name":"mdtToken","inputs":[],"outputs":[{"name":"","type":"address","internalType":"contract IERC20"}],"stateMutability":"view"},{"type":"function","name":"renounceRole","inputs":[{"name":"role","type":"bytes32","internalType":"bytes32"},{"name":"callerConfirmation","type":"address","internalType":"address"}],"outputs":[],"stateMutability":"nonpayable"},{"type":"function","name":"reputationSBT","inputs":[],"outputs":[{"name":"","type":"address","internalType":"contract IReputationSBT"}],"stateMutability":"view"},{"type":"function","name":"revokeRole","inputs":[{"name":"role","type":"bytes32","internalType":"bytes32"},{"name":"account","type":"address","internalType":"address"}],"outputs":[],"stateMutability":"nonpayable"},{"type":"function","name":"setReputationSBT","inputs":[{"name":"_reputationSBT","type":"address","internalType":"address"}],"outputs":[],"stateMutability":"nonpayable"},{"type":"function","name":"stakingVault","inputs":[],"outputs":[{"name":"","type":"address","internalType":"contract IStakingVault"}],"stateMutability":"view"},{"type":"function","name":"supportsInterface","inputs":[{"name":"interfaceId","type":"bytes4","internalType":"bytes4"}],"outputs":[{"name":"","type":"bool","internalType":"bool"}],"stateMutability":"view"},{"type":"function","name":"userInfo","inputs":[{"name":"","type":"address","internalType":"address"}],"outputs":[{"name":"lastClaimedEpoch","type":"uint256","internalType":"uint256"},{"name":"totalClaimed","type":"uint256","internalType":"uint256"},{"name":"pendingRewards","type":"uint256","internalType":"uint256"}],"stateMutability":"view"},{"type":"event","name":"EpochFinalized","inputs":[{"name":"epochId","type":"uint256","indexed":true,"internalType":"uint256"},{"name":"totalRewards","type":"uint256","indexed":false,"internalType":"uint256"},{"name":"totalShares","type":"uint256","indexed":false,"internalType":"uint256"}],"anonymous":false},{"type":"event","name":"RewardsAccrued","inputs":[{"name":"amount","type":"uint256","indexed":false,"internalType":"uint256"},{"name":"totalAccumulated","type":"uint256","indexed":false,"internalType":"uint256"}],"anonymous":false},{"type":"event","name":"RewardsClaimed","inputs":[{"name":"user","type":"address","indexed":true,"internalType":"address"},{"name":"amount","type":"uint256","indexed":false,"internalType":"uint256"},{"name":"epochId","type":"uint256","indexed":false,"internalType":"uint256"}],"anonymous":false},{"type":"event","name":"RoleAdminChanged","inputs":[{"name":"role","type":"bytes32","indexed":true,"internalType":"bytes32"},{"name":"previousAdminRole","type":"bytes32","indexed":true,"internalType":"bytes32"},{"name":"newAdminRole","type":"bytes32","indexed":true,"internalType":"bytes32"}],"anonymous":false},{"type":"event","name":"RoleGranted","inputs":[{"name":"role","type":"bytes32","indexed":true,"internalType":"bytes32"},{"name":"account","type":"address","indexed":true,"internalType":"address"},{"name":"sender","type":"address","indexed":true,"internalType":"address"}],"anonymous":false},{"type":"event","name":"RoleRevoked","inputs":[{"name":"role","type":"bytes32","indexed":true,"internalType":"bytes32"},{"name":"account","type":"address","indexed":true,"internalType":"address"},{"name":"sender","type":"address","indexed":true,"internalType":"address"}],"anonymous":false},{"type":"event","name":"UserRegistered","inputs":[{"name":"user","type":"address","indexed":true,"internalType":"address"},{"name":"shares","type":"uint256","indexed":false,"internalType":"uint256"}],"anonymous":false},{"type":"error","name":"AccessControlBadConfirmation","inputs":[]},{"type":"error","name":"AccessControlUnauthorizedAccount","inputs":[{"name":"account","type":"address","internalType":"address"},{"name":"neededRole","type":"bytes32","internalType":"bytes32"}]},{"type":"error","name":"ReentrancyGuardReentrantCall","inputs":[]},{"type":"error","name":"SafeERC20FailedOperation","inputs":[{"name":"token","type":"address","internalType":"address"}]}],"bytecode":{"object":"0x60c060405234801561000f575f5ffd5b506040516127da3803806127da833981810160405281019061003191906102af565b600180819055508173ffffffffffffffffffffffffffffffffffffffff1660808173ffffffffffffffffffffffffffffffffffffffff16815250508073ffffffffffffffffffffffffffffffffffffffff1660a08173ffffffffffffffffffffffffffffffffffffffff1681525050426005819055506100b95f5f1b336100f260201b60201c565b506100ea7ffbd454f36a7e1a388bd6fc3ab10d434aa4578f811acbbcf33afb1c697486313c336100f260201b60201c565b5050506102ed565b5f61010383836101e760201b60201c565b6101dd5760015f5f8581526020019081526020015f205f015f8473ffffffffffffffffffffffffffffffffffffffff1673ffffffffffffffffffffffffffffffffffffffff1681526020019081526020015f205f6101000a81548160ff02191690831515021790555061017a61024a60201b60201c565b73ffffffffffffffffffffffffffffffffffffffff168273ffffffffffffffffffffffffffffffffffffffff16847f2f8788117e7eff1d82e926ec794901d17c78024a50270940304540a733656f0d60405160405180910390a4600190506101e1565b5f90505b92915050565b5f5f5f8481526020019081526020015f205f015f8373ffffffffffffffffffffffffffffffffffffffff1673ffffffffffffffffffffffffffffffffffffffff1681526020019081526020015f205f9054906101000a900460ff16905092915050565b5f33905090565b5f5ffd5b5f73ffffffffffffffffffffffffffffffffffffffff82169050919050565b5f61027e82610255565b9050919050565b61028e81610274565b8114610298575f5ffd5b50565b5f815190506102a981610285565b92915050565b5f5f604083850312156102c5576102c4610251565b5b5f6102d28582860161029b565b92505060206102e38582860161029b565b9150509250929050565b60805160a0516124b061032a5f395f818161070e01528181610a7e015261195501525f8181610a2901528181610c98015261120601526124b05ff3fe608060405234801561000f575f5ffd5b50600436106101c2575f3560e01c806391d14854116100f7578063c6b61e4c11610095578063f0bd87cc1161006f578063f0bd87cc14610526578063f53aaf8414610544578063f6ed201714610562578063f70b5c0614610592576101c2565b8063c6b61e4c146104a4578063ccdcbf38146104d8578063d547741f1461050a576101c2565b8063a0f2cab5116100d1578063a0f2cab51461042e578063a217fddf1461045e578063a70b9f0c1461047c578063c2c4c5c11461049a576101c2565b806391d14854146103c2578063923e3379146103f25780639c81ff6b14610410576101c2565b806336568abe11610164578063744f4cf61161013e578063744f4cf61461034c57806376671808146103685780638796f4aa1461038657806389c614b8146103a4576101c2565b806336568abe146102e25780634e71d92d146102fe57806366e305fd1461031c576101c2565b8063224d2baa116101a0578063224d2baa1461025c578063248a9ca31461027857806324e7964a146102a85780632f2ff15d146102c6576101c2565b806301ffc9a7146101c6578063135022c2146101f65780631959a0021461022a575b5f5ffd5b6101e060048036038101906101db9190611baa565b6105b0565b6040516101ed9190611bef565b60405180910390f35b610210600480360381019061020b9190611c3b565b610629565b604051610221959493929190611c75565b60405180910390f35b610244600480360381019061023f9190611d20565b61067a565b60405161025393929190611d4b565b60405180910390f35b61027660048036038101906102719190611d20565b6106a0565b005b610292600480360381019061028d9190611db3565b6106f0565b60405161029f9190611ded565b60405180910390f35b6102b061070c565b6040516102bd9190611e61565b60405180910390f35b6102e060048036038101906102db9190611e7a565b610730565b005b6102fc60048036038101906102f79190611e7a565b610752565b005b6103066107cd565b6040516103139190611eb8565b60405180910390f35b61033660048036038101906103319190611d20565b610a7b565b6040516103439190611bef565b60405180910390f35b61036660048036038101906103619190611c3b565b610c24565b005b610370610d34565b60405161037d9190611eb8565b60405180910390f35b61038e610d3a565b60405161039b9190611eb8565b60405180910390f35b6103ac610d46565b6040516103b99190611eb8565b60405180910390f35b6103dc60048036038101906103d79190611e7a565b610d4c565b6040516103e99190611bef565b60405180910390f35b6103fa610daf565b6040516104079190611ef1565b60405180910390f35b610418610dd4565b6040516104259190611eb8565b60405180910390f35b61044860048036038101906104439190611c3b565b610dda565b6040516104559190611f19565b60405180910390f35b610466610e15565b6040516104739190611ded565b60405180910390f35b610484610e1b565b6040516104919190611eb8565b60405180910390f35b6104a2610e22565b005b6104be60048036038101906104b99190611c3b565b610ecc565b6040516104cf959493929190611c75565b60405180910390f35b6104f260048036038101906104ed9190611f32565b610f0a565b60405161050193929190611f70565b60405180910390f35b610524600480360381019061051f9190611e7a565b610ffa565b005b61052e61101c565b60405161053b9190611ded565b60405180910390f35b61054c611040565b6040516105599190611ded565b60405180910390f35b61057c60048036038101906105779190611d20565b611064565b6040516105899190611eb8565b60405180910390f35b61059a611204565b6040516105a79190611fc5565b60405180910390f35b5f7f7965db0b000000000000000000000000000000000000000000000000000000007bffffffffffffffffffffffffffffffffffffffffffffffffffffffff1916827bffffffffffffffffffffffffffffffffffffffffffffffffffffffff19161480610622575061062182611228565b5b9050919050565b5f5f5f5f5f5f60065f8881526020019081526020015f209050805f0154816001015482600201548360030154846004015f9054906101000a900460ff16955095509550955095505091939590929450565b6007602052805f5260405f205f91509050805f0154908060010154908060020154905083565b5f5f1b6106ac81611291565b8160025f6101000a81548173ffffffffffffffffffffffffffffffffffffffff021916908373ffffffffffffffffffffffffffffffffffffffff1602179055505050565b5f5f5f8381526020019081526020015f20600101549050919050565b7f000000000000000000000000000000000000000000000000000000000000000081565b610739826106f0565b61074281611291565b61074c83836112a5565b50505050565b61075a61138e565b73ffffffffffffffffffffffffffffffffffffffff168173ffffffffffffffffffffffffffffffffffffffff16146107be576040517f6697b23200000000000000000000000000000000000000000000000000000000815260040160405180910390fd5b6107c88282611395565b505050565b5f6107d661147e565b5f3390505f60075f8373ffffffffffffffffffffffffffffffffffffffff1673ffffffffffffffffffffffffffffffffffffffff1681526020019081526020015f2090505f92505f815f015490505b6003548110156109f5575f60065f8381526020019081526020015f209050806004015f9054906101000a900460ff1615806108a85750806006015f8573ffffffffffffffffffffffffffffffffffffffff1673ffffffffffffffffffffffffffffffffffffffff1681526020019081526020015f205f9054906101000a900460ff165b156108b357506109e8565b5f816005015f8673ffffffffffffffffffffffffffffffffffffffff1673ffffffffffffffffffffffffffffffffffffffff1681526020019081526020015f205490505f81036109045750506109e8565b5f826003015482846002015461091a919061200b565b6109249190612079565b90505f8111156109e4576001836006015f8873ffffffffffffffffffffffffffffffffffffffff1673ffffffffffffffffffffffffffffffffffffffff1681526020019081526020015f205f6101000a81548160ff021916908315150217905550808761099191906120a9565b96508573ffffffffffffffffffffffffffffffffffffffff167fdacbdde355ba930696a362ea6738feb9f8bd52dfb3d81947558fd3217e23e32582866040516109db9291906120dc565b60405180910390a25b5050505b8080600101915050610825565b505f831115610a6e57600354815f018190555082816001015f828254610a1b91906120a9565b92505081905550610a6d82847f000000000000000000000000000000000000000000000000000000000000000073ffffffffffffffffffffffffffffffffffffffff166114c49092919063ffffffff16565b5b5050610a78611543565b90565b5f7f000000000000000000000000000000000000000000000000000000000000000073ffffffffffffffffffffffffffffffffffffffff16637da807a6836040518263ffffffff1660e01b8152600401610ad59190611f19565b602060405180830381865afa158015610af0573d5f5f3e3d5ffd5b505050506040513d601f19601f82011682018060405250810190610b14919061212d565b610b20575f9050610c1f565b5f73ffffffffffffffffffffffffffffffffffffffff1660025f9054906101000a900473ffffffffffffffffffffffffffffffffffffffff1673ffffffffffffffffffffffffffffffffffffffff1614610c1a5760025f9054906101000a900473ffffffffffffffffffffffffffffffffffffffff1673ffffffffffffffffffffffffffffffffffffffff16637782cec6836040518263ffffffff1660e01b8152600401610bce9190611f19565b602060405180830381865afa158015610be9573d5f5f3e3d5ffd5b505050506040513d601f19601f82011682018060405250810190610c0d919061212d565b610c19575f9050610c1f565b5b600190505b919050565b7f130f51610bfe2470ee62b917209d7e2dff555ce476bbe4da002df1931f1c11d8610c4e81611291565b5f8211610c90576040517f08c379a0000000000000000000000000000000000000000000000000000000008152600401610c87906121b2565b60405180910390fd5b610cdd3330847f000000000000000000000000000000000000000000000000000000000000000073ffffffffffffffffffffffffffffffffffffffff1661154c909392919063ffffffff16565b8160045f828254610cee91906120a9565b925050819055507fddb861ab0397f186ae24cb62cf18b57dd03b90f496ad8c13da1c4495cb1b5f7682600454604051610d289291906120dc565b60405180910390a15050565b60035481565b670de0b6b3a764000081565b60055481565b5f5f5f8481526020019081526020015f205f015f8373ffffffffffffffffffffffffffffffffffffffff1673ffffffffffffffffffffffffffffffffffffffff1681526020019081526020015f205f9054906101000a900460ff16905092915050565b60025f9054906101000a900473ffffffffffffffffffffffffffffffffffffffff1681565b60045481565b60088181548110610de9575f80fd5b905f5260205f20015f915054906101000a900473ffffffffffffffffffffffffffffffffffffffff1681565b5f5f1b81565b62093a8081565b62093a80600554610e3391906120a9565b421015610e75576040517f08c379a0000000000000000000000000000000000000000000000000000000008152600401610e6c9061221a565b60405180910390fd5b670de0b6b3a76400006004541015610ec2576040517f08c379a0000000000000000000000000000000000000000000000000000000008152600401610eb990612282565b60405180910390fd5b610eca6115ce565b565b6006602052805f5260405f205f91509050805f015490806001015490806002015490806003015490806004015f9054906101000a900460ff16905085565b5f5f5f5f60065f8681526020019081526020015f209050806005015f8773ffffffffffffffffffffffffffffffffffffffff1673ffffffffffffffffffffffffffffffffffffffff1681526020019081526020015f20549350806006015f8773ffffffffffffffffffffffffffffffffffffffff1673ffffffffffffffffffffffffffffffffffffffff1681526020019081526020015f205f9054906101000a900460ff1692505f84118015610fc357505f8160030154115b15610fee578060030154848260020154610fdd919061200b565b610fe79190612079565b9150610ff2565b5f91505b509250925092565b611003826106f0565b61100c81611291565b6110168383611395565b50505050565b7ffbd454f36a7e1a388bd6fc3ab10d434aa4578f811acbbcf33afb1c697486313c81565b7f130f51610bfe2470ee62b917209d7e2dff555ce476bbe4da002df1931f1c11d881565b5f5f60075f8473ffffffffffffffffffffffffffffffffffffffff1673ffffffffffffffffffffffffffffffffffffffff1681526020019081526020015f206040518060600160405290815f82015481526020016001820154815260200160028201548152505090505f91505f815f015190505b6003548110156111fd575f60065f8381526020019081526020015f209050806004015f9054906101000a900460ff16158061115b5750806006015f8673ffffffffffffffffffffffffffffffffffffffff1673ffffffffffffffffffffffffffffffffffffffff1681526020019081526020015f205f9054906101000a900460ff165b1561116657506111f0565b5f816005015f8773ffffffffffffffffffffffffffffffffffffffff1673ffffffffffffffffffffffffffffffffffffffff1681526020019081526020015f205490505f811180156111bb57505f8260030154115b156111ed5781600301548183600201546111d5919061200b565b6111df9190612079565b856111ea91906120a9565b94505b50505b80806001019150506110d8565b5050919050565b7f000000000000000000000000000000000000000000000000000000000000000081565b5f7f01ffc9a7000000000000000000000000000000000000000000000000000000007bffffffffffffffffffffffffffffffffffffffffffffffffffffffff1916827bffffffffffffffffffffffffffffffffffffffffffffffffffffffff1916149050919050565b6112a28161129d61138e565b611810565b50565b5f6112b08383610d4c565b6113845760015f5f8581526020019081526020015f205f015f8473ffffffffffffffffffffffffffffffffffffffff1673ffffffffffffffffffffffffffffffffffffffff1681526020019081526020015f205f6101000a81548160ff02191690831515021790555061132161138e565b73ffffffffffffffffffffffffffffffffffffffff168273ffffffffffffffffffffffffffffffffffffffff16847f2f8788117e7eff1d82e926ec794901d17c78024a50270940304540a733656f0d60405160405180910390a460019050611388565b5f90505b92915050565b5f33905090565b5f6113a08383610d4c565b15611474575f5f5f8581526020019081526020015f205f015f8473ffffffffffffffffffffffffffffffffffffffff1673ffffffffffffffffffffffffffffffffffffffff1681526020019081526020015f205f6101000a81548160ff02191690831515021790555061141161138e565b73ffffffffffffffffffffffffffffffffffffffff168273ffffffffffffffffffffffffffffffffffffffff16847ff6391f5c32d9c69d2a47ea670b442974b53935d1edc7fd64eb21e047a839171b60405160405180910390a460019050611478565b5f90505b92915050565b6002600154036114ba576040517f3ee5aeb500000000000000000000000000000000000000000000000000000000815260040160405180910390fd5b6002600181905550565b61153e838473ffffffffffffffffffffffffffffffffffffffff1663a9059cbb85856040516024016114f79291906122a0565b604051602081830303815290604052915060e01b6020820180517bffffffffffffffffffffffffffffffffffffffffffffffffffffffff8381831617835250505050611861565b505050565b60018081905550565b6115c8848573ffffffffffffffffffffffffffffffffffffffff166323b872dd868686604051602401611581939291906122c7565b604051602081830303815290604052915060e01b6020820180517bffffffffffffffffffffffffffffffffffffffffffffffffffffffff8381831617835250505050611861565b50505050565b5f60035490505f60065f8381526020019081526020015f209050600554815f018190555042816001018190555060045481600201819055505f5f905060085f6116179190611b18565b5f6116206118fc565b90505f5f90505b8151811015611781575f828281518110611644576116436122fc565b5b6020026020010151905061165781610a7b565b15611773575f61166682611951565b90505f8111156117715780866005015f8473ffffffffffffffffffffffffffffffffffffffff1673ffffffffffffffffffffffffffffffffffffffff1681526020019081526020015f208190555080856116c091906120a9565b9450600882908060018154018082558091505060019003905f5260205f20015f9091909190916101000a81548173ffffffffffffffffffffffffffffffffffffffff021916908373ffffffffffffffffffffffffffffffffffffffff1602179055508173ffffffffffffffffffffffffffffffffffffffff167fe29d35093005f4d575e1003753426b57a7f64378ba73332eef9c6ccc2b8decd6826040516117689190611eb8565b60405180910390a25b505b508080600101915050611627565b508183600301819055506001836004015f6101000a81548160ff021916908315150217905550837fb463d19ecf455be65365092cf8e1db6934a0334cf8cd532ddf9964d01f36b5b28460020154846040516117dd9291906120dc565b60405180910390a260035f8154809291906117f790612329565b9190505550426005819055505f60048190555050505050565b61181a8282610d4c565b61185d5780826040517fe2517d3f000000000000000000000000000000000000000000000000000000008152600401611854929190612370565b60405180910390fd5b5050565b5f5f60205f8451602086015f885af180611880576040513d5f823e3d81fd5b3d92505f519150505f82146118995760018114156118b4565b5f8473ffffffffffffffffffffffffffffffffffffffff163b145b156118f657836040517f5274afe70000000000000000000000000000000000000000000000000000000081526004016118ed9190611f19565b60405180910390fd5b50505050565b60605f5f67ffffffffffffffff81111561191957611918612397565b5b6040519080825280602002602001820160405280156119475781602001602082028036833780820191505090505b5090508091505090565b5f5f7f000000000000000000000000000000000000000000000000000000000000000073ffffffffffffffffffffffffffffffffffffffff1663c3453153846040518263ffffffff1660e01b81526004016119ac9190611f19565b60a060405180830381865afa1580156119c7573d5f5f3e3d5ffd5b505050506040513d601f19601f820116820180604052508101906119eb91906123d8565b5050505090505f8103611a01575f915050611b13565b5f606490505f73ffffffffffffffffffffffffffffffffffffffff1660025f9054906101000a900473ffffffffffffffffffffffffffffffffffffffff1673ffffffffffffffffffffffffffffffffffffffff1614611af65760025f9054906101000a900473ffffffffffffffffffffffffffffffffffffffff1673ffffffffffffffffffffffffffffffffffffffff1663b107e88c856040518263ffffffff1660e01b8152600401611ab49190611f19565b602060405180830381865afa158015611acf573d5f5f3e3d5ffd5b505050506040513d601f19601f82011682018060405250810190611af3919061244f565b90505b60648183611b04919061200b565b611b0e9190612079565b925050505b919050565b5080545f8255905f5260205f2090810190611b339190611b36565b50565b5b80821115611b4d575f815f905550600101611b37565b5090565b5f5ffd5b5f7fffffffff0000000000000000000000000000000000000000000000000000000082169050919050565b611b8981611b55565b8114611b93575f5ffd5b50565b5f81359050611ba481611b80565b92915050565b5f60208284031215611bbf57611bbe611b51565b5b5f611bcc84828501611b96565b91505092915050565b5f8115159050919050565b611be981611bd5565b82525050565b5f602082019050611c025f830184611be0565b92915050565b5f819050919050565b611c1a81611c08565b8114611c24575f5ffd5b50565b5f81359050611c3581611c11565b92915050565b5f60208284031215611c5057611c4f611b51565b5b5f611c5d84828501611c27565b91505092915050565b611c6f81611c08565b82525050565b5f60a082019050611c885f830188611c66565b611c956020830187611c66565b611ca26040830186611c66565b611caf6060830185611c66565b611cbc6080830184611be0565b9695505050505050565b5f73ffffffffffffffffffffffffffffffffffffffff82169050919050565b5f611cef82611cc6565b9050919050565b611cff81611ce5565b8114611d09575f5ffd5b50565b5f81359050611d1a81611cf6565b92915050565b5f60208284031215611d3557611d34611b51565b5b5f611d4284828501611d0c565b91505092915050565b5f606082019050611d5e5f830186611c66565b611d6b6020830185611c66565b611d786040830184611c66565b949350505050565b5f819050919050565b611d9281611d80565b8114611d9c575f5ffd5b50565b5f81359050611dad81611d89565b92915050565b5f60208284031215611dc857611dc7611b51565b5b5f611dd584828501611d9f565b91505092915050565b611de781611d80565b82525050565b5f602082019050611e005f830184611dde565b92915050565b5f819050919050565b5f611e29611e24611e1f84611cc6565b611e06565b611cc6565b9050919050565b5f611e3a82611e0f565b9050919050565b5f611e4b82611e30565b9050919050565b611e5b81611e41565b82525050565b5f602082019050611e745f830184611e52565b92915050565b5f5f60408385031215611e9057611e8f611b51565b5b5f611e9d85828601611d9f565b9250506020611eae85828601611d0c565b9150509250929050565b5f602082019050611ecb5f830184611c66565b92915050565b5f611edb82611e30565b9050919050565b611eeb81611ed1565b82525050565b5f602082019050611f045f830184611ee2565b92915050565b611f1381611ce5565b82525050565b5f602082019050611f2c5f830184611f0a565b92915050565b5f5f60408385031215611f4857611f47611b51565b5b5f611f5585828601611d0c565b9250506020611f6685828601611c27565b9150509250929050565b5f606082019050611f835f830186611c66565b611f906020830185611be0565b611f9d6040830184611c66565b949350505050565b5f611faf82611e30565b9050919050565b611fbf81611fa5565b82525050565b5f602082019050611fd85f830184611fb6565b92915050565b7f4e487b71000000000000000000000000000000000000000000000000000000005f52601160045260245ffd5b5f61201582611c08565b915061202083611c08565b925082820261202e81611c08565b9150828204841483151761204557612044611fde565b5b5092915050565b7f4e487b71000000000000000000000000000000000000000000000000000000005f52601260045260245ffd5b5f61208382611c08565b915061208e83611c08565b92508261209e5761209d61204c565b5b828204905092915050565b5f6120b382611c08565b91506120be83611c08565b92508282019050808211156120d6576120d5611fde565b5b92915050565b5f6040820190506120ef5f830185611c66565b6120fc6020830184611c66565b9392505050565b61210c81611bd5565b8114612116575f5ffd5b50565b5f8151905061212781612103565b92915050565b5f6020828403121561214257612141611b51565b5b5f61214f84828501612119565b91505092915050565b5f82825260208201905092915050565b7f416d6f756e74206d757374206265203e203000000000000000000000000000005f82015250565b5f61219c601283612158565b91506121a782612168565b602082019050919050565b5f6020820190508181035f8301526121c981612190565b9050919050565b7f45706f6368206e6f7420726561647900000000000000000000000000000000005f82015250565b5f612204600f83612158565b915061220f826121d0565b602082019050919050565b5f6020820190508181035f830152612231816121f8565b9050919050565b7f496e73756666696369656e7420726577617264730000000000000000000000005f82015250565b5f61226c601483612158565b915061227782612238565b602082019050919050565b5f6020820190508181035f83015261229981612260565b9050919050565b5f6040820190506122b35f830185611f0a565b6122c06020830184611c66565b9392505050565b5f6060820190506122da5f830186611f0a565b6122e76020830185611f0a565b6122f46040830184611c66565b949350505050565b7f4e487b71000000000000000000000000000000000000000000000000000000005f52603260045260245ffd5b5f61233382611c08565b91507fffffffffffffffffffffffffffffffffffffffffffffffffffffffffffffffff820361236557612364611fde565b5b600182019050919050565b5f6040820190506123835f830185611f0a565b6123906020830184611dde565b9392505050565b7f4e487b71000000000000000000000000000000000000000000000000000000005f52604160045260245ffd5b5f815190506123d281611c11565b92915050565b5f5f5f5f5f60a086880312156123f1576123f0611b51565b5b5f6123fe888289016123c4565b955050602061240f888289016123c4565b9450506040612420888289016123c4565b9350506060612431888289016123c4565b9250506080612442888289016123c4565b9150509295509295909350565b5f6020828403121561246457612463611b51565b5b5f612471848285016123c4565b9150509291505056fea264697066735822122090cb160c0fe98b0a4704dabf251acdcf5d4c08d1ec887e4f3956f5b6c6ed0fe564736f6c634300081e0033","linkReferences":{}},"methodIdentifiers":{"ACCRUER_ROLE()":"f53aaf84","DEFAULT_ADMIN_ROLE()":"a217fddf","DISTRIBUTOR_ROLE()":"f0bd87cc","EPOCH_DURATION()":"a70b9f0c","MIN_DISTRIBUTION()":"8796f4aa","accrue(uint256)":"744f4cf6","accumulatedRewards()":"9c81ff6b","checkpoint()":"c2c4c5c1","claim()":"4e71d92d","currentEpoch()":"76671808","eligibleUsers(uint256)":"a0f2cab5","epochs(uint256)":"c6b61e4c","getEpochInfo(uint256)":"135022c2","getPendingRewards(address)":"f6ed2017","getRoleAdmin(bytes32)":"248a9ca3","getUserEpochInfo(address,uint256)":"ccdcbf38","grantRole(bytes32,address)":"2f2ff15d","hasRole(bytes32,address)":"91d14854","isEligible(address)":"66e305fd","lastEpochTime()":"89c614b8","mdtToken()":"f70b5c06","renounceRole(bytes32,address)":"36568abe","reputationSBT()":"923e3379","revokeRole(bytes32,address)":"d547741f","setReputationSBT(address)":"224d2baa","stakingVault()":"24e7964a","supportsInterface(bytes4)":"01ffc9a7","userInfo(address)":"1959a002"},"id":4}