{"abi":[{"type":"constructor","inputs":[{"name":"_mdtToken","type":"address","internalType":"address"}],"stateMutability":"nonpayable"},{"type":"function","name":"CONTENT_REGISTRY_ROLE","inputs":[],"outputs":[{"name":"","type":"bytes32","internalType":"bytes32"}],"stateMutability":"view"},{"type":"function","name":"DEFAULT_ADMIN_ROLE","inputs":[],"outputs":[{"name":"","type":"bytes32","internalType":"bytes32"}],"stateMutability":"view"},{"type":"function","name":"MAX_SLASHING_PERCENT","inputs":[],"outputs":[{"name":"","type":"uint256","internalType":"uint256"}],"stateMutability":"view"},{"type":"function","name":"MINIMUM_STAKE","inputs":[],"outputs":[{"name":"","type":"uint256","internalType":"uint256"}],"stateMutability":"view"},{"type":"function","name":"SLASHER_ROLE","inputs":[],"outputs":[{"name":"","type":"bytes32","internalType":"bytes32"}],"stateMutability":"view"},{"type":"function","name":"contentBonds","inputs":[{"name":"","type":"bytes32","internalType":"bytes32"}],"outputs":[{"name":"","type":"uint256","internalType":"uint256"}],"stateMutability":"view"},{"type":"function","name":"deposit","inputs":[{"name":"amount","type":"uint256","internalType":"uint256"}],"outputs":[],"stateMutability":"nonpayable"},{"type":"function","name":"getRoleAdmin","inputs":[{"name":"role","type":"bytes32","internalType":"bytes32"}],"outputs":[{"name":"","type":"bytes32","internalType":"bytes32"}],"stateMutability":"view"},{"type":"function","name":"getStakeInfo","inputs":[{"name":"user","type":"address","internalType":"address"}],"outputs":[{"name":"totalAmount","type":"uint256","internalType":"uint256"},{"name":"available","type":"uint256","internalType":"uint256"},{"name":"locked","type":"uint256","internalType":"uint256"},{"name":"stakedAt","type":"uint256","internalType":"uint256"},{"name":"stakeAge","type":"uint256","internalType":"uint256"}],"stateMutability":"view"},{"type":"function","name":"grantRole","inputs":[{"name":"role","type":"bytes32","internalType":"bytes32"},{"name":"account","type":"address","internalType":"address"}],"outputs":[],"stateMutability":"nonpayable"},{"type":"function","name":"hasRole","inputs":[{"name":"role","type":"bytes32","internalType":"bytes32"},{"name":"account","type":"address","internalType":"address"}],"outputs":[{"name":"","type":"bool","internalType":"bool"}],"stateMutability":"view"},{"type":"function","name":"isEligibleStaker","inputs":[{"name":"user","type":"address","internalType":"address"}],"outputs":[{"name":"","type":"bool","internalType":"bool"}],"stateMutability":"view"},{"type":"function","name":"mdtToken","inputs":[],"outputs":[{"name":"","type":"address","internalType":"contract IERC20"}],"stateMutability":"view"},{"type":"function","name":"releaseContentBond","inputs":[{"name":"user","type":"address","internalType":"address"},{"name":"contentId","type":"bytes32","internalType":"bytes32"}],"outputs":[],"stateMutability":"nonpayable"},{"type":"function","name":"renounceRole","inputs":[{"name":"role","type":"bytes32","internalType":"bytes32"},{"name":"callerConfirmation","type":"address","internalType":"address"}],"outputs":[],"stateMutability":"nonpayable"},{"type":"function","name":"reserveForContent","inputs":[{"name":"user","type":"address","internalType":"address"},{"name":"contentId","type":"bytes32","internalType":"bytes32"},{"name":"amount","type":"uint256","internalType":"uint256"}],"outputs":[],"stateMutability":"nonpayable"},{"type":"function","name":"revokeRole","inputs":[{"name":"role","type":"bytes32","internalType":"bytes32"},{"name":"account","type":"address","internalType":"address"}],"outputs":[],"stateMutability":"nonpayable"},{"type":"function","name":"slash","inputs":[{"name":"user","type":"address","internalType":"address"},{"name":"amount","type":"uint256","internalType":"uint256"},{"name":"reason","type":"string","internalType":"string"}],"outputs":[{"name":"slashedAmount","type":"uint256","internalType":"uint256"}],"stateMutability":"nonpayable"},{"type":"function","name":"slashContentBond","inputs":[{"name":"user","type":"address","internalType":"address"},{"name":"contentId","type":"bytes32","internalType":"bytes32"},{"name":"amount","type":"uint256","internalType":"uint256"},{"name":"recipient","type":"address","internalType":"address"}],"outputs":[{"name":"slashedAmount","type":"uint256","internalType":"uint256"}],"stateMutability":"nonpayable"},{"type":"function","name":"supportsInterface","inputs":[{"name":"interfaceId","type":"bytes4","internalType":"bytes4"}],"outputs":[{"name":"","type":"bool","internalType":"bool"}],"stateMutability":"view"},{"type":"function","name":"totalLocked","inputs":[],"outputs":[{"name":"","type":"uint256","internalType":"uint256"}],"stateMutability":"view"},{"type":"function","name":"totalStaked","inputs":[],"outputs":[{"name":"","type":"uint256","internalType":"uint256"}],"stateMutability":"view"},{"type":"function","name":"userContentBonds","inputs":[{"name":"","type":"address","internalType":"address"},{"name":"","type":"bytes32","internalType":"bytes32"}],"outputs":[{"name":"","type":"uint256","internalType":"uint256"}],"stateMutability":"view"},{"type":"function","name":"userStakes","inputs":[{"name":"","type":"address","internalType":"address"}],"outputs":[{"name":"amount","type":"uint256","internalType":"uint256"},{"name":"locked","type":"uint256","internalType":"uint256"},{"name":"stakedAt","type":"uint256","internalType":"uint256"},{"name":"lastSlashedAt","type":"uint256","internalType":"uint256"}],"stateMutability":"view"},{"type":"function","name":"withdraw","inputs":[{"name":"amount","type":"uint256","internalType":"uint256"}],"outputs":[],"stateMutability":"nonpayable"},{"type":"event","name":"BondReleased","inputs":[{"name":"user","type":"address","indexed":true,"internalType":"address"},{"name":"contentId","type":"bytes32","indexed":true,"internalType":"bytes32"},{"name":"amount","type":"uint256","indexed":false,"internalType":"uint256"}],"anonymous":false},{"type":"event","name":"BondReserved","inputs":[{"name":"user","type":"address","indexed":true,"internalType":"address"},{"name":"contentId","type":"bytes32","indexed":true,"internalType":"bytes32"},{"name":"amount","type":"uint256","indexed":false,"internalType":"uint256"}],"anonymous":false},{"type":"event","name":"Deposited","inputs":[{"name":"user","type":"address","indexed":true,"internalType":"address"},{"name":"amount","type":"uint256","indexed":false,"internalType":"uint256"}],"anonymous":false},{"type":"event","name":"RoleAdminChanged","inputs":[{"name":"role","type":"bytes32","indexed":true,"internalType":"bytes32"},{"name":"previousAdminRole","type":"bytes32","indexed":true,"internalType":"bytes32"},{"name":"newAdminRole","type":"bytes32","indexed":true,"internalType":"bytes32"}],"anonymous":false},{"type":"event","name":"RoleGranted","inputs":[{"name":"role","type":"bytes32","indexed":true,"internalType":"bytes32"},{"name":"account","type":"address","indexed":true,"internalType":"address"},{"name":"sender","type":"address","indexed":true,"internalType":"address"}],"anonymous":false},{"type":"event","name":"RoleRevoked","inputs":[{"name":"role","type":"bytes32","indexed":true,"internalType":"bytes32"},{"name":"account","type":"address","indexed":true,"internalType":"address"},{"name":"sender","type":"address","indexed":true,"internalType":"address"}],"anonymous":false},{"type":"event","name":"Slashed","inputs":[{"name":"user","type":"address","indexed":true,"internalType":"address"},{"name":"amount","type":"uint256","indexed":false,"internalType":"uint256"},{"name":"reason","type":"string","indexed":false,"internalType":"string"}],"anonymous":false},{"type":"event","name":"Withdrawn","inputs":[{"name":"user","type":"address","indexed":true,"internalType":"address"},{"name":"amount","type":"uint256","indexed":false,"internalType":"uint256"}],"anonymous":false},{"type":"error","name":"AccessControlBadConfirmation","inputs":[]},{"type":"error","name":"AccessControlUnauthorizedAccount","inputs":[{"name":"account","type":"address","internalType":"address"},{"name":"neededRole","type":"bytes32","internalType":"bytes32"}]},{"type":"error","name":"ReentrancyGuardReentrantCall","inputs":[]},{"type":"error","name":"SafeERC20FailedOperation","inputs":[{"name":"token","type":"address","internalType":"address"}]}],"bytecode":{"object":"0x60a060405234801561000f575f5ffd5b5060405161271838038061271883398181016040528101906100319190610243565b60015f819055508073ffffffffffffffffffffffffffffffffffffffff1660808173ffffffffffffffffffffffffffffffffffffffff168152505061007e5f5f1b3361008560201b60201c565b505061026e565b5f610096838361017a60201b60201c565b610170576001805f8581526020019081526020015f205f015f8473ffffffffffffffffffffffffffffffffffffffff1673ffffffffffffffffffffffffffffffffffffffff1681526020019081526020015f205f6101000a81548160ff02191690831515021790555061010d6101de60201b60201c565b73ffffffffffffffffffffffffffffffffffffffff168273ffffffffffffffffffffffffffffffffffffffff16847f2f8788117e7eff1d82e926ec794901d17c78024a50270940304540a733656f0d60405160405180910390a460019050610174565b5f90505b92915050565b5f60015f8481526020019081526020015f205f015f8373ffffffffffffffffffffffffffffffffffffffff1673ffffffffffffffffffffffffffffffffffffffff1681526020019081526020015f205f9054906101000a900460ff16905092915050565b5f33905090565b5f5ffd5b5f73ffffffffffffffffffffffffffffffffffffffff82169050919050565b5f610212826101e9565b9050919050565b61022281610208565b811461022c575f5ffd5b50565b5f8151905061023d81610219565b92915050565b5f60208284031215610258576102576101e5565b5b5f6102658482850161022f565b91505092915050565b60805161247d61029b5f395f818161075b01528181610aef015281816112b901526114f2015261247d5ff3fe608060405234801561000f575f5ffd5b5060043610610171575f3560e01c80636f4fe2d5116100dc578063a217fddf11610095578063d547741f1161006f578063d547741f1461049a578063db55efe8146104b6578063f123328c146104d4578063f70b5c06146104f257610171565b8063a217fddf1461042c578063b6b55f251461044a578063c34531531461046657610171565b80636f4fe2d51461034357806371105b461461035f5780637da807a61461037b578063817b1cd2146103ab5780638da7ad23146103c957806391d14854146103fc57610171565b806344676b5b1161012e57806344676b5b146102475780635095af6414610277578063568914121461029557806359de28a1146102b3578063678b3ee2146102e35780636a33ace21461031357610171565b806301ffc9a71461017557806308dbbb03146101a5578063248a9ca3146101c35780632e1a7d4d146101f35780632f2ff15d1461020f57806336568abe1461022b575b5f5ffd5b61018f600480360381019061018a9190611a02565b610510565b60405161019c9190611a47565b60405180910390f35b6101ad610589565b6040516101ba9190611a78565b60405180910390f35b6101dd60048036038101906101d89190611ac4565b610595565b6040516101ea9190611afe565b60405180910390f35b61020d60048036038101906102089190611b41565b6105b2565b005b61022960048036038101906102249190611bc6565b6107fa565b005b61024560048036038101906102409190611bc6565b61081c565b005b610261600480360381019061025c9190611c04565b610897565b60405161026e9190611a78565b60405180910390f35b61027f6108b7565b60405161028c9190611afe565b60405180910390f35b61029d6108db565b6040516102aa9190611a78565b60405180910390f35b6102cd60048036038101906102c89190611c42565b6108e1565b6040516102da9190611a78565b60405180910390f35b6102fd60048036038101906102f89190611d07565b610b8d565b60405161030a9190611a78565b60405180910390f35b61032d60048036038101906103289190611ac4565b610d32565b60405161033a9190611a78565b60405180910390f35b61035d60048036038101906103589190611c04565b610d47565b005b61037960048036038101906103749190611d78565b610f2e565b005b61039560048036038101906103909190611dc8565b6110dc565b6040516103a29190611a47565b60405180910390f35b6103b36111cb565b6040516103c09190611a78565b60405180910390f35b6103e360048036038101906103de9190611dc8565b6111d1565b6040516103f39493929190611df3565b60405180910390f35b61041660048036038101906104119190611bc6565b6111fd565b6040516104239190611a47565b60405180910390f35b610434611261565b6040516104419190611afe565b60405180910390f35b610464600480360381019061045f9190611b41565b611267565b005b610480600480360381019061047b9190611dc8565b6113de565b604051610491959493929190611e36565b60405180910390f35b6104b460048036038101906104af9190611bc6565b6114a5565b005b6104be6114c7565b6040516104cb9190611afe565b60405180910390f35b6104dc6114eb565b6040516104e99190611a78565b60405180910390f35b6104fa6114f0565b6040516105079190611ee2565b60405180910390f35b5f7f7965db0b000000000000000000000000000000000000000000000000000000007bffffffffffffffffffffffffffffffffffffffffffffffffffffffff1916827bffffffffffffffffffffffffffffffffffffffffffffffffffffffff19161480610582575061058182611514565b5b9050919050565b678ac7230489e8000081565b5f60015f8381526020019081526020015f20600101549050919050565b6105ba61157d565b5f60025f3373ffffffffffffffffffffffffffffffffffffffff1673ffffffffffffffffffffffffffffffffffffffff1681526020019081526020015f2090505f8160010154825f015461060e9190611f28565b90505f8311610652576040517f08c379a000000000000000000000000000000000000000000000000000000000815260040161064990611fb5565b60405180910390fd5b80831115610695576040517f08c379a000000000000000000000000000000000000000000000000000000000815260040161068c9061201d565b60405180910390fd5b678ac7230489e8000083835f01546106ad9190611f28565b1015806106c757505f83835f01546106c59190611f28565b145b610706576040517f08c379a00000000000000000000000000000000000000000000000000000000081526004016106fd90612085565b60405180910390fd5b82825f015f8282546107189190611f28565b925050819055508260055f8282546107309190611f28565b925050819055505f825f015403610754575f82600201819055505f82600301819055505b61079f33847f000000000000000000000000000000000000000000000000000000000000000073ffffffffffffffffffffffffffffffffffffffff166115c19092919063ffffffff16565b3373ffffffffffffffffffffffffffffffffffffffff167f7084f5476618d8e60b11ef0d7d3f06914655adb8793e28ff7f018d4c76d505d5846040516107e59190611a78565b60405180910390a250506107f7611640565b50565b61080382610595565b61080c81611649565b610816838361165d565b50505050565b610824611746565b73ffffffffffffffffffffffffffffffffffffffff168173ffffffffffffffffffffffffffffffffffffffff1614610888576040517f6697b23200000000000000000000000000000000000000000000000000000000815260040160405180910390fd5b610892828261174d565b505050565b6004602052815f5260405f20602052805f5260405f205f91509150505481565b7f12b42e8a160f6064dc959c6f251e3af0750ad213dbecf573b4710d67d6c28e3981565b60065481565b5f7f12b42e8a160f6064dc959c6f251e3af0750ad213dbecf573b4710d67d6c28e3961090c81611649565b5f60045f8873ffffffffffffffffffffffffffffffffffffffff1673ffffffffffffffffffffffffffffffffffffffff1681526020019081526020015f205f8781526020019081526020015f205490505f811161099e576040517f08c379a0000000000000000000000000000000000000000000000000000000008152600401610995906120ed565b60405180910390fd5b8085116109ab57846109ad565b805b92505f60025f8973ffffffffffffffffffffffffffffffffffffffff1673ffffffffffffffffffffffffffffffffffffffff1681526020019081526020015f20905083815f015f828254610a019190611f28565b9250508190555081816001015f828254610a1b9190611f28565b925050819055508360055f828254610a339190611f28565b925050819055508160065f828254610a4b9190611f28565b9250508190555060035f8881526020019081526020015f205f905560045f8973ffffffffffffffffffffffffffffffffffffffff1673ffffffffffffffffffffffffffffffffffffffff1681526020019081526020015f205f8881526020019081526020015f205f90555f73ffffffffffffffffffffffffffffffffffffffff168573ffffffffffffffffffffffffffffffffffffffff1614610b3457610b3385857f000000000000000000000000000000000000000000000000000000000000000073ffffffffffffffffffffffffffffffffffffffff166115c19092919063ffffffff16565b5b8773ffffffffffffffffffffffffffffffffffffffff167f7e947095ed288d8885423bdaef4015b7420ffa9b84d62ef67c402e8bc36a8ea985604051610b7a9190612155565b60405180910390a2505050949350505050565b5f7f12b42e8a160f6064dc959c6f251e3af0750ad213dbecf573b4710d67d6c28e39610bb881611649565b5f60025f8873ffffffffffffffffffffffffffffffffffffffff1673ffffffffffffffffffffffffffffffffffffffff1681526020019081526020015f2090505f815f015411610c3d576040517f08c379a0000000000000000000000000000000000000000000000000000000008152600401610c34906121cb565b60405180910390fd5b5f60646014835f0154610c5091906121e9565b610c5a9190612257565b9050808711610c695786610c6b565b805b9350815f0154841115610c7f57815f015493505b83825f015f828254610c919190611f28565b92505081905550815f015482600101541115610cb457815f015482600101819055505b4282600301819055508360055f828254610cce9190611f28565b925050819055508773ffffffffffffffffffffffffffffffffffffffff167f7e947095ed288d8885423bdaef4015b7420ffa9b84d62ef67c402e8bc36a8ea9858888604051610d1f939291906122d1565b60405180910390a2505050949350505050565b6003602052805f5260405f205f915090505481565b7f8365d3a9ff3a846719b058d36fbdf3276a463a762daac35b80edfb211245d98c610d7181611649565b5f60045f8573ffffffffffffffffffffffffffffffffffffffff1673ffffffffffffffffffffffffffffffffffffffff1681526020019081526020015f205f8481526020019081526020015f205490505f8111610e03576040517f08c379a0000000000000000000000000000000000000000000000000000000008152600401610dfa906120ed565b60405180910390fd5b5f60025f8673ffffffffffffffffffffffffffffffffffffffff1673ffffffffffffffffffffffffffffffffffffffff1681526020019081526020015f20905081816001015f828254610e569190611f28565b925050819055508160065f828254610e6e9190611f28565b9250508190555060035f8581526020019081526020015f205f905560045f8673ffffffffffffffffffffffffffffffffffffffff1673ffffffffffffffffffffffffffffffffffffffff1681526020019081526020015f205f8581526020019081526020015f205f9055838573ffffffffffffffffffffffffffffffffffffffff167f2643f0e004b9c44af9a6dc8e20da5b95eb5d79682ccf4b2ee42dc544832a6ee884604051610f1f9190611a78565b60405180910390a35050505050565b7f8365d3a9ff3a846719b058d36fbdf3276a463a762daac35b80edfb211245d98c610f5881611649565b5f60025f8673ffffffffffffffffffffffffffffffffffffffff1673ffffffffffffffffffffffffffffffffffffffff1681526020019081526020015f209050828160010154825f0154610fac9190611f28565b1015610fed576040517f08c379a0000000000000000000000000000000000000000000000000000000008152600401610fe49061234b565b60405180910390fd5b82816001015f8282546110009190612369565b925050819055508260065f8282546110189190612369565b925050819055508260035f8681526020019081526020015f20819055508260045f8773ffffffffffffffffffffffffffffffffffffffff1673ffffffffffffffffffffffffffffffffffffffff1681526020019081526020015f205f8681526020019081526020015f2081905550838573ffffffffffffffffffffffffffffffffffffffff167f69e862fd28fdface1642e0c746a872b32a2c4f15dac8ce8dceb38dda89bae9da856040516110cd9190611a78565b60405180910390a35050505050565b5f5f60025f8473ffffffffffffffffffffffffffffffffffffffff1673ffffffffffffffffffffffffffffffffffffffff1681526020019081526020015f206040518060800160405290815f820154815260200160018201548152602001600282015481526020016003820154815250509050678ac7230489e80000815f0151101561116b575f9150506111c6565b62093a8081604001514261117f9190611f28565b101561118e575f9150506111c6565b5f81606001511180156111b25750621275008160600151426111b09190611f28565b105b156111c0575f9150506111c6565b60019150505b919050565b60055481565b6002602052805f5260405f205f91509050805f0154908060010154908060020154908060030154905084565b5f60015f8481526020019081526020015f205f015f8373ffffffffffffffffffffffffffffffffffffffff1673ffffffffffffffffffffffffffffffffffffffff1681526020019081526020015f205f9054906101000a900460ff16905092915050565b5f5f1b81565b61126f61157d565b5f81116112b1576040517f08c379a00000000000000000000000000000000000000000000000000000000081526004016112a890611fb5565b60405180910390fd5b6112fe3330837f000000000000000000000000000000000000000000000000000000000000000073ffffffffffffffffffffffffffffffffffffffff16611837909392919063ffffffff16565b5f60025f3373ffffffffffffffffffffffffffffffffffffffff1673ffffffffffffffffffffffffffffffffffffffff1681526020019081526020015f2090505f816002015403611353574281600201819055505b81815f015f8282546113659190612369565b925050819055508160055f82825461137d9190612369565b925050819055503373ffffffffffffffffffffffffffffffffffffffff167f2da466a7b24304f47e87fa2e1e5a81b9831ce54fec19055ce277ca2f39ba42c4836040516113ca9190611a78565b60405180910390a2506113db611640565b50565b5f5f5f5f5f5f60025f8873ffffffffffffffffffffffffffffffffffffffff1673ffffffffffffffffffffffffffffffffffffffff1681526020019081526020015f206040518060800160405290815f820154815260200160018201548152602001600282015481526020016003820154815250509050805f0151955080602001519350838661146e9190611f28565b9450806040015192505f816040015111611488575f611499565b8060400151426114989190611f28565b5b91505091939590929450565b6114ae82610595565b6114b781611649565b6114c1838361174d565b50505050565b7f8365d3a9ff3a846719b058d36fbdf3276a463a762daac35b80edfb211245d98c81565b601481565b7f000000000000000000000000000000000000000000000000000000000000000081565b5f7f01ffc9a7000000000000000000000000000000000000000000000000000000007bffffffffffffffffffffffffffffffffffffffffffffffffffffffff1916827bffffffffffffffffffffffffffffffffffffffffffffffffffffffff1916149050919050565b60025f54036115b8576040517f3ee5aeb500000000000000000000000000000000000000000000000000000000815260040160405180910390fd5b60025f81905550565b61163b838473ffffffffffffffffffffffffffffffffffffffff1663a9059cbb85856040516024016115f49291906123ab565b604051602081830303815290604052915060e01b6020820180517bffffffffffffffffffffffffffffffffffffffffffffffffffffffff83818316178352505050506118b9565b505050565b60015f81905550565b61165a81611655611746565b611954565b50565b5f61166883836111fd565b61173c576001805f8581526020019081526020015f205f015f8473ffffffffffffffffffffffffffffffffffffffff1673ffffffffffffffffffffffffffffffffffffffff1681526020019081526020015f205f6101000a81548160ff0219169083151502179055506116d9611746565b73ffffffffffffffffffffffffffffffffffffffff168273ffffffffffffffffffffffffffffffffffffffff16847f2f8788117e7eff1d82e926ec794901d17c78024a50270940304540a733656f0d60405160405180910390a460019050611740565b5f90505b92915050565b5f33905090565b5f61175883836111fd565b1561182d575f60015f8581526020019081526020015f205f015f8473ffffffffffffffffffffffffffffffffffffffff1673ffffffffffffffffffffffffffffffffffffffff1681526020019081526020015f205f6101000a81548160ff0219169083151502179055506117ca611746565b73ffffffffffffffffffffffffffffffffffffffff168273ffffffffffffffffffffffffffffffffffffffff16847ff6391f5c32d9c69d2a47ea670b442974b53935d1edc7fd64eb21e047a839171b60405160405180910390a460019050611831565b5f90505b92915050565b6118b3848573ffffffffffffffffffffffffffffffffffffffff166323b872dd86868660405160240161186c939291906123d2565b604051602081830303815290604052915060e01b6020820180517bffffffffffffffffffffffffffffffffffffffffffffffffffffffff83818316178352505050506118b9565b50505050565b5f5f60205f8451602086015f885af1806118d8576040513d5f823e3d81fd5b3d92505f519150505f82146118f157600181141561190c565b5f8473ffffffffffffffffffffffffffffffffffffffff163b145b1561194e57836040517f5274afe70000000000000000000000000000000000000000000000000000000081526004016119459190612407565b60405180910390fd5b50505050565b61195e82826111fd565b6119a15780826040517fe2517d3f000000000000000000000000000000000000000000000000000000008152600401611998929190612420565b60405180910390fd5b5050565b5f5ffd5b5f5ffd5b5f7fffffffff0000000000000000000000000000000000000000000000000000000082169050919050565b6119e1816119ad565b81146119eb575f5ffd5b50565b5f813590506119fc816119d8565b92915050565b5f60208284031215611a1757611a166119a5565b5b5f611a24848285016119ee565b91505092915050565b5f8115159050919050565b611a4181611a2d565b82525050565b5f602082019050611a5a5f830184611a38565b92915050565b5f819050919050565b611a7281611a60565b82525050565b5f602082019050611a8b5f830184611a69565b92915050565b5f819050919050565b611aa381611a91565b8114611aad575f5ffd5b50565b5f81359050611abe81611a9a565b92915050565b5f60208284031215611ad957611ad86119a5565b5b5f611ae684828501611ab0565b91505092915050565b611af881611a91565b82525050565b5f602082019050611b115f830184611aef565b92915050565b611b2081611a60565b8114611b2a575f5ffd5b50565b5f81359050611b3b81611b17565b92915050565b5f60208284031215611b5657611b556119a5565b5b5f611b6384828501611b2d565b91505092915050565b5f73ffffffffffffffffffffffffffffffffffffffff82169050919050565b5f611b9582611b6c565b9050919050565b611ba581611b8b565b8114611baf575f5ffd5b50565b5f81359050611bc081611b9c565b92915050565b5f5f60408385031215611bdc57611bdb6119a5565b5b5f611be985828601611ab0565b9250506020611bfa85828601611bb2565b9150509250929050565b5f5f60408385031215611c1a57611c196119a5565b5b5f611c2785828601611bb2565b9250506020611c3885828601611ab0565b9150509250929050565b5f5f5f5f60808587031215611c5a57611c596119a5565b5b5f611c6787828801611bb2565b9450506020611c7887828801611ab0565b9350506040611c8987828801611b2d565b9250506060611c9a87828801611bb2565b91505092959194509250565b5f5ffd5b5f5ffd5b5f5ffd5b5f5f83601f840112611cc757611cc6611ca6565b5b8235905067ffffffffffffffff811115611ce457611ce3611caa565b5b602083019150836001820283011115611d0057611cff611cae565b5b9250929050565b5f5f5f5f60608587031215611d1f57611d1e6119a5565b5b5f611d2c87828801611bb2565b9450506020611d3d87828801611b2d565b935050604085013567ffffffffffffffff811115611d5e57611d5d6119a9565b5b611d6a87828801611cb2565b925092505092959194509250565b5f5f5f60608486031215611d8f57611d8e6119a5565b5b5f611d9c86828701611bb2565b9350506020611dad86828701611ab0565b9250506040611dbe86828701611b2d565b9150509250925092565b5f60208284031215611ddd57611ddc6119a5565b5b5f611dea84828501611bb2565b91505092915050565b5f608082019050611e065f830187611a69565b611e136020830186611a69565b611e206040830185611a69565b611e2d6060830184611a69565b95945050505050565b5f60a082019050611e495f830188611a69565b611e566020830187611a69565b611e636040830186611a69565b611e706060830185611a69565b611e7d6080830184611a69565b9695505050505050565b5f819050919050565b5f611eaa611ea5611ea084611b6c565b611e87565b611b6c565b9050919050565b5f611ebb82611e90565b9050919050565b5f611ecc82611eb1565b9050919050565b611edc81611ec2565b82525050565b5f602082019050611ef55f830184611ed3565b92915050565b7f4e487b71000000000000000000000000000000000000000000000000000000005f52601160045260245ffd5b5f611f3282611a60565b9150611f3d83611a60565b9250828203905081811115611f5557611f54611efb565b5b92915050565b5f82825260208201905092915050565b7f416d6f756e74206d757374206265203e203000000000000000000000000000005f82015250565b5f611f9f601283611f5b565b9150611faa82611f6b565b602082019050919050565b5f6020820190508181035f830152611fcc81611f93565b9050919050565b7f496e73756666696369656e7420617661696c61626c652062616c616e636500005f82015250565b5f612007601e83611f5b565b915061201282611fd3565b602082019050919050565b5f6020820190508181035f83015261203481611ffb565b9050919050565b7f576f756c6420676f2062656c6f77206d696e696d756d207374616b65000000005f82015250565b5f61206f601c83611f5b565b915061207a8261203b565b602082019050919050565b5f6020820190508181035f83015261209c81612063565b9050919050565b7f4e6f20626f6e6420666f756e64000000000000000000000000000000000000005f82015250565b5f6120d7600d83611f5b565b91506120e2826120a3565b602082019050919050565b5f6020820190508181035f830152612104816120cb565b9050919050565b7f436f6e74656e7420626f6e6420736c61736865640000000000000000000000005f82015250565b5f61213f601483611f5b565b915061214a8261210b565b602082019050919050565b5f6040820190506121685f830184611a69565b818103602083015261217981612133565b905092915050565b7f4e6f207374616b6520746f20736c6173680000000000000000000000000000005f82015250565b5f6121b5601183611f5b565b91506121c082612181565b602082019050919050565b5f6020820190508181035f8301526121e2816121a9565b9050919050565b5f6121f382611a60565b91506121fe83611a60565b925082820261220c81611a60565b9150828204841483151761222357612222611efb565b5b5092915050565b7f4e487b71000000000000000000000000000000000000000000000000000000005f52601260045260245ffd5b5f61226182611a60565b915061226c83611a60565b92508261227c5761227b61222a565b5b828204905092915050565b828183375f83830152505050565b5f601f19601f8301169050919050565b5f6122b08385611f5b565b93506122bd838584612287565b6122c683612295565b840190509392505050565b5f6040820190506122e45f830186611a69565b81810360208301526122f78184866122a5565b9050949350505050565b7f496e73756666696369656e7420617661696c61626c65207374616b65000000005f82015250565b5f612335601c83611f5b565b915061234082612301565b602082019050919050565b5f6020820190508181035f83015261236281612329565b9050919050565b5f61237382611a60565b915061237e83611a60565b925082820190508082111561239657612395611efb565b5b92915050565b6123a581611b8b565b82525050565b5f6040820190506123be5f83018561239c565b6123cb6020830184611a69565b9392505050565b5f6060820190506123e55f83018661239c565b6123f2602083018561239c565b6123ff6040830184611a69565b949350505050565b5f60208201905061241a5f83018461239c565b92915050565b5f6040820190506124335f83018561239c565b6124406020830184611aef565b939250505056fea2646970667358221220d716deda25479d3461594f01bd13a712d538123c91a3e68f21bedc99f6a3d65564736f6c634300081e0033","linkReferences":{}},"methodIdentifiers":{"CONTENT_REGISTRY_ROLE()":"db55efe8","DEFAULT_ADMIN_ROLE()":"a217fddf","MAX_SLASHING_PERCENT()":"f123328c","MINIMUM_STAKE()":"08dbbb03","SLASHER_ROLE()":"5095af64","contentBonds(bytes32)":"6a33ace2","deposit(uint256)":"b6b55f25","getRoleAdmin(bytes32)":"248a9ca3","getStakeInfo(address)":"c3453153","grantRole(bytes32,address)":"2f2ff15d","hasRole(bytes32,address)":"91d14854","isEligibleStaker(address)":"7da807a6","mdtToken()":"f70b5c06","releaseContentBond(address,bytes32)":"6f4fe2d5","renounceRole(bytes32,address)":"36568abe","reserveForContent(address,bytes32,uint256)":"71105b46","revokeRole(bytes32,address)":"d547741f","slash(address,uint256,string)":"678b3ee2","slashContentBond(address,bytes32,uint256,address)":"59de28a1","supportsInterface(bytes4)":"01ffc9a7","totalLocked()":"56891412","totalStaked()":"817b1cd2","userContentBonds(address,bytes32)":"44676b5b","userStakes(address)":"8da7ad23","withdraw(uint256)":"2e1a7d4d"},"id":5}