{"abi":[{"type":"constructor","inputs":[{"name":"_mdtToken","type":"address","internalType":"address"}],"stateMutability":"nonpayable"},{"type":"receive","stateMutability":"payable"},{"type":"function","name":"DEFAULT_ADMIN_ROLE","inputs":[],"outputs":[{"name":"","type":"bytes32","internalType":"bytes32"}],"stateMutability":"view"},{"type":"function","name":"DISTRIBUTOR_ROLE","inputs":[],"outputs":[{"name":"","type":"bytes32","internalType":"bytes32"}],"stateMutability":"view"},{"type":"function","name":"TREASURER_ROLE","inputs":[],"outputs":[{"name":"","type":"bytes32","internalType":"bytes32"}],"stateMutability":"view"},{"type":"function","name":"allocateToBountyPool","inputs":[{"name":"amount","type":"uint256","internalType":"uint256"}],"outputs":[],"stateMutability":"nonpayable"},{"type":"function","name":"bounties","inputs":[{"name":"","type":"uint256","internalType":"uint256"}],"outputs":[{"name":"description","type":"string","internalType":"string"},{"name":"reward","type":"uint256","internalType":"uint256"},{"name":"claimant","type":"address","internalType":"address"},{"name":"claimed","type":"bool","internalType":"bool"},{"name":"createdAt","type":"uint256","internalType":"uint256"},{"name":"claimedAt","type":"uint256","internalType":"uint256"}],"stateMutability":"view"},{"type":"function","name":"bountyClaimantTotals","inputs":[{"name":"","type":"address","internalType":"address"}],"outputs":[{"name":"","type":"uint256","internalType":"uint256"}],"stateMutability":"view"},{"type":"function","name":"bountyPool","inputs":[],"outputs":[{"name":"","type":"uint256","internalType":"uint256"}],"stateMutability":"view"},{"type":"function","name":"claimBounty","inputs":[{"name":"bountyId","type":"uint256","internalType":"uint256"},{"name":"claimant","type":"address","internalType":"address"}],"outputs":[],"stateMutability":"nonpayable"},{"type":"function","name":"communityFund","inputs":[],"outputs":[{"name":"","type":"uint256","internalType":"uint256"}],"stateMutability":"view"},{"type":"function","name":"createBounty","inputs":[{"name":"description","type":"string","internalType":"string"},{"name":"reward","type":"uint256","internalType":"uint256"}],"outputs":[{"name":"bountyId","type":"uint256","internalType":"uint256"}],"stateMutability":"nonpayable"},{"type":"function","name":"distribute","inputs":[{"name":"recipient","type":"address","internalType":"address"},{"name":"amount","type":"uint256","internalType":"uint256"},{"name":"reason","type":"string","internalType":"string"}],"outputs":[],"stateMutability":"nonpayable"},{"type":"function","name":"distributions","inputs":[{"name":"","type":"uint256","internalType":"uint256"}],"outputs":[{"name":"recipient","type":"address","internalType":"address"},{"name":"amount","type":"uint256","internalType":"uint256"},{"name":"reason","type":"string","internalType":"string"},{"name":"timestamp","type":"uint256","internalType":"uint256"}],"stateMutability":"view"},{"type":"function","name":"getActiveBounties","inputs":[],"outputs":[{"name":"","type":"uint256[]","internalType":"uint256[]"}],"stateMutability":"view"},{"type":"function","name":"getBountyInfo","inputs":[{"name":"bountyId","type":"uint256","internalType":"uint256"}],"outputs":[{"name":"description","type":"string","internalType":"string"},{"name":"reward","type":"uint256","internalType":"uint256"},{"name":"claimant","type":"address","internalType":"address"},{"name":"claimed","type":"bool","internalType":"bool"},{"name":"createdAt","type":"uint256","internalType":"uint256"},{"name":"claimedAt","type":"uint256","internalType":"uint256"}],"stateMutability":"view"},{"type":"function","name":"getDistributionHistory","inputs":[{"name":"offset","type":"uint256","internalType":"uint256"},{"name":"limit","type":"uint256","internalType":"uint256"}],"outputs":[{"name":"","type":"tuple[]","internalType":"struct Treasury.Distribution[]","components":[{"name":"recipient","type":"address","internalType":"address"},{"name":"amount","type":"uint256","internalType":"uint256"},{"name":"reason","type":"string","internalType":"string"},{"name":"timestamp","type":"uint256","internalType":"uint256"}]}],"stateMutability":"view"},{"type":"function","name":"getFundAllocation","inputs":[],"outputs":[{"name":"total","type":"uint256","internalType":"uint256"},{"name":"community","type":"uint256","internalType":"uint256"},{"name":"bounty","type":"uint256","internalType":"uint256"},{"name":"distributed","type":"uint256","internalType":"uint256"}],"stateMutability":"view"},{"type":"function","name":"getRoleAdmin","inputs":[{"name":"role","type":"bytes32","internalType":"bytes32"}],"outputs":[{"name":"","type":"bytes32","internalType":"bytes32"}],"stateMutability":"view"},{"type":"function","name":"getTreasuryBalance","inputs":[],"outputs":[{"name":"","type":"uint256","internalType":"uint256"}],"stateMutability":"view"},{"type":"function","name":"grantRole","inputs":[{"name":"role","type":"bytes32","internalType":"bytes32"},{"name":"account","type":"address","internalType":"address"}],"outputs":[],"stateMutability":"nonpayable"},{"type":"function","name":"hasRole","inputs":[{"name":"role","type":"bytes32","internalType":"bytes32"},{"name":"account","type":"address","internalType":"address"}],"outputs":[{"name":"","type":"bool","internalType":"bool"}],"stateMutability":"view"},{"type":"function","name":"mdtToken","inputs":[],"outputs":[{"name":"","type":"address","internalType":"contract IERC20"}],"stateMutability":"view"},{"type":"function","name":"receiveFunds","inputs":[{"name":"amount","type":"uint256","internalType":"uint256"},{"name":"reason","type":"string","internalType":"string"}],"outputs":[],"stateMutability":"nonpayable"},{"type":"function","name":"recipientTotals","inputs":[{"name":"","type":"address","internalType":"address"}],"outputs":[{"name":"","type":"uint256","internalType":"uint256"}],"stateMutability":"view"},{"type":"function","name":"renounceRole","inputs":[{"name":"role","type":"bytes32","internalType":"bytes32"},{"name":"callerConfirmation","type":"address","internalType":"address"}],"outputs":[],"stateMutability":"nonpayable"},{"type":"function","name":"revokeRole","inputs":[{"name":"role","type":"bytes32","internalType":"bytes32"},{"name":"account","type":"address","internalType":"address"}],"outputs":[],"stateMutability":"nonpayable"},{"type":"function","name":"supportsInterface","inputs":[{"name":"interfaceId","type":"bytes4","internalType":"bytes4"}],"outputs":[{"name":"","type":"bool","internalType":"bool"}],"stateMutability":"view"},{"type":"function","name":"totalDistributed","inputs":[],"outputs":[{"name":"","type":"uint256","internalType":"uint256"}],"stateMutability":"view"},{"type":"function","name":"totalReceived","inputs":[],"outputs":[{"name":"","type":"uint256","internalType":"uint256"}],"stateMutability":"view"},{"type":"function","name":"withdrawEmergency","inputs":[{"name":"token","type":"address","internalType":"address"},{"name":"to","type":"address","internalType":"address"},{"name":"amount","type":"uint256","internalType":"uint256"}],"outputs":[],"stateMutability":"nonpayable"},{"type":"event","name":"BountyClaimed","inputs":[{"name":"bountyId","type":"uint256","indexed":true,"internalType":"uint256"},{"name":"claimant","type":"address","indexed":true,"internalType":"address"}],"anonymous":false},{"type":"event","name":"BountyCreated","inputs":[{"name":"bountyId","type":"uint256","indexed":true,"internalType":"uint256"},{"name":"description","type":"string","indexed":false,"internalType":"string"},{"name":"reward","type":"uint256","indexed":false,"internalType":"uint256"}],"anonymous":false},{"type":"event","name":"CommunityFundAllocated","inputs":[{"name":"amount","type":"uint256","indexed":false,"internalType":"uint256"}],"anonymous":false},{"type":"event","name":"FundsDistributed","inputs":[{"name":"to","type":"address","indexed":true,"internalType":"address"},{"name":"amount","type":"uint256","indexed":false,"internalType":"uint256"},{"name":"reason","type":"string","indexed":false,"internalType":"string"}],"anonymous":false},{"type":"event","name":"FundsReceived","inputs":[{"name":"from","type":"address","indexed":true,"internalType":"address"},{"name":"amount","type":"uint256","indexed":false,"internalType":"uint256"},{"name":"reason","type":"string","indexed":false,"internalType":"string"}],"anonymous":false},{"type":"event","name":"RoleAdminChanged","inputs":[{"name":"role","type":"bytes32","indexed":true,"internalType":"bytes32"},{"name":"previousAdminRole","type":"bytes32","indexed":true,"internalType":"bytes32"},{"name":"newAdminRole","type":"bytes32","indexed":true,"internalType":"bytes32"}],"anonymous":false},{"type":"event","name":"RoleGranted","inputs":[{"name":"role","type":"bytes32","indexed":true,"internalType":"bytes32"},{"name":"account","type":"address","indexed":true,"internalType":"address"},{"name":"sender","type":"address","indexed":true,"internalType":"address"}],"anonymous":false},{"type":"event","name":"RoleRevoked","inputs":[{"name":"role","type":"bytes32","indexed":true,"internalType":"bytes32"},{"name":"account","type":"address","indexed":true,"internalType":"address"},{"name":"sender","type":"address","indexed":true,"internalType":"address"}],"anonymous":false},{"type":"error","name":"AccessControlBadConfirmation","inputs":[]},{"type":"error","name":"AccessControlUnauthorizedAccount","inputs":[{"name":"account","type":"address","internalType":"address"},{"name":"neededRole","type":"bytes32","internalType":"bytes32"}]},{"type":"error","name":"ReentrancyGuardReentrantCall","inputs":[]},{"type":"error","name":"SafeERC20FailedOperation","inputs":[{"name":"token","type":"address","internalType":"address"}]}],"bytecode":{"object":"0x60a060405234801561000f575f5ffd5b5060405161388438038061388483398181016040528101906100319190610273565b600180819055508073ffffffffffffffffffffffffffffffffffffffff1660808173ffffffffffffffffffffffffffffffffffffffff168152505061007e5f5f1b336100b660201b60201c565b506100af7f3496e2e73c4d42b75d702e60d9e48102720b8691234415963a5a857b86425d07336100b660201b60201c565b505061029e565b5f6100c783836101ab60201b60201c565b6101a15760015f5f8581526020019081526020015f205f015f8473ffffffffffffffffffffffffffffffffffffffff1673ffffffffffffffffffffffffffffffffffffffff1681526020019081526020015f205f6101000a81548160ff02191690831515021790555061013e61020e60201b60201c565b73ffffffffffffffffffffffffffffffffffffffff168273ffffffffffffffffffffffffffffffffffffffff16847f2f8788117e7eff1d82e926ec794901d17c78024a50270940304540a733656f0d60405160405180910390a4600190506101a5565b5f90505b92915050565b5f5f5f8481526020019081526020015f205f015f8373ffffffffffffffffffffffffffffffffffffffff1673ffffffffffffffffffffffffffffffffffffffff1681526020019081526020015f205f9054906101000a900460ff16905092915050565b5f33905090565b5f5ffd5b5f73ffffffffffffffffffffffffffffffffffffffff82169050919050565b5f61024282610219565b9050919050565b61025281610238565b811461025c575f5ffd5b50565b5f8151905061026d81610249565b92915050565b5f6020828403121561028857610287610215565b5b5f6102958482850161025f565b91505092915050565b6080516135ab6102d95f395f8181610ccd01528181610dad0152818161155e0152818161167e01528181611ad20152611dd901526135ab5ff3fe6080604052600436106101c4575f3560e01c80639a68f33e116100f6578063c8836ffc11610094578063efca2eed11610063578063efca2eed1461069d578063f0a3a97c146106c7578063f0bd87cc146106f1578063f70b5c061461071b576101cb565b8063c8836ffc146105d0578063d547741f1461060c578063dc2f874414610634578063e5615bf314610675576101cb565b8063a3c2c462116100d0578063a3c2c46214610513578063b4e512691461053d578063b83a3bc114610567578063c2ce5ea0146105a3576101cb565b80639a68f33e146104835780639b5655dc146104bf578063a217fddf146104e9576101cb565b80634487d3df11610163578063765a1cb61161013d578063765a1cb6146103a257806376f0601b146103e357806383d941151461041f57806391d1485414610447576101cb565b80634487d3df1461031357806354d4fad31461035257806368470e241461037a576101cb565b8063248a9ca31161019f578063248a9ca31461025f578063274a0fce1461029b5780632f2ff15d146102c357806336568abe146102eb576101cb565b8062f380f4146101cf57806301ffc9a7146101f957806308637d2014610235576101cb565b366101cb57005b5f5ffd5b3480156101da575f5ffd5b506101e3610745565b6040516101f091906122e0565b60405180910390f35b348015610204575f5ffd5b5061021f600480360381019061021a9190612356565b61074b565b60405161022c919061239b565b60405180910390f35b348015610240575f5ffd5b506102496107c4565b60405161025691906122e0565b60405180910390f35b34801561026a575f5ffd5b50610285600480360381019061028091906123e7565b6107ca565b6040516102929190612421565b60405180910390f35b3480156102a6575f5ffd5b506102c160048036038101906102bc91906124be565b6107e6565b005b3480156102ce575f5ffd5b506102e960048036038101906102e4919061250e565b61090e565b005b3480156102f6575f5ffd5b50610311600480360381019061030c919061250e565b610930565b005b34801561031e575f5ffd5b506103396004803603810190610334919061254c565b6109ab565b60405161034994939291906125f6565b60405180910390f35b34801561035d575f5ffd5b5061037860048036038101906103739190612640565b610a8b565b005b348015610385575f5ffd5b506103a0600480360381019061039b91906126df565b610d63565b005b3480156103ad575f5ffd5b506103c860048036038101906103c3919061254c565b610e79565b6040516103da9695949392919061273c565b60405180910390f35b3480156103ee575f5ffd5b50610409600480360381019061040491906127a2565b611045565b6040516104169190612961565b60405180910390f35b34801561042a575f5ffd5b5061044560048036038101906104409190612981565b61129b565b005b348015610452575f5ffd5b5061046d6004803603810190610468919061250e565b611603565b60405161047a919061239b565b60405180910390f35b34801561048e575f5ffd5b506104a960048036038101906104a491906129f2565b611666565b6040516104b691906122e0565b60405180910390f35b3480156104ca575f5ffd5b506104d361167b565b6040516104e091906122e0565b60405180910390f35b3480156104f4575f5ffd5b506104fd611719565b60405161050a9190612421565b60405180910390f35b34801561051e575f5ffd5b5061052761171f565b60405161053491906122e0565b60405180910390f35b348015610548575f5ffd5b50610551611725565b60405161055e9190612ac5565b60405180910390f35b348015610572575f5ffd5b5061058d60048036038101906105889190612ae5565b61186c565b60405161059a91906122e0565b60405180910390f35b3480156105ae575f5ffd5b506105b7611acc565b6040516105c79493929190612b42565b60405180910390f35b3480156105db575f5ffd5b506105f660048036038101906105f191906129f2565b611b7f565b60405161060391906122e0565b60405180910390f35b348015610617575f5ffd5b50610632600480360381019061062d919061250e565b611b94565b005b34801561063f575f5ffd5b5061065a6004803603810190610655919061254c565b611bb6565b60405161066c9695949392919061273c565b60405180910390f35b348015610680575f5ffd5b5061069b6004803603810190610696919061254c565b611caf565b005b3480156106a8575f5ffd5b506106b1611d89565b6040516106be91906122e0565b60405180910390f35b3480156106d2575f5ffd5b506106db611d8f565b6040516106e89190612421565b60405180910390f35b3480156106fc575f5ffd5b50610705611db3565b6040516107129190612421565b60405180910390f35b348015610726575f5ffd5b5061072f611dd7565b60405161073c9190612be0565b60405180910390f35b60045481565b5f7f7965db0b000000000000000000000000000000000000000000000000000000007bffffffffffffffffffffffffffffffffffffffffffffffffffffffff1916827bffffffffffffffffffffffffffffffffffffffffffffffffffffffff191614806107bd57506107bc82611dfb565b5b9050919050565b60055481565b5f5f5f8381526020019081526020015f20600101549050919050565b5f5f1b6107f281611e64565b5f73ffffffffffffffffffffffffffffffffffffffff168373ffffffffffffffffffffffffffffffffffffffff1603610860576040517f08c379a000000000000000000000000000000000000000000000000000000000815260040161085790612c43565b60405180910390fd5b5f73ffffffffffffffffffffffffffffffffffffffff168473ffffffffffffffffffffffffffffffffffffffff16036108dc578273ffffffffffffffffffffffffffffffffffffffff166108fc8390811502906040515f60405180830381858888f193505050501580156108d6573d5f5f3e3d5ffd5b50610908565b61090783838673ffffffffffffffffffffffffffffffffffffffff16611e789092919063ffffffff16565b5b50505050565b610917826107ca565b61092081611e64565b61092a8383611ef7565b50505050565b610938611fe0565b73ffffffffffffffffffffffffffffffffffffffff168173ffffffffffffffffffffffffffffffffffffffff161461099c576040517f6697b23200000000000000000000000000000000000000000000000000000000815260040160405180910390fd5b6109a68282611fe7565b505050565b600681815481106109ba575f80fd5b905f5260205f2090600402015f91509050805f015f9054906101000a900473ffffffffffffffffffffffffffffffffffffffff1690806001015490806002018054610a0490612c8e565b80601f0160208091040260200160405190810160405280929190818152602001828054610a3090612c8e565b8015610a7b5780601f10610a5257610100808354040283529160200191610a7b565b820191905f5260205f20905b815481529060010190602001808311610a5e57829003601f168201915b5050505050908060030154905084565b7f3496e2e73c4d42b75d702e60d9e48102720b8691234415963a5a857b86425d07610ab581611e64565b610abd6120d0565b6007805490508310610b04576040517f08c379a0000000000000000000000000000000000000000000000000000000008152600401610afb90612d08565b60405180910390fd5b5f60078481548110610b1957610b18612d26565b5b905f5260205f20906005020190508060020160149054906101000a900460ff1615610b79576040517f08c379a0000000000000000000000000000000000000000000000000000000008152600401610b7090612d9d565b60405180910390fd5b5f73ffffffffffffffffffffffffffffffffffffffff168373ffffffffffffffffffffffffffffffffffffffff1603610be7576040517f08c379a0000000000000000000000000000000000000000000000000000000008152600401610bde90612e05565b60405180910390fd5b60018160020160146101000a81548160ff02191690831515021790555082816002015f6101000a81548173ffffffffffffffffffffffffffffffffffffffff021916908373ffffffffffffffffffffffffffffffffffffffff160217905550428160040181905550806001015460035f828254610c649190612e50565b92505081905550806001015460095f8573ffffffffffffffffffffffffffffffffffffffff1673ffffffffffffffffffffffffffffffffffffffff1681526020019081526020015f205f828254610cbb9190612e50565b92505081905550610d118382600101547f000000000000000000000000000000000000000000000000000000000000000073ffffffffffffffffffffffffffffffffffffffff16611e789092919063ffffffff16565b8273ffffffffffffffffffffffffffffffffffffffff16847fbf59c0d059a57ebf273b4b1643599fc4b48cf5effdd82113a740ed64d262ec9360405160405180910390a350610d5e612116565b505050565b5f8311610da5576040517f08c379a0000000000000000000000000000000000000000000000000000000008152600401610d9c90612ecd565b60405180910390fd5b610df23330857f000000000000000000000000000000000000000000000000000000000000000073ffffffffffffffffffffffffffffffffffffffff1661211f909392919063ffffffff16565b8260025f828254610e039190612e50565b925050819055508260045f828254610e1b9190612e50565b925050819055503373ffffffffffffffffffffffffffffffffffffffff167f53bd392522b272902b85d06641a5c298f18e160fffff1e84a020e622f7922810848484604051610e6c93929190612f25565b60405180910390a2505050565b60605f5f5f5f5f6007805490508710610ec7576040517f08c379a0000000000000000000000000000000000000000000000000000000008152600401610ebe90612d08565b60405180910390fd5b5f60078881548110610edc57610edb612d26565b5b905f5260205f2090600502016040518060c00160405290815f82018054610f0290612c8e565b80601f0160208091040260200160405190810160405280929190818152602001828054610f2e90612c8e565b8015610f795780601f10610f5057610100808354040283529160200191610f79565b820191905f5260205f20905b815481529060010190602001808311610f5c57829003601f168201915b5050505050815260200160018201548152602001600282015f9054906101000a900473ffffffffffffffffffffffffffffffffffffffff1673ffffffffffffffffffffffffffffffffffffffff1673ffffffffffffffffffffffffffffffffffffffff1681526020016002820160149054906101000a900460ff16151515158152602001600382015481526020016004820154815250509050805f015181602001518260400151836060015184608001518560a001519650965096509650965096505091939550919395565b606060068054905083108061105e57505f600680549050145b61109d576040517f08c379a000000000000000000000000000000000000000000000000000000000815260040161109490612f9f565b60405180910390fd5b5f82846110aa9190612e50565b90506006805490508111156110c25760068054905090505b5f84826110cf9190612fbd565b90505f8167ffffffffffffffff8111156110ec576110eb612ff0565b5b60405190808252806020026020018201604052801561112557816020015b61111261228d565b81526020019060019003908161110a5790505b5090505f5f90505b8281101561128e57600681886111439190612e50565b8154811061115457611153612d26565b5b905f5260205f2090600402016040518060800160405290815f82015f9054906101000a900473ffffffffffffffffffffffffffffffffffffffff1673ffffffffffffffffffffffffffffffffffffffff1673ffffffffffffffffffffffffffffffffffffffff168152602001600182015481526020016002820180546111d990612c8e565b80601f016020809104026020016040519081016040528092919081815260200182805461120590612c8e565b80156112505780601f1061122757610100808354040283529160200191611250565b820191905f5260205f20905b81548152906001019060200180831161123357829003601f168201915b5050505050815260200160038201548152505082828151811061127657611275612d26565b5b6020026020010181905250808060010191505061112d565b5080935050505092915050565b7ffbd454f36a7e1a388bd6fc3ab10d434aa4578f811acbbcf33afb1c697486313c6112c581611e64565b6112cd6120d0565b5f73ffffffffffffffffffffffffffffffffffffffff168573ffffffffffffffffffffffffffffffffffffffff160361133b576040517f08c379a000000000000000000000000000000000000000000000000000000000815260040161133290612c43565b60405180910390fd5b5f841161137d576040517f08c379a000000000000000000000000000000000000000000000000000000000815260040161137490612ecd565b60405180910390fd5b6004548411156113c2576040517f08c379a00000000000000000000000000000000000000000000000000000000081526004016113b990613067565b60405180910390fd5b8360045f8282546113d39190612fbd565b925050819055508360035f8282546113eb9190612e50565b925050819055508360085f8773ffffffffffffffffffffffffffffffffffffffff1673ffffffffffffffffffffffffffffffffffffffff1681526020019081526020015f205f82825461143e9190612e50565b92505081905550600660405180608001604052808773ffffffffffffffffffffffffffffffffffffffff16815260200186815260200185858080601f0160208091040260200160405190810160405280939291908181526020018383808284375f81840152601f19601f82011690508083019250505050505050815260200142815250908060018154018082558091505060019003905f5260205f2090600402015f909190919091505f820151815f015f6101000a81548173ffffffffffffffffffffffffffffffffffffffff021916908373ffffffffffffffffffffffffffffffffffffffff16021790555060208201518160010155604082015181600201908161154a919061321c565b506060820151816003015550506115a285857f000000000000000000000000000000000000000000000000000000000000000073ffffffffffffffffffffffffffffffffffffffff16611e789092919063ffffffff16565b8473ffffffffffffffffffffffffffffffffffffffff167f520c1bd761a1b0e30a68d80019ba245e1f934ea8ef7458619e45b5a5d52219a78585856040516115ec93929190612f25565b60405180910390a26115fc612116565b5050505050565b5f5f5f8481526020019081526020015f205f015f8373ffffffffffffffffffffffffffffffffffffffff1673ffffffffffffffffffffffffffffffffffffffff1681526020019081526020015f205f9054906101000a900460ff16905092915050565b6008602052805f5260405f205f915090505481565b5f7f000000000000000000000000000000000000000000000000000000000000000073ffffffffffffffffffffffffffffffffffffffff166370a08231306040518263ffffffff1660e01b81526004016116d591906132eb565b602060405180830381865afa1580156116f0573d5f5f3e3d5ffd5b505050506040513d601f19601f820116820180604052508101906117149190613318565b905090565b5f5f1b81565b60025481565b60605f5f90505f5f90505b60078054905081101561178e576007818154811061175157611750612d26565b5b905f5260205f20906005020160020160149054906101000a900460ff1661178157818061177d90613343565b9250505b8080600101915050611730565b505f8167ffffffffffffffff8111156117aa576117a9612ff0565b5b6040519080825280602002602001820160405280156117d85781602001602082028036833780820191505090505b5090505f5f90505f5f90505b600780549050811015611862576007818154811061180557611804612d26565b5b905f5260205f20906005020160020160149054906101000a900460ff16611855578083838151811061183a57611839612d26565b5b602002602001018181525050818061185190613343565b9250505b80806001019150506117e4565b5081935050505090565b5f7f3496e2e73c4d42b75d702e60d9e48102720b8691234415963a5a857b86425d0761189781611e64565b5f83116118d9576040517f08c379a00000000000000000000000000000000000000000000000000000000081526004016118d0906133d4565b60405180910390fd5b60055483111561191e576040517f08c379a00000000000000000000000000000000000000000000000000000000081526004016119159061343c565b60405180910390fd5b8260055f82825461192f9190612fbd565b92505081905550600780549050915060076040518060c0016040528087878080601f0160208091040260200160405190810160405280939291908181526020018383808284375f81840152601f19601f8201169050808301925050505050505081526020018581526020015f73ffffffffffffffffffffffffffffffffffffffff1681526020015f151581526020014281526020015f815250908060018154018082558091505060019003905f5260205f2090600502015f909190919091505f820151815f019081611a01919061321c565b50602082015181600101556040820151816002015f6101000a81548173ffffffffffffffffffffffffffffffffffffffff021916908373ffffffffffffffffffffffffffffffffffffffff16021790555060608201518160020160146101000a81548160ff0219169083151502179055506080820151816003015560a082015181600401555050817f4b4f8d3c427c31f6a1e8a518678f20d88e304da4d4fa251c3f4ac58edd0de7fa868686604051611abc9392919061345a565b60405180910390a2509392505050565b5f5f5f5f7f000000000000000000000000000000000000000000000000000000000000000073ffffffffffffffffffffffffffffffffffffffff166370a08231306040518263ffffffff1660e01b8152600401611b2991906132eb565b602060405180830381865afa158015611b44573d5f5f3e3d5ffd5b505050506040513d601f19601f82011682018060405250810190611b689190613318565b935060045492506005549150600354905090919293565b6009602052805f5260405f205f915090505481565b611b9d826107ca565b611ba681611e64565b611bb08383611fe7565b50505050565b60078181548110611bc5575f80fd5b905f5260205f2090600502015f91509050805f018054611be490612c8e565b80601f0160208091040260200160405190810160405280929190818152602001828054611c1090612c8e565b8015611c5b5780601f10611c3257610100808354040283529160200191611c5b565b820191905f5260205f20905b815481529060010190602001808311611c3e57829003601f168201915b505050505090806001015490806002015f9054906101000a900473ffffffffffffffffffffffffffffffffffffffff16908060020160149054906101000a900460ff16908060030154908060040154905086565b7f3496e2e73c4d42b75d702e60d9e48102720b8691234415963a5a857b86425d07611cd981611e64565b600454821115611d1e576040517f08c379a0000000000000000000000000000000000000000000000000000000008152600401611d15906134d4565b60405180910390fd5b8160045f828254611d2f9190612fbd565b925050819055508160055f828254611d479190612e50565b925050819055507f69024e4822364a9cc8bd60f389bfa81f691d791cd732a4fc01ad258b1419345f82604051611d7d91906122e0565b60405180910390a15050565b60035481565b7f3496e2e73c4d42b75d702e60d9e48102720b8691234415963a5a857b86425d0781565b7ffbd454f36a7e1a388bd6fc3ab10d434aa4578f811acbbcf33afb1c697486313c81565b7f000000000000000000000000000000000000000000000000000000000000000081565b5f7f01ffc9a7000000000000000000000000000000000000000000000000000000007bffffffffffffffffffffffffffffffffffffffffffffffffffffffff1916827bffffffffffffffffffffffffffffffffffffffffffffffffffffffff1916149050919050565b611e7581611e70611fe0565b6121a1565b50565b611ef2838473ffffffffffffffffffffffffffffffffffffffff1663a9059cbb8585604051602401611eab9291906134f2565b604051602081830303815290604052915060e01b6020820180517bffffffffffffffffffffffffffffffffffffffffffffffffffffffff83818316178352505050506121f2565b505050565b5f611f028383611603565b611fd65760015f5f8581526020019081526020015f205f015f8473ffffffffffffffffffffffffffffffffffffffff1673ffffffffffffffffffffffffffffffffffffffff1681526020019081526020015f205f6101000a81548160ff021916908315150217905550611f73611fe0565b73ffffffffffffffffffffffffffffffffffffffff168273ffffffffffffffffffffffffffffffffffffffff16847f2f8788117e7eff1d82e926ec794901d17c78024a50270940304540a733656f0d60405160405180910390a460019050611fda565b5f90505b92915050565b5f33905090565b5f611ff28383611603565b156120c6575f5f5f8581526020019081526020015f205f015f8473ffffffffffffffffffffffffffffffffffffffff1673ffffffffffffffffffffffffffffffffffffffff1681526020019081526020015f205f6101000a81548160ff021916908315150217905550612063611fe0565b73ffffffffffffffffffffffffffffffffffffffff168273ffffffffffffffffffffffffffffffffffffffff16847ff6391f5c32d9c69d2a47ea670b442974b53935d1edc7fd64eb21e047a839171b60405160405180910390a4600190506120ca565b5f90505b92915050565b60026001540361210c576040517f3ee5aeb500000000000000000000000000000000000000000000000000000000815260040160405180910390fd5b6002600181905550565b60018081905550565b61219b848573ffffffffffffffffffffffffffffffffffffffff166323b872dd86868660405160240161215493929190613519565b604051602081830303815290604052915060e01b6020820180517bffffffffffffffffffffffffffffffffffffffffffffffffffffffff83818316178352505050506121f2565b50505050565b6121ab8282611603565b6121ee5780826040517fe2517d3f0000000000000000000000000000000000000000000000000000000081526004016121e592919061354e565b60405180910390fd5b5050565b5f5f60205f8451602086015f885af180612211576040513d5f823e3d81fd5b3d92505f519150505f821461222a576001811415612245565b5f8473ffffffffffffffffffffffffffffffffffffffff163b145b1561228757836040517f5274afe700000000000000000000000000000000000000000000000000000000815260040161227e91906132eb565b60405180910390fd5b50505050565b60405180608001604052805f73ffffffffffffffffffffffffffffffffffffffff1681526020015f8152602001606081526020015f81525090565b5f819050919050565b6122da816122c8565b82525050565b5f6020820190506122f35f8301846122d1565b92915050565b5f5ffd5b5f5ffd5b5f7fffffffff0000000000000000000000000000000000000000000000000000000082169050919050565b61233581612301565b811461233f575f5ffd5b50565b5f813590506123508161232c565b92915050565b5f6020828403121561236b5761236a6122f9565b5b5f61237884828501612342565b91505092915050565b5f8115159050919050565b61239581612381565b82525050565b5f6020820190506123ae5f83018461238c565b92915050565b5f819050919050565b6123c6816123b4565b81146123d0575f5ffd5b50565b5f813590506123e1816123bd565b92915050565b5f602082840312156123fc576123fb6122f9565b5b5f612409848285016123d3565b91505092915050565b61241b816123b4565b82525050565b5f6020820190506124345f830184612412565b92915050565b5f73ffffffffffffffffffffffffffffffffffffffff82169050919050565b5f6124638261243a565b9050919050565b61247381612459565b811461247d575f5ffd5b50565b5f8135905061248e8161246a565b92915050565b61249d816122c8565b81146124a7575f5ffd5b50565b5f813590506124b881612494565b92915050565b5f5f5f606084860312156124d5576124d46122f9565b5b5f6124e286828701612480565b93505060206124f386828701612480565b9250506040612504868287016124aa565b9150509250925092565b5f5f60408385031215612524576125236122f9565b5b5f612531858286016123d3565b925050602061254285828601612480565b9150509250929050565b5f60208284031215612561576125606122f9565b5b5f61256e848285016124aa565b91505092915050565b61258081612459565b82525050565b5f81519050919050565b5f82825260208201905092915050565b8281835e5f83830152505050565b5f601f19601f8301169050919050565b5f6125c882612586565b6125d28185612590565b93506125e28185602086016125a0565b6125eb816125ae565b840191505092915050565b5f6080820190506126095f830187612577565b61261660208301866122d1565b818103604083015261262881856125be565b905061263760608301846122d1565b95945050505050565b5f5f60408385031215612656576126556122f9565b5b5f612663858286016124aa565b925050602061267485828601612480565b9150509250929050565b5f5ffd5b5f5ffd5b5f5ffd5b5f5f83601f84011261269f5761269e61267e565b5b8235905067ffffffffffffffff8111156126bc576126bb612682565b5b6020830191508360018202830111156126d8576126d7612686565b5b9250929050565b5f5f5f604084860312156126f6576126f56122f9565b5b5f612703868287016124aa565b935050602084013567ffffffffffffffff811115612724576127236122fd565b5b6127308682870161268a565b92509250509250925092565b5f60c0820190508181035f83015261275481896125be565b905061276360208301886122d1565b6127706040830187612577565b61277d606083018661238c565b61278a60808301856122d1565b61279760a08301846122d1565b979650505050505050565b5f5f604083850312156127b8576127b76122f9565b5b5f6127c5858286016124aa565b92505060206127d6858286016124aa565b9150509250929050565b5f81519050919050565b5f82825260208201905092915050565b5f819050602082019050919050565b61281281612459565b82525050565b612821816122c8565b82525050565b5f82825260208201905092915050565b5f61284182612586565b61284b8185612827565b935061285b8185602086016125a0565b612864816125ae565b840191505092915050565b5f608083015f8301516128845f860182612809565b5060208301516128976020860182612818565b50604083015184820360408601526128af8282612837565b91505060608301516128c46060860182612818565b508091505092915050565b5f6128da838361286f565b905092915050565b5f602082019050919050565b5f6128f8826127e0565b61290281856127ea565b935083602082028501612914856127fa565b805f5b8581101561294f578484038952815161293085826128cf565b945061293b836128e2565b925060208a01995050600181019050612917565b50829750879550505050505092915050565b5f6020820190508181035f83015261297981846128ee565b905092915050565b5f5f5f5f60608587031215612999576129986122f9565b5b5f6129a687828801612480565b94505060206129b7878288016124aa565b935050604085013567ffffffffffffffff8111156129d8576129d76122fd565b5b6129e48782880161268a565b925092505092959194509250565b5f60208284031215612a0757612a066122f9565b5b5f612a1484828501612480565b91505092915050565b5f81519050919050565b5f82825260208201905092915050565b5f819050602082019050919050565b5f612a518383612818565b60208301905092915050565b5f602082019050919050565b5f612a7382612a1d565b612a7d8185612a27565b9350612a8883612a37565b805f5b83811015612ab8578151612a9f8882612a46565b9750612aaa83612a5d565b925050600181019050612a8b565b5085935050505092915050565b5f6020820190508181035f830152612add8184612a69565b905092915050565b5f5f5f60408486031215612afc57612afb6122f9565b5b5f84013567ffffffffffffffff811115612b1957612b186122fd565b5b612b258682870161268a565b93509350506020612b38868287016124aa565b9150509250925092565b5f608082019050612b555f8301876122d1565b612b6260208301866122d1565b612b6f60408301856122d1565b612b7c60608301846122d1565b95945050505050565b5f819050919050565b5f612ba8612ba3612b9e8461243a565b612b85565b61243a565b9050919050565b5f612bb982612b8e565b9050919050565b5f612bca82612baf565b9050919050565b612bda81612bc0565b82525050565b5f602082019050612bf35f830184612bd1565b92915050565b7f496e76616c696420726563697069656e740000000000000000000000000000005f82015250565b5f612c2d601183612590565b9150612c3882612bf9565b602082019050919050565b5f6020820190508181035f830152612c5a81612c21565b9050919050565b7f4e487b71000000000000000000000000000000000000000000000000000000005f52602260045260245ffd5b5f6002820490506001821680612ca557607f821691505b602082108103612cb857612cb7612c61565b5b50919050565b7f496e76616c696420626f756e74792049440000000000000000000000000000005f82015250565b5f612cf2601183612590565b9150612cfd82612cbe565b602082019050919050565b5f6020820190508181035f830152612d1f81612ce6565b9050919050565b7f4e487b71000000000000000000000000000000000000000000000000000000005f52603260045260245ffd5b7f426f756e747920616c726561647920636c61696d6564000000000000000000005f82015250565b5f612d87601683612590565b9150612d9282612d53565b602082019050919050565b5f6020820190508181035f830152612db481612d7b565b9050919050565b7f496e76616c696420636c61696d616e74000000000000000000000000000000005f82015250565b5f612def601083612590565b9150612dfa82612dbb565b602082019050919050565b5f6020820190508181035f830152612e1c81612de3565b9050919050565b7f4e487b71000000000000000000000000000000000000000000000000000000005f52601160045260245ffd5b5f612e5a826122c8565b9150612e65836122c8565b9250828201905080821115612e7d57612e7c612e23565b5b92915050565b7f416d6f756e74206d757374206265203e203000000000000000000000000000005f82015250565b5f612eb7601283612590565b9150612ec282612e83565b602082019050919050565b5f6020820190508181035f830152612ee481612eab565b9050919050565b828183375f83830152505050565b5f612f048385612590565b9350612f11838584612eeb565b612f1a836125ae565b840190509392505050565b5f604082019050612f385f8301866122d1565b8181036020830152612f4b818486612ef9565b9050949350505050565b7f4f6666736574206f7574206f6620626f756e64730000000000000000000000005f82015250565b5f612f89601483612590565b9150612f9482612f55565b602082019050919050565b5f6020820190508181035f830152612fb681612f7d565b9050919050565b5f612fc7826122c8565b9150612fd2836122c8565b9250828203905081811115612fea57612fe9612e23565b5b92915050565b7f4e487b71000000000000000000000000000000000000000000000000000000005f52604160045260245ffd5b7f496e73756666696369656e742066756e647300000000000000000000000000005f82015250565b5f613051601283612590565b915061305c8261301d565b602082019050919050565b5f6020820190508181035f83015261307e81613045565b9050919050565b5f819050815f5260205f209050919050565b5f6020601f8301049050919050565b5f82821b905092915050565b5f600883026130e17fffffffffffffffffffffffffffffffffffffffffffffffffffffffffffffffff826130a6565b6130eb86836130a6565b95508019841693508086168417925050509392505050565b5f61311d613118613113846122c8565b612b85565b6122c8565b9050919050565b5f819050919050565b61313683613103565b61314a61314282613124565b8484546130b2565b825550505050565b5f5f905090565b613161613152565b61316c81848461312d565b505050565b5b8181101561318f576131845f82613159565b600181019050613172565b5050565b601f8211156131d4576131a581613085565b6131ae84613097565b810160208510156131bd578190505b6131d16131c985613097565b830182613171565b50505b505050565b5f82821c905092915050565b5f6131f45f19846008026131d9565b1980831691505092915050565b5f61320c83836131e5565b9150826002028217905092915050565b61322582612586565b67ffffffffffffffff81111561323e5761323d612ff0565b5b6132488254612c8e565b613253828285613193565b5f60209050601f831160018114613284575f8415613272578287015190505b61327c8582613201565b8655506132e3565b601f19841661329286613085565b5f5b828110156132b957848901518255600182019150602085019450602081019050613294565b868310156132d657848901516132d2601f8916826131e5565b8355505b6001600288020188555050505b505050505050565b5f6020820190506132fe5f830184612577565b92915050565b5f8151905061331281612494565b92915050565b5f6020828403121561332d5761332c6122f9565b5b5f61333a84828501613304565b91505092915050565b5f61334d826122c8565b91507fffffffffffffffffffffffffffffffffffffffffffffffffffffffffffffffff820361337f5761337e612e23565b5b600182019050919050565b7f526577617264206d757374206265203e203000000000000000000000000000005f82015250565b5f6133be601283612590565b91506133c98261338a565b602082019050919050565b5f6020820190508181035f8301526133eb816133b2565b9050919050565b7f496e73756666696369656e7420626f756e747920706f6f6c00000000000000005f82015250565b5f613426601883612590565b9150613431826133f2565b602082019050919050565b5f6020820190508181035f8301526134538161341a565b9050919050565b5f6040820190508181035f830152613473818587612ef9565b905061348260208301846122d1565b949350505050565b7f496e73756666696369656e7420636f6d6d756e6974792066756e6473000000005f82015250565b5f6134be601c83612590565b91506134c98261348a565b602082019050919050565b5f6020820190508181035f8301526134eb816134b2565b9050919050565b5f6040820190506135055f830185612577565b61351260208301846122d1565b9392505050565b5f60608201905061352c5f830186612577565b6135396020830185612577565b61354660408301846122d1565b949350505050565b5f6040820190506135615f830185612577565b61356e6020830184612412565b939250505056fea264697066735822122069072c868d1731bff311dcf872a0e3ce68e1ff827c5d5fa9e03e4c9d9d7ef3a064736f6c634300081e0033","linkReferences":{}},"methodIdentifiers":{"DEFAULT_ADMIN_ROLE()":"a217fddf","DISTRIBUTOR_ROLE()":"f0bd87cc","TREASURER_ROLE()":"f0a3a97c","allocateToBountyPool(uint256)":"e5615bf3","bounties(uint256)":"dc2f8744","bountyClaimantTotals(address)":"c8836ffc","bountyPool()":"08637d20","claimBounty(uint256,address)":"54d4fad3","communityFund()":"00f380f4","createBounty(string,uint256)":"b83a3bc1","distribute(address,uint256,string)":"83d94115","distributions(uint256)":"4487d3df","getActiveBounties()":"b4e51269","getBountyInfo(uint256)":"765a1cb6","getDistributionHistory(uint256,uint256)":"76f0601b","getFundAllocation()":"c2ce5ea0","getRoleAdmin(bytes32)":"248a9ca3","getTreasuryBalance()":"9b5655dc","grantRole(bytes32,address)":"2f2ff15d","hasRole(bytes32,address)":"91d14854","mdtToken()":"f70b5c06","receiveFunds(uint256,string)":"68470e24","recipientTotals(address)":"9a68f33e","renounceRole(bytes32,address)":"36568abe","revokeRole(bytes32,address)":"d547741f","supportsInterface(bytes4)":"01ffc9a7","totalDistributed()":"efca2eed","totalReceived()":"a3c2c462","withdrawEmergency(address,address,uint256)":"274a0fce"},"id":6}